{
  "_format": "hh-sol-artifact-1",
  "contractName": "MagicMondrian",
  "sourceName": "contracts/MagicMondrian.sol",
  "abi": [
    {
      "inputs": [
        {
          "internalType": "address[]",
          "name": "_payeesAdresses",
          "type": "address[]"
        },
        {
          "internalType": "uint256[]",
          "name": "_payeesShares",
          "type": "uint256[]"
        },
        {
          "internalType": "address",
          "name": "_signerAddress",
          "type": "address"
        },
        {
          "internalType": "string",
          "name": "_hiddenURI",
          "type": "string"
        }
      ],
      "stateMutability": "nonpayable",
      "type": "constructor"
    },
    {
      "inputs": [],
      "name": "ApprovalCallerNotOwnerNorApproved",
      "type": "error"
    },
    {
      "inputs": [],
      "name": "ApprovalQueryForNonexistentToken",
      "type": "error"
    },
    {
      "inputs": [],
      "name": "ApprovalToCurrentOwner",
      "type": "error"
    },
    {
      "inputs": [],
      "name": "ApproveToCaller",
      "type": "error"
    },
    {
      "inputs": [],
      "name": "BalanceQueryForZeroAddress",
      "type": "error"
    },
    {
      "inputs": [],
      "name": "MintToZeroAddress",
      "type": "error"
    },
    {
      "inputs": [],
      "name": "MintZeroQuantity",
      "type": "error"
    },
    {
      "inputs": [],
      "name": "OwnerQueryForNonexistentToken",
      "type": "error"
    },
    {
      "inputs": [],
      "name": "TransferCallerNotOwnerNorApproved",
      "type": "error"
    },
    {
      "inputs": [],
      "name": "TransferFromIncorrectOwner",
      "type": "error"
    },
    {
      "inputs": [],
      "name": "TransferToNonERC721ReceiverImplementer",
      "type": "error"
    },
    {
      "inputs": [],
      "name": "TransferToZeroAddress",
      "type": "error"
    },
    {
      "anonymous": false,
      "inputs": [
        {
          "indexed": true,
          "internalType": "address",
          "name": "owner",
          "type": "address"
        },
        {
          "indexed": true,
          "internalType": "address",
          "name": "approved",
          "type": "address"
        },
        {
          "indexed": true,
          "internalType": "uint256",
          "name": "tokenId",
          "type": "uint256"
        }
      ],
      "name": "Approval",
      "type": "event"
    },
    {
      "anonymous": false,
      "inputs": [
        {
          "indexed": true,
          "internalType": "address",
          "name": "owner",
          "type": "address"
        },
        {
          "indexed": true,
          "internalType": "address",
          "name": "operator",
          "type": "address"
        },
        {
          "indexed": false,
          "internalType": "bool",
          "name": "approved",
          "type": "bool"
        }
      ],
      "name": "ApprovalForAll",
      "type": "event"
    },
    {
      "anonymous": false,
      "inputs": [
        {
          "indexed": true,
          "internalType": "contract IERC20",
          "name": "token",
          "type": "address"
        },
        {
          "indexed": false,
          "internalType": "address",
          "name": "to",
          "type": "address"
        },
        {
          "indexed": false,
          "internalType": "uint256",
          "name": "amount",
          "type": "uint256"
        }
      ],
      "name": "ERC20PaymentReleased",
      "type": "event"
    },
    {
      "anonymous": false,
      "inputs": [
        {
          "indexed": true,
          "internalType": "address",
          "name": "previousOwner",
          "type": "address"
        },
        {
          "indexed": true,
          "internalType": "address",
          "name": "newOwner",
          "type": "address"
        }
      ],
      "name": "OwnershipTransferred",
      "type": "event"
    },
    {
      "anonymous": false,
      "inputs": [
        {
          "indexed": false,
          "internalType": "address",
          "name": "account",
          "type": "address"
        }
      ],
      "name": "Paused",
      "type": "event"
    },
    {
      "anonymous": false,
      "inputs": [
        {
          "indexed": false,
          "internalType": "address",
          "name": "account",
          "type": "address"
        },
        {
          "indexed": false,
          "internalType": "uint256",
          "name": "shares",
          "type": "uint256"
        }
      ],
      "name": "PayeeAdded",
      "type": "event"
    },
    {
      "anonymous": false,
      "inputs": [
        {
          "indexed": false,
          "internalType": "address",
          "name": "from",
          "type": "address"
        },
        {
          "indexed": false,
          "internalType": "uint256",
          "name": "amount",
          "type": "uint256"
        }
      ],
      "name": "PaymentReceived",
      "type": "event"
    },
    {
      "anonymous": false,
      "inputs": [
        {
          "indexed": false,
          "internalType": "address",
          "name": "to",
          "type": "address"
        },
        {
          "indexed": false,
          "internalType": "uint256",
          "name": "amount",
          "type": "uint256"
        }
      ],
      "name": "PaymentReleased",
      "type": "event"
    },
    {
      "anonymous": false,
      "inputs": [
        {
          "indexed": true,
          "internalType": "address",
          "name": "from",
          "type": "address"
        },
        {
          "indexed": true,
          "internalType": "address",
          "name": "to",
          "type": "address"
        },
        {
          "indexed": true,
          "internalType": "uint256",
          "name": "tokenId",
          "type": "uint256"
        }
      ],
      "name": "Transfer",
      "type": "event"
    },
    {
      "anonymous": false,
      "inputs": [
        {
          "indexed": false,
          "internalType": "address",
          "name": "account",
          "type": "address"
        }
      ],
      "name": "Unpaused",
      "type": "event"
    },
    {
      "inputs": [
        {
          "internalType": "address",
          "name": "_to",
          "type": "address"
        },
        {
          "internalType": "uint256",
          "name": "_quantity",
          "type": "uint256"
        }
      ],
      "name": "airDrop",
      "outputs": [],
      "stateMutability": "nonpayable",
      "type": "function"
    },
    {
      "inputs": [
        {
          "internalType": "address",
          "name": "",
          "type": "address"
        }
      ],
      "name": "amountNFTsperWalletWhitelistSale",
      "outputs": [
        {
          "internalType": "uint256",
          "name": "",
          "type": "uint256"
        }
      ],
      "stateMutability": "view",
      "type": "function"
    },
    {
      "inputs": [
        {
          "internalType": "address",
          "name": "to",
          "type": "address"
        },
        {
          "internalType": "uint256",
          "name": "tokenId",
          "type": "uint256"
        }
      ],
      "name": "approve",
      "outputs": [],
      "stateMutability": "nonpayable",
      "type": "function"
    },
    {
      "inputs": [
        {
          "internalType": "address",
          "name": "owner",
          "type": "address"
        }
      ],
      "name": "balanceOf",
      "outputs": [
        {
          "internalType": "uint256",
          "name": "",
          "type": "uint256"
        }
      ],
      "stateMutability": "view",
      "type": "function"
    },
    {
      "inputs": [],
      "name": "baseURI",
      "outputs": [
        {
          "internalType": "string",
          "name": "",
          "type": "string"
        }
      ],
      "stateMutability": "view",
      "type": "function"
    },
    {
      "inputs": [],
      "name": "contractURI",
      "outputs": [
        {
          "internalType": "string",
          "name": "",
          "type": "string"
        }
      ],
      "stateMutability": "pure",
      "type": "function"
    },
    {
      "inputs": [],
      "name": "cost",
      "outputs": [
        {
          "internalType": "uint256",
          "name": "",
          "type": "uint256"
        }
      ],
      "stateMutability": "view",
      "type": "function"
    },
    {
      "inputs": [
        {
          "internalType": "uint256",
          "name": "tokenId",
          "type": "uint256"
        }
      ],
      "name": "getApproved",
      "outputs": [
        {
          "internalType": "address",
          "name": "",
          "type": "address"
        }
      ],
      "stateMutability": "view",
      "type": "function"
    },
    {
      "inputs": [],
      "name": "hiddenURI",
      "outputs": [
        {
          "internalType": "string",
          "name": "",
          "type": "string"
        }
      ],
      "stateMutability": "view",
      "type": "function"
    },
    {
      "inputs": [
        {
          "internalType": "address",
          "name": "owner",
          "type": "address"
        },
        {
          "internalType": "address",
          "name": "operator",
          "type": "address"
        }
      ],
      "name": "isApprovedForAll",
      "outputs": [
        {
          "internalType": "bool",
          "name": "",
          "type": "bool"
        }
      ],
      "stateMutability": "view",
      "type": "function"
    },
    {
      "inputs": [],
      "name": "maxMint",
      "outputs": [
        {
          "internalType": "uint256",
          "name": "",
          "type": "uint256"
        }
      ],
      "stateMutability": "view",
      "type": "function"
    },
    {
      "inputs": [],
      "name": "name",
      "outputs": [
        {
          "internalType": "string",
          "name": "",
          "type": "string"
        }
      ],
      "stateMutability": "view",
      "type": "function"
    },
    {
      "inputs": [],
      "name": "owner",
      "outputs": [
        {
          "internalType": "address",
          "name": "",
          "type": "address"
        }
      ],
      "stateMutability": "view",
      "type": "function"
    },
    {
      "inputs": [
        {
          "internalType": "uint256",
          "name": "tokenId",
          "type": "uint256"
        }
      ],
      "name": "ownerOf",
      "outputs": [
        {
          "internalType": "address",
          "name": "",
          "type": "address"
        }
      ],
      "stateMutability": "view",
      "type": "function"
    },
    {
      "inputs": [],
      "name": "pause",
      "outputs": [],
      "stateMutability": "nonpayable",
      "type": "function"
    },
    {
      "inputs": [],
      "name": "paused",
      "outputs": [
        {
          "internalType": "bool",
          "name": "",
          "type": "bool"
        }
      ],
      "stateMutability": "view",
      "type": "function"
    },
    {
      "inputs": [
        {
          "internalType": "uint256",
          "name": "index",
          "type": "uint256"
        }
      ],
      "name": "payee",
      "outputs": [
        {
          "internalType": "address",
          "name": "",
          "type": "address"
        }
      ],
      "stateMutability": "view",
      "type": "function"
    },
    {
      "inputs": [
        {
          "internalType": "address",
          "name": "_account",
          "type": "address"
        },
        {
          "internalType": "uint256",
          "name": "_quantity",
          "type": "uint256"
        }
      ],
      "name": "publicSaleMint",
      "outputs": [],
      "stateMutability": "payable",
      "type": "function"
    },
    {
      "inputs": [
        {
          "internalType": "address payable",
          "name": "account",
          "type": "address"
        }
      ],
      "name": "release",
      "outputs": [],
      "stateMutability": "nonpayable",
      "type": "function"
    },
    {
      "inputs": [
        {
          "internalType": "contract IERC20",
          "name": "token",
          "type": "address"
        },
        {
          "internalType": "address",
          "name": "account",
          "type": "address"
        }
      ],
      "name": "release",
      "outputs": [],
      "stateMutability": "nonpayable",
      "type": "function"
    },
    {
      "inputs": [],
      "name": "releaseAll",
      "outputs": [],
      "stateMutability": "nonpayable",
      "type": "function"
    },
    {
      "inputs": [
        {
          "internalType": "contract IERC20",
          "name": "token",
          "type": "address"
        },
        {
          "internalType": "address",
          "name": "account",
          "type": "address"
        }
      ],
      "name": "released",
      "outputs": [
        {
          "internalType": "uint256",
          "name": "",
          "type": "uint256"
        }
      ],
      "stateMutability": "view",
      "type": "function"
    },
    {
      "inputs": [
        {
          "internalType": "address",
          "name": "account",
          "type": "address"
        }
      ],
      "name": "released",
      "outputs": [
        {
          "internalType": "uint256",
          "name": "",
          "type": "uint256"
        }
      ],
      "stateMutability": "view",
      "type": "function"
    },
    {
      "inputs": [],
      "name": "renounceOwnership",
      "outputs": [],
      "stateMutability": "nonpayable",
      "type": "function"
    },
    {
      "inputs": [
        {
          "internalType": "address",
          "name": "from",
          "type": "address"
        },
        {
          "internalType": "address",
          "name": "to",
          "type": "address"
        },
        {
          "internalType": "uint256",
          "name": "tokenId",
          "type": "uint256"
        }
      ],
      "name": "safeTransferFrom",
      "outputs": [],
      "stateMutability": "nonpayable",
      "type": "function"
    },
    {
      "inputs": [
        {
          "internalType": "address",
          "name": "from",
          "type": "address"
        },
        {
          "internalType": "address",
          "name": "to",
          "type": "address"
        },
        {
          "internalType": "uint256",
          "name": "tokenId",
          "type": "uint256"
        },
        {
          "internalType": "bytes",
          "name": "_data",
          "type": "bytes"
        }
      ],
      "name": "safeTransferFrom",
      "outputs": [],
      "stateMutability": "nonpayable",
      "type": "function"
    },
    {
      "inputs": [],
      "name": "sellingPhase",
      "outputs": [
        {
          "internalType": "enum MagicMondrian.Phase",
          "name": "",
          "type": "uint8"
        }
      ],
      "stateMutability": "view",
      "type": "function"
    },
    {
      "inputs": [
        {
          "internalType": "address",
          "name": "operator",
          "type": "address"
        },
        {
          "internalType": "bool",
          "name": "approved",
          "type": "bool"
        }
      ],
      "name": "setApprovalForAll",
      "outputs": [],
      "stateMutability": "nonpayable",
      "type": "function"
    },
    {
      "inputs": [
        {
          "internalType": "string",
          "name": "_baseURI",
          "type": "string"
        }
      ],
      "name": "setBaseUri",
      "outputs": [],
      "stateMutability": "nonpayable",
      "type": "function"
    },
    {
      "inputs": [
        {
          "internalType": "uint256",
          "name": "_cost",
          "type": "uint256"
        }
      ],
      "name": "setCost",
      "outputs": [],
      "stateMutability": "nonpayable",
      "type": "function"
    },
    {
      "inputs": [
        {
          "internalType": "string",
          "name": "_hiddenUri",
          "type": "string"
        }
      ],
      "name": "setHiddenUri",
      "outputs": [],
      "stateMutability": "nonpayable",
      "type": "function"
    },
    {
      "inputs": [
        {
          "internalType": "uint256",
          "name": "_maxMintAmountPerTx",
          "type": "uint256"
        }
      ],
      "name": "setMaxMintAmountPerTx",
      "outputs": [],
      "stateMutability": "nonpayable",
      "type": "function"
    },
    {
      "inputs": [
        {
          "internalType": "uint256",
          "name": "_phase",
          "type": "uint256"
        }
      ],
      "name": "setPhase",
      "outputs": [],
      "stateMutability": "nonpayable",
      "type": "function"
    },
    {
      "inputs": [
        {
          "internalType": "address",
          "name": "_signerAddress",
          "type": "address"
        }
      ],
      "name": "setSignerAddress",
      "outputs": [],
      "stateMutability": "nonpayable",
      "type": "function"
    },
    {
      "inputs": [
        {
          "internalType": "address",
          "name": "account",
          "type": "address"
        }
      ],
      "name": "shares",
      "outputs": [
        {
          "internalType": "uint256",
          "name": "",
          "type": "uint256"
        }
      ],
      "stateMutability": "view",
      "type": "function"
    },
    {
      "inputs": [
        {
          "internalType": "bytes4",
          "name": "interfaceId",
          "type": "bytes4"
        }
      ],
      "name": "supportsInterface",
      "outputs": [
        {
          "internalType": "bool",
          "name": "",
          "type": "bool"
        }
      ],
      "stateMutability": "view",
      "type": "function"
    },
    {
      "inputs": [],
      "name": "symbol",
      "outputs": [
        {
          "internalType": "string",
          "name": "",
          "type": "string"
        }
      ],
      "stateMutability": "view",
      "type": "function"
    },
    {
      "inputs": [
        {
          "internalType": "uint256",
          "name": "_tokenId",
          "type": "uint256"
        }
      ],
      "name": "tokenURI",
      "outputs": [
        {
          "internalType": "string",
          "name": "",
          "type": "string"
        }
      ],
      "stateMutability": "view",
      "type": "function"
    },
    {
      "inputs": [
        {
          "internalType": "contract IERC20",
          "name": "token",
          "type": "address"
        }
      ],
      "name": "totalReleased",
      "outputs": [
        {
          "internalType": "uint256",
          "name": "",
          "type": "uint256"
        }
      ],
      "stateMutability": "view",
      "type": "function"
    },
    {
      "inputs": [],
      "name": "totalReleased",
      "outputs": [
        {
          "internalType": "uint256",
          "name": "",
          "type": "uint256"
        }
      ],
      "stateMutability": "view",
      "type": "function"
    },
    {
      "inputs": [],
      "name": "totalShares",
      "outputs": [
        {
          "internalType": "uint256",
          "name": "",
          "type": "uint256"
        }
      ],
      "stateMutability": "view",
      "type": "function"
    },
    {
      "inputs": [],
      "name": "totalSupply",
      "outputs": [
        {
          "internalType": "uint256",
          "name": "",
          "type": "uint256"
        }
      ],
      "stateMutability": "view",
      "type": "function"
    },
    {
      "inputs": [
        {
          "internalType": "address",
          "name": "from",
          "type": "address"
        },
        {
          "internalType": "address",
          "name": "to",
          "type": "address"
        },
        {
          "internalType": "uint256",
          "name": "tokenId",
          "type": "uint256"
        }
      ],
      "name": "transferFrom",
      "outputs": [],
      "stateMutability": "nonpayable",
      "type": "function"
    },
    {
      "inputs": [
        {
          "internalType": "address",
          "name": "newOwner",
          "type": "address"
        }
      ],
      "name": "transferOwnership",
      "outputs": [],
      "stateMutability": "nonpayable",
      "type": "function"
    },
    {
      "inputs": [],
      "name": "unpause",
      "outputs": [],
      "stateMutability": "nonpayable",
      "type": "function"
    },
    {
      "inputs": [
        {
          "internalType": "address",
          "name": "_account",
          "type": "address"
        },
        {
          "internalType": "uint256",
          "name": "_quantity",
          "type": "uint256"
        },
        {
          "internalType": "bytes",
          "name": "_signature",
          "type": "bytes"
        }
      ],
      "name": "whitelistMint",
      "outputs": [],
      "stateMutability": "payable",
      "type": "function"
    },
    {
      "stateMutability": "payable",
      "type": "receive"
    }
  ],
  "bytecode": "0x608060405260026014556608e1bc9bf040006015553480156200002157600080fd5b5060405162003d2238038062003d228339810160408190526200004491620007a7565b83836040518060400160405280600e81526020016d26b0b3b4b19026b7b7323934b0b760911b815250604051806040016040528060048152602001634d414d4f60e01b815250620000a46200009e6200032b60201b60201c565b6200032f565b6000805460ff60a01b191690558151620000c69060039060208501906200056d565b508051620000dc9060049060208401906200056d565b506001805550508051825114620001555760405162461bcd60e51b815260206004820152603260248201527f5061796d656e7453706c69747465723a2070617965657320616e6420736861726044820152710cae640d8cadccee8d040dad2e6dac2e8c6d60731b60648201526084015b60405180910390fd5b6000825111620001a85760405162461bcd60e51b815260206004820152601a60248201527f5061796d656e7453706c69747465723a206e6f2070617965657300000000000060448201526064016200014c565b60005b82518110156200021457620001ff838281518110620001ce57620001ce620008b1565b6020026020010151838381518110620001eb57620001eb620008b1565b60200260200101516200037f60201b60201c565b806200020b81620008dd565b915050620001ab565b5050601780546001600160a01b0319166001600160a01b038516179055508051620002479060119060208401906200056d565b505091516013555050604080518082018252600e81526d26b0b3b4b19026b7b7323934b0b760911b6020918201528151808301835260018152603160f81b9082015281517f8b73c3c69bb8fe3d512ecc4cf759cc79239f7b179b0ffacaa9a75d522b39400f818301527f01d367be4a230901fb61827b29fafc75ea2338fac62adda2f5cdcbee5ca90235818401527fc89efdaa54c0f20c7adf612882df0950f5a951637e0307cdcb4c672f298b8bc660608201524660808201523060a0808301919091528351808303909101815260c0909101909252815191012060165562000950565b3390565b600080546001600160a01b038381166001600160a01b0319831681178455604051919092169283917f8be0079c531659141344cd1fd0a4f28419497f9722a3daafe3b4186f6b6457e09190a35050565b6001600160a01b038216620003ec5760405162461bcd60e51b815260206004820152602c60248201527f5061796d656e7453706c69747465723a206163636f756e74206973207468652060448201526b7a65726f206164647265737360a01b60648201526084016200014c565b600081116200043e5760405162461bcd60e51b815260206004820152601d60248201527f5061796d656e7453706c69747465723a2073686172657320617265203000000060448201526064016200014c565b6001600160a01b0382166000908152600b602052604090205415620004ba5760405162461bcd60e51b815260206004820152602b60248201527f5061796d656e7453706c69747465723a206163636f756e7420616c726561647960448201526a206861732073686172657360a81b60648201526084016200014c565b600d8054600181019091557fd7b6990105719101dabeb77144f2a3385c8033acd3af97e9423a695e81ad1eb50180546001600160a01b0319166001600160a01b0384169081179091556000908152600b6020526040902081905560095462000524908290620008f9565b600955604080516001600160a01b0384168152602081018390527f40c340f65e17194d14ddddb073d3c9f888e3cb52b5aae0c6c7706b4fbc905fac910160405180910390a15050565b8280546200057b9062000914565b90600052602060002090601f0160209004810192826200059f5760008555620005ea565b82601f10620005ba57805160ff1916838001178555620005ea565b82800160010185558215620005ea579182015b82811115620005ea578251825591602001919060010190620005cd565b50620005f8929150620005fc565b5090565b5b80821115620005f85760008155600101620005fd565b634e487b7160e01b600052604160045260246000fd5b604051601f8201601f191681016001600160401b038111828210171562000654576200065462000613565b604052919050565b60006001600160401b0382111562000678576200067862000613565b5060051b60200190565b80516001600160a01b03811681146200069a57600080fd5b919050565b600082601f830112620006b157600080fd5b81516020620006ca620006c4836200065c565b62000629565b82815260059290921b84018101918181019086841115620006ea57600080fd5b8286015b84811015620007075780518352918301918301620006ee565b509695505050505050565b600082601f8301126200072457600080fd5b81516001600160401b0381111562000740576200074062000613565b602062000756601f8301601f1916820162000629565b82815285828487010111156200076b57600080fd5b60005b838110156200078b5785810183015182820184015282016200076e565b838111156200079d5760008385840101525b5095945050505050565b60008060008060808587031215620007be57600080fd5b84516001600160401b0380821115620007d657600080fd5b818701915087601f830112620007eb57600080fd5b81516020620007fe620006c4836200065c565b82815260059290921b8401810191818101908b8411156200081e57600080fd5b948201945b838610156200084757620008378662000682565b8252948201949082019062000823565b918a01519198509093505050808211156200086157600080fd5b6200086f888389016200069f565b94506200087f6040880162000682565b935060608701519150808211156200089657600080fd5b50620008a58782880162000712565b91505092959194509250565b634e487b7160e01b600052603260045260246000fd5b634e487b7160e01b600052601160045260246000fd5b600060018201620008f257620008f2620008c7565b5060010190565b600082198211156200090f576200090f620008c7565b500190565b600181811c908216806200092957607f821691505b6020821081036200094a57634e487b7160e01b600052602260045260246000fd5b50919050565b6133c280620009606000396000f3fe6080604052600436106102815760003560e01c806370a082311161014f578063a22cb465116100c1578063d79779b21161007a578063d79779b2146107de578063dae55cb314610814578063e33b7de31461083b578063e8a3d48514610850578063e985e9c514610865578063f2fde38b146108ae57600080fd5b8063a22cb46514610715578063ac5ae11b14610735578063b071401b14610748578063b88d4fde14610768578063c87b56dd14610788578063ce7c2ac2146107a857600080fd5b80638cc54e7f116101135780638cc54e7f1461064a5780638da5cb5b1461065f57806395d89b411461067d5780639852595c1461069257806399d13800146106c8578063a0bcfc7f146106f557600080fd5b806370a08231146105ca578063715018a6146105ea5780637501f741146105ff5780638456cb59146106155780638b83209b1461062a57600080fd5b80632cc82655116101f357806348b75044116101ac57806348b750441461052e5780635be7fde81461054e5780635c975abb146105635780635ed222e3146105825780636352211e146105955780636c0360eb146105b557600080fd5b80632cc826551461045e5780633a98ef391461047e5780633f4ba83a14610493578063406072a9146104a857806342842e0e146104ee57806344a0d68a1461050e57600080fd5b8063095ea7b311610245578063095ea7b31461039c5780631067fcc7146103bc57806313faede6146103dc57806318160ddd14610400578063191655871461041e57806323b872dd1461043e57600080fd5b806301ffc9a7146102cb578063045f785014610300578063046dc1661461032257806306fdde0314610342578063081812fc1461036457600080fd5b366102c65760405162461bcd60e51b815260206004820152601060248201526f13db9b1e481a59881e5bdd481b5a5b9d60821b60448201526064015b60405180910390fd5b600080fd5b3480156102d757600080fd5b506102eb6102e6366004612c25565b6108ce565b60405190151581526020015b60405180910390f35b34801561030c57600080fd5b5061032061031b366004612c57565b610920565b005b34801561032e57600080fd5b5061032061033d366004612c83565b6109c2565b34801561034e57600080fd5b50610357610a0e565b6040516102f79190612cf8565b34801561037057600080fd5b5061038461037f366004612d0b565b610aa0565b6040516001600160a01b0390911681526020016102f7565b3480156103a857600080fd5b506103206103b7366004612c57565b610ae4565b3480156103c857600080fd5b506103206103d7366004612db0565b610b71565b3480156103e857600080fd5b506103f260155481565b6040519081526020016102f7565b34801561040c57600080fd5b506103f2600254600154036000190190565b34801561042a57600080fd5b50610320610439366004612c83565b610bae565b34801561044a57600080fd5b50610320610459366004612df9565b610cdf565b34801561046a57600080fd5b50610320610479366004612d0b565b610cea565b34801561048a57600080fd5b506009546103f2565b34801561049f57600080fd5b50610320610d4a565b3480156104b457600080fd5b506103f26104c3366004612e3a565b6001600160a01b039182166000908152600f6020908152604080832093909416825291909152205490565b3480156104fa57600080fd5b50610320610509366004612df9565b610d7e565b34801561051a57600080fd5b50610320610529366004612d0b565b610d99565b34801561053a57600080fd5b50610320610549366004612e3a565b610dc8565b34801561055a57600080fd5b50610320610fa4565b34801561056f57600080fd5b50600054600160a01b900460ff166102eb565b610320610590366004612e73565b610fd2565b3480156105a157600080fd5b506103846105b0366004612d0b565b611278565b3480156105c157600080fd5b5061035761128a565b3480156105d657600080fd5b506103f26105e5366004612c83565b611318565b3480156105f657600080fd5b50610320611367565b34801561060b57600080fd5b506103f260145481565b34801561062157600080fd5b5061032061139b565b34801561063657600080fd5b50610384610645366004612d0b565b6113cd565b34801561065657600080fd5b506103576113fd565b34801561066b57600080fd5b506000546001600160a01b0316610384565b34801561068957600080fd5b5061035761140a565b34801561069e57600080fd5b506103f26106ad366004612c83565b6001600160a01b03166000908152600c602052604090205490565b3480156106d457600080fd5b506103f26106e3366004612c83565b60186020526000908152604090205481565b34801561070157600080fd5b50610320610710366004612db0565b611419565b34801561072157600080fd5b50610320610730366004612f0a565b611456565b610320610743366004612c57565b6114eb565b34801561075457600080fd5b50610320610763366004612d0b565b6116fd565b34801561077457600080fd5b50610320610783366004612f38565b61172c565b34801561079457600080fd5b506103576107a3366004612d0b565b61177d565b3480156107b457600080fd5b506103f26107c3366004612c83565b6001600160a01b03166000908152600b602052604090205490565b3480156107ea57600080fd5b506103f26107f9366004612c83565b6001600160a01b03166000908152600e602052604090205490565b34801561082057600080fd5b5060125461082e9060ff1681565b6040516102f79190612fce565b34801561084757600080fd5b50600a546103f2565b34801561085c57600080fd5b506103576118e1565b34801561087157600080fd5b506102eb610880366004612e3a565b6001600160a01b03918216600090815260086020908152604080832093909416825291909152205460ff1690565b3480156108ba57600080fd5b506103206108c9366004612c83565b611901565b60006001600160e01b031982166380ac58cd60e01b14806108ff57506001600160e01b03198216635b5e139f60e01b145b8061091a57506301ffc9a760e01b6001600160e01b03198316145b92915050565b6000546001600160a01b0316331461094a5760405162461bcd60e51b81526004016102bd90612ff6565b61095660196001613041565b81610968600254600154036000190190565b6109729190613041565b106109b45760405162461bcd60e51b815260206004820152601260248201527152656163686564206d617820537570706c7960701b60448201526064016102bd565b6109be8282611999565b5050565b6000546001600160a01b031633146109ec5760405162461bcd60e51b81526004016102bd90612ff6565b601780546001600160a01b0319166001600160a01b0392909216919091179055565b606060038054610a1d90613059565b80601f0160208091040260200160405190810160405280929190818152602001828054610a4990613059565b8015610a965780601f10610a6b57610100808354040283529160200191610a96565b820191906000526020600020905b815481529060010190602001808311610a7957829003601f168201915b5050505050905090565b6000610aab826119b3565b610ac8576040516333d1c03960e21b815260040160405180910390fd5b506000908152600760205260409020546001600160a01b031690565b6000610aef82611278565b9050806001600160a01b0316836001600160a01b031603610b235760405163250fdee360e21b815260040160405180910390fd5b336001600160a01b03821614801590610b435750610b418133610880565b155b15610b61576040516367d9dca160e11b815260040160405180910390fd5b610b6c8383836119ec565b505050565b6000546001600160a01b03163314610b9b5760405162461bcd60e51b81526004016102bd90612ff6565b80516109be906011906020840190612b76565b6001600160a01b0381166000908152600b6020526040902054610be35760405162461bcd60e51b81526004016102bd90613093565b6000610bee600a5490565b610bf89047613041565b90506000610c258383610c20866001600160a01b03166000908152600c602052604090205490565b611a48565b905080600003610c475760405162461bcd60e51b81526004016102bd906130d9565b6001600160a01b0383166000908152600c602052604081208054839290610c6f908490613041565b9250508190555080600a6000828254610c889190613041565b90915550610c9890508382611a90565b604080516001600160a01b0385168152602081018390527fdf20fd1e76bc69d672e4814fafb2c449bba3a5369d8359adf9e05e6fde87b056910160405180910390a1505050565b610b6c838383611ba9565b6000546001600160a01b03163314610d145760405162461bcd60e51b81526004016102bd90612ff6565b806003811115610d2657610d26612fb8565b6012805460ff19166001836003811115610d4257610d42612fb8565b021790555050565b6000546001600160a01b03163314610d745760405162461bcd60e51b81526004016102bd90612ff6565b610d7c611da6565b565b610b6c8383836040518060200160405280600081525061172c565b6000546001600160a01b03163314610dc35760405162461bcd60e51b81526004016102bd90612ff6565b601555565b6001600160a01b0381166000908152600b6020526040902054610dfd5760405162461bcd60e51b81526004016102bd90613093565b6001600160a01b0382166000908152600e60205260408120546040516370a0823160e01b81523060048201526001600160a01b038516906370a0823190602401602060405180830381865afa158015610e5a573d6000803e3d6000fd5b505050506040513d601f19601f82011682018060405250810190610e7e9190613124565b610e889190613041565b90506000610ec18383610c2087876001600160a01b039182166000908152600f6020908152604080832093909416825291909152205490565b905080600003610ee35760405162461bcd60e51b81526004016102bd906130d9565b6001600160a01b038085166000908152600f6020908152604080832093871683529290529081208054839290610f1a908490613041565b90915550506001600160a01b0384166000908152600e602052604081208054839290610f47908490613041565b90915550610f589050848483611e43565b604080516001600160a01b038581168252602082018490528616917f3be5b7a71e84ed12875d241991c70855ac5817d847039e17a9d895c1ceb0f18a910160405180910390a250505050565b60005b601354811015610fcf57610fbd610439826113cd565b80610fc78161313d565b915050610fa7565b50565b3233146110215760405162461bcd60e51b815260206004820152601e60248201527f5468652063616c6c657220697320616e6f7468657220636f6e7472616374000060448201526064016102bd565b60155460008190036110625760405162461bcd60e51b815260206004820152600a6024820152690507269636520697320360b41b60448201526064016102bd565b600160125460ff16600381111561107b5761107b612fb8565b146110c85760405162461bcd60e51b815260206004820152601960248201527f57686974656c6973742053616c65206e6f74206163746976650000000000000060448201526064016102bd565b6014546110d6906001613041565b336000908152601860205260409020546110f1908690613041565b106111395760405162461bcd60e51b815260206004820152601860248201527713585e081b5a5b9d08185b5bdd5b9d08195e18d95959195960421b60448201526064016102bd565b6111438383611e95565b6111815760405162461bcd60e51b815260206004820152600f60248201526e139bdd081dda1a5d195b1a5cdd1959608a1b60448201526064016102bd565b61118d60056019613156565b611198906001613041565b846111aa600254600154036000190190565b6111b49190613041565b106111f75760405162461bcd60e51b815260206004820152601360248201527213585e081cdd5c1c1b1e48195e18d959591959606a1b60448201526064016102bd565b6112018185611f85565b3410156112435760405162461bcd60e51b815260206004820152601060248201526f4e6f7420656e6f7567682066756e647360801b60448201526064016102bd565b61124d8585611999565b336000908152601860205260408120805486929061126c908490613041565b90915550505050505050565b600061128382611f91565b5192915050565b6010805461129790613059565b80601f01602080910402602001604051908101604052809291908181526020018280546112c390613059565b80156113105780601f106112e557610100808354040283529160200191611310565b820191906000526020600020905b8154815290600101906020018083116112f357829003601f168201915b505050505081565b60006001600160a01b038216611341576040516323d3ad8160e21b815260040160405180910390fd5b506001600160a01b031660009081526006602052604090205467ffffffffffffffff1690565b6000546001600160a01b031633146113915760405162461bcd60e51b81526004016102bd90612ff6565b610d7c60006120ba565b6000546001600160a01b031633146113c55760405162461bcd60e51b81526004016102bd90612ff6565b610d7c61210a565b6000600d82815481106113e2576113e261316d565b6000918252602090912001546001600160a01b031692915050565b6011805461129790613059565b606060048054610a1d90613059565b6000546001600160a01b031633146114435760405162461bcd60e51b81526004016102bd90612ff6565b80516109be906010906020840190612b76565b336001600160a01b0383160361147f5760405163b06307db60e01b815260040160405180910390fd5b3360008181526008602090815260408083206001600160a01b03871680855290835292819020805460ff191686151590811790915590519081529192917f17307eab39ab6107e8899845ad3d59bd9653f200f220920489ca2b5937696c31910160405180910390a35050565b32331461153a5760405162461bcd60e51b815260206004820152601e60248201527f5468652063616c6c657220697320616e6f7468657220636f6e7472616374000060448201526064016102bd565b601554600081900361157b5760405162461bcd60e51b815260206004820152600a6024820152690507269636520697320360b41b60448201526064016102bd565b600160125460ff16600381111561159457611594612fb8565b116115da5760405162461bcd60e51b81526020600482015260166024820152755075626c69632053616c65206e6f742061637469766560501b60448201526064016102bd565b6014546115e8906001613041565b82106116315760405162461bcd60e51b815260206004820152601860248201527713585e081b5a5b9d08185b5bdd5b9d08195e18d95959195960421b60448201526064016102bd565b61163d60056019613156565b611648906001613041565b8261165a600254600154036000190190565b6116649190613041565b106116a75760405162461bcd60e51b815260206004820152601360248201527213585e081cdd5c1c1b1e48195e18d959591959606a1b60448201526064016102bd565b6116b18183611f85565b3410156116f35760405162461bcd60e51b815260206004820152601060248201526f4e6f7420656e6f7567682066756e647360801b60448201526064016102bd565b610b6c8383611999565b6000546001600160a01b031633146117275760405162461bcd60e51b81526004016102bd90612ff6565b601455565b611737848484611ba9565b6001600160a01b0383163b15158015611759575061175784848484612192565b155b15611777576040516368d2bf6b60e11b815260040160405180910390fd5b50505050565b6060611788826119b3565b6117d45760405162461bcd60e51b815260206004820152601f60248201527f55524920717565727920666f72206e6f6e6578697374656e7420746f6b656e0060448201526064016102bd565b600360125460ff1660038111156117ed576117ed612fb8565b1015611885576011805461180090613059565b80601f016020809104026020016040519081016040528092919081815260200182805461182c90613059565b80156118795780601f1061184e57610100808354040283529160200191611879565b820191906000526020600020905b81548152906001019060200180831161185c57829003601f168201915b50505050509050919050565b60006010805461189490613059565b9050116118b0576040518060200160405280600081525061091a565b60106118bb8361227e565b6040516020016118cc92919061319f565b60405160208183030381529060405292915050565b606060405180608001604052806043815260200161334a60439139905090565b6000546001600160a01b0316331461192b5760405162461bcd60e51b81526004016102bd90612ff6565b6001600160a01b0381166119905760405162461bcd60e51b815260206004820152602660248201527f4f776e61626c653a206e6577206f776e657220697320746865207a65726f206160448201526564647265737360d01b60648201526084016102bd565b610fcf816120ba565b6109be82826040518060200160405280600081525061237f565b6000816001111580156119c7575060015482105b801561091a575050600090815260056020526040902054600160e01b900460ff161590565b60008281526007602052604080822080546001600160a01b0319166001600160a01b0387811691821790925591518593918516917f8c5be1e5ebec7d5bd14f71427d1e84f3dd0314c0f7b2291e5b200ac8c7c3b92591a4505050565b6009546001600160a01b0384166000908152600b602052604081205490918391611a729086613259565b611a7c919061328e565b611a869190613156565b90505b9392505050565b80471015611ae05760405162461bcd60e51b815260206004820152601d60248201527f416464726573733a20696e73756666696369656e742062616c616e636500000060448201526064016102bd565b6000826001600160a01b03168260405160006040518083038185875af1925050503d8060008114611b2d576040519150601f19603f3d011682016040523d82523d6000602084013e611b32565b606091505b5050905080610b6c5760405162461bcd60e51b815260206004820152603a60248201527f416464726573733a20756e61626c6520746f2073656e642076616c75652c207260448201527f6563697069656e74206d6179206861766520726576657274656400000000000060648201526084016102bd565b6000611bb482611f91565b9050836001600160a01b031681600001516001600160a01b031614611beb5760405162a1148160e81b815260040160405180910390fd5b6000336001600160a01b0386161480611c095750611c098533610880565b80611c24575033611c1984610aa0565b6001600160a01b0316145b905080611c4457604051632ce44b5f60e11b815260040160405180910390fd5b6001600160a01b038416611c6b57604051633a954ecd60e21b815260040160405180910390fd5b611c78858585600161238c565b611c84600084876119ec565b6001600160a01b038581166000908152600660209081526040808320805467ffffffffffffffff1980821667ffffffffffffffff92831660001901831617909255898616808652838620805493841693831660019081018416949094179055898652600590945282852080546001600160e01b031916909417600160a01b42909216919091021783558701808452922080549193909116611d5a576001548214611d5a578054602086015167ffffffffffffffff16600160a01b026001600160e01b03199091166001600160a01b038a16171781555b50505082846001600160a01b0316866001600160a01b03167fddf252ad1be2c89b69c2b068fc378daa952ba7f163c4a11628f55a4df523b3ef60405160405180910390a45b5050505050565b600054600160a01b900460ff16611df65760405162461bcd60e51b815260206004820152601460248201527314185d5cd8589b194e881b9bdd081c185d5cd95960621b60448201526064016102bd565b6000805460ff60a01b191690557f5db9ee0a495bf2e6ff9c91a7834c1ba4fdd244a5e8aa4e537bd38aeae4b073aa335b6040516001600160a01b03909116815260200160405180910390a1565b604080516001600160a01b038416602482015260448082018490528251808303909101815260649091019091526020810180516001600160e01b031663a9059cbb60e01b179052610b6c9084906123de565b601654604080517f68e83002b91b0fd96d4df3566b5122221117e3ec6c2468fda594f6491f89b1c960208201523391810191909152600091829160600160405160208183030381529060405280519060200120604051602001611f0f92919061190160f01b81526002810192909252602282015260420190565b6040516020818303038152906040528051906020012090506000611f6b85858080601f01602080910402602001604051908101604052809392919081815260200183838082843760009201919091525086939250506124b09050565b6017546001600160a01b0390811691161495945050505050565b6000611a898284613259565b60408051606081018252600080825260208201819052918101919091528180600111158015611fc1575060015481105b156120a157600081815260056020908152604091829020825160608101845290546001600160a01b0381168252600160a01b810467ffffffffffffffff1692820192909252600160e01b90910460ff1615159181018290529061209f5780516001600160a01b031615612035579392505050565b5060001901600081815260056020908152604091829020825160608101845290546001600160a01b038116808352600160a01b820467ffffffffffffffff1693830193909352600160e01b900460ff161515928101929092521561209a579392505050565b612035565b505b604051636f96cda160e11b815260040160405180910390fd5b600080546001600160a01b038381166001600160a01b0319831681178455604051919092169283917f8be0079c531659141344cd1fd0a4f28419497f9722a3daafe3b4186f6b6457e09190a35050565b600054600160a01b900460ff16156121575760405162461bcd60e51b815260206004820152601060248201526f14185d5cd8589b194e881c185d5cd95960821b60448201526064016102bd565b6000805460ff60a01b1916600160a01b1790557f62e78cea01bee320cd4e420270b5ea74000d11b0c9f74754ebdbfc544b05a258611e263390565b604051630a85bd0160e11b81526000906001600160a01b0385169063150b7a02906121c79033908990889088906004016132a2565b6020604051808303816000875af1925050508015612202575060408051601f3d908101601f191682019092526121ff918101906132df565b60015b612260573d808015612230576040519150601f19603f3d011682016040523d82523d6000602084013e612235565b606091505b508051600003612258576040516368d2bf6b60e11b815260040160405180910390fd5b805181602001fd5b6001600160e01b031916630a85bd0160e11b1490505b949350505050565b6060816000036122a55750506040805180820190915260018152600360fc1b602082015290565b8160005b81156122cf57806122b98161313d565b91506122c89050600a8361328e565b91506122a9565b60008167ffffffffffffffff8111156122ea576122ea612d24565b6040519080825280601f01601f191660200182016040528015612314576020820181803683370190505b5090505b841561227657612329600183613156565b9150612336600a866132fc565b612341906030613041565b60f81b8183815181106123565761235661316d565b60200101906001600160f81b031916908160001a905350612378600a8661328e565b9450612318565b610b6c83838360016124d4565b600054600160a01b900460ff16156123d95760405162461bcd60e51b815260206004820152601060248201526f14185d5cd8589b194e881c185d5cd95960821b60448201526064016102bd565b611777565b6000612433826040518060400160405280602081526020017f5361666545524332303a206c6f772d6c6576656c2063616c6c206661696c6564815250856001600160a01b03166126b39092919063ffffffff16565b805190915015610b6c57808060200190518101906124519190613310565b610b6c5760405162461bcd60e51b815260206004820152602a60248201527f5361666545524332303a204552433230206f7065726174696f6e20646964206e6044820152691bdd081cdd58d8d9595960b21b60648201526084016102bd565b60008060006124bf85856126c2565b915091506124cc81612730565b509392505050565b6001546001600160a01b0385166124fd57604051622e076360e81b815260040160405180910390fd5b8360000361251e5760405163b562e8dd60e01b815260040160405180910390fd5b61252b600086838761238c565b6001600160a01b038516600081815260066020908152604080832080546fffffffffffffffffffffffffffffffff19811667ffffffffffffffff8083168c0181169182176801000000000000000067ffffffffffffffff1990941690921783900481168c01811690920217909155858452600590925290912080546001600160e01b031916909217600160a01b4290921691909102179055808085018380156125dd57506001600160a01b0387163b15155b15612665575b60405182906001600160a01b038916906000907fddf252ad1be2c89b69c2b068fc378daa952ba7f163c4a11628f55a4df523b3ef908290a461262e6000888480600101955088612192565b61264b576040516368d2bf6b60e11b815260040160405180910390fd5b8082036125e357826001541461266057600080fd5b6126aa565b5b6040516001830192906001600160a01b038916906000907fddf252ad1be2c89b69c2b068fc378daa952ba7f163c4a11628f55a4df523b3ef908290a4808203612666575b50600155611d9f565b6060611a8684846000856128e6565b60008082516041036126f85760208301516040840151606085015160001a6126ec87828585612a17565b94509450505050612729565b82516040036127215760208301516040840151612716868383612b04565b935093505050612729565b506000905060025b9250929050565b600081600481111561274457612744612fb8565b0361274c5750565b600181600481111561276057612760612fb8565b036127ad5760405162461bcd60e51b815260206004820152601860248201527f45434453413a20696e76616c6964207369676e6174757265000000000000000060448201526064016102bd565b60028160048111156127c1576127c1612fb8565b0361280e5760405162461bcd60e51b815260206004820152601f60248201527f45434453413a20696e76616c6964207369676e6174757265206c656e6774680060448201526064016102bd565b600381600481111561282257612822612fb8565b0361287a5760405162461bcd60e51b815260206004820152602260248201527f45434453413a20696e76616c6964207369676e6174757265202773272076616c604482015261756560f01b60648201526084016102bd565b600481600481111561288e5761288e612fb8565b03610fcf5760405162461bcd60e51b815260206004820152602260248201527f45434453413a20696e76616c6964207369676e6174757265202776272076616c604482015261756560f01b60648201526084016102bd565b6060824710156129475760405162461bcd60e51b815260206004820152602660248201527f416464726573733a20696e73756666696369656e742062616c616e636520666f6044820152651c8818d85b1b60d21b60648201526084016102bd565b6001600160a01b0385163b61299e5760405162461bcd60e51b815260206004820152601d60248201527f416464726573733a2063616c6c20746f206e6f6e2d636f6e747261637400000060448201526064016102bd565b600080866001600160a01b031685876040516129ba919061332d565b60006040518083038185875af1925050503d80600081146129f7576040519150601f19603f3d011682016040523d82523d6000602084013e6129fc565b606091505b5091509150612a0c828286612b3d565b979650505050505050565b6000807f7fffffffffffffffffffffffffffffff5d576e7357a4501ddfe92f46681b20a0831115612a4e5750600090506003612afb565b8460ff16601b14158015612a6657508460ff16601c14155b15612a775750600090506004612afb565b6040805160008082526020820180845289905260ff881692820192909252606081018690526080810185905260019060a0016020604051602081039080840390855afa158015612acb573d6000803e3d6000fd5b5050604051601f1901519150506001600160a01b038116612af457600060019250925050612afb565b9150600090505b94509492505050565b6000806001600160ff1b03831681612b2160ff86901c601b613041565b9050612b2f87828885612a17565b935093505050935093915050565b60608315612b4c575081611a89565b825115612b5c5782518084602001fd5b8160405162461bcd60e51b81526004016102bd9190612cf8565b828054612b8290613059565b90600052602060002090601f016020900481019282612ba45760008555612bea565b82601f10612bbd57805160ff1916838001178555612bea565b82800160010185558215612bea579182015b82811115612bea578251825591602001919060010190612bcf565b50612bf6929150612bfa565b5090565b5b80821115612bf65760008155600101612bfb565b6001600160e01b031981168114610fcf57600080fd5b600060208284031215612c3757600080fd5b8135611a8981612c0f565b6001600160a01b0381168114610fcf57600080fd5b60008060408385031215612c6a57600080fd5b8235612c7581612c42565b946020939093013593505050565b600060208284031215612c9557600080fd5b8135611a8981612c42565b60005b83811015612cbb578181015183820152602001612ca3565b838111156117775750506000910152565b60008151808452612ce4816020860160208601612ca0565b601f01601f19169290920160200192915050565b602081526000611a896020830184612ccc565b600060208284031215612d1d57600080fd5b5035919050565b634e487b7160e01b600052604160045260246000fd5b600067ffffffffffffffff80841115612d5557612d55612d24565b604051601f8501601f19908116603f01168101908282118183101715612d7d57612d7d612d24565b81604052809350858152868686011115612d9657600080fd5b858560208301376000602087830101525050509392505050565b600060208284031215612dc257600080fd5b813567ffffffffffffffff811115612dd957600080fd5b8201601f81018413612dea57600080fd5b61227684823560208401612d3a565b600080600060608486031215612e0e57600080fd5b8335612e1981612c42565b92506020840135612e2981612c42565b929592945050506040919091013590565b60008060408385031215612e4d57600080fd5b8235612e5881612c42565b91506020830135612e6881612c42565b809150509250929050565b60008060008060608587031215612e8957600080fd5b8435612e9481612c42565b935060208501359250604085013567ffffffffffffffff80821115612eb857600080fd5b818701915087601f830112612ecc57600080fd5b813581811115612edb57600080fd5b886020828501011115612eed57600080fd5b95989497505060200194505050565b8015158114610fcf57600080fd5b60008060408385031215612f1d57600080fd5b8235612f2881612c42565b91506020830135612e6881612efc565b60008060008060808587031215612f4e57600080fd5b8435612f5981612c42565b93506020850135612f6981612c42565b925060408501359150606085013567ffffffffffffffff811115612f8c57600080fd5b8501601f81018713612f9d57600080fd5b612fac87823560208401612d3a565b91505092959194509250565b634e487b7160e01b600052602160045260246000fd5b6020810160048310612ff057634e487b7160e01b600052602160045260246000fd5b91905290565b6020808252818101527f4f776e61626c653a2063616c6c6572206973206e6f7420746865206f776e6572604082015260600190565b634e487b7160e01b600052601160045260246000fd5b600082198211156130545761305461302b565b500190565b600181811c9082168061306d57607f821691505b60208210810361308d57634e487b7160e01b600052602260045260246000fd5b50919050565b60208082526026908201527f5061796d656e7453706c69747465723a206163636f756e7420686173206e6f2060408201526573686172657360d01b606082015260800190565b6020808252602b908201527f5061796d656e7453706c69747465723a206163636f756e74206973206e6f742060408201526a191d59481c185e5b595b9d60aa1b606082015260800190565b60006020828403121561313657600080fd5b5051919050565b60006001820161314f5761314f61302b565b5060010190565b6000828210156131685761316861302b565b500390565b634e487b7160e01b600052603260045260246000fd5b60008151613195818560208601612ca0565b9290920192915050565b600080845481600182811c9150808316806131bb57607f831692505b602080841082036131da57634e487b7160e01b86526022600452602486fd5b8180156131ee57600181146131ff5761322c565b60ff1986168952848901965061322c565b60008b81526020902060005b868110156132245781548b82015290850190830161320b565b505084890196505b50505050505061325061323f8286613183565b64173539b7b760d91b815260050190565b95945050505050565b60008160001904831182151516156132735761327361302b565b500290565b634e487b7160e01b600052601260045260246000fd5b60008261329d5761329d613278565b500490565b6001600160a01b03858116825284166020820152604081018390526080606082018190526000906132d590830184612ccc565b9695505050505050565b6000602082840312156132f157600080fd5b8151611a8981612c0f565b60008261330b5761330b613278565b500690565b60006020828403121561332257600080fd5b8151611a8981612efc565b6000825161333f818460208701612ca0565b919091019291505056fe697066733a2f2f6261666b72656964377a7972776b337962337578633373657a6f657137336a716a6d336f7968636865643234716234706a717635687462377669342fa26469706673582212205960148523712cf5ecf3bd3fd0d1b59de4c7a79f94aec8398017e3b16d9bdc3e64736f6c634300080d0033",
  "linkReferences": {},
  "deployedLinkReferences": {}
}