{
  "_format": "hh-sol-artifact-1",
  "contractName": "MagicMondrian",
  "sourceName": "contracts/MagicMondrian.sol",
  "abi": [
    {
      "inputs": [
        {
          "internalType": "address[]",
          "name": "_payeesAdresses",
          "type": "address[]"
        },
        {
          "internalType": "uint256[]",
          "name": "_payeesShares",
          "type": "uint256[]"
        },
        {
          "internalType": "bytes32",
          "name": "_merkleRoot",
          "type": "bytes32"
        },
        {
          "internalType": "string",
          "name": "_baseURI",
          "type": "string"
        }
      ],
      "stateMutability": "nonpayable",
      "type": "constructor"
    },
    {
      "inputs": [],
      "name": "ApprovalCallerNotOwnerNorApproved",
      "type": "error"
    },
    {
      "inputs": [],
      "name": "ApprovalQueryForNonexistentToken",
      "type": "error"
    },
    {
      "inputs": [],
      "name": "ApprovalToCurrentOwner",
      "type": "error"
    },
    {
      "inputs": [],
      "name": "ApproveToCaller",
      "type": "error"
    },
    {
      "inputs": [],
      "name": "BalanceQueryForZeroAddress",
      "type": "error"
    },
    {
      "inputs": [],
      "name": "MintToZeroAddress",
      "type": "error"
    },
    {
      "inputs": [],
      "name": "MintZeroQuantity",
      "type": "error"
    },
    {
      "inputs": [],
      "name": "OwnerQueryForNonexistentToken",
      "type": "error"
    },
    {
      "inputs": [],
      "name": "TransferCallerNotOwnerNorApproved",
      "type": "error"
    },
    {
      "inputs": [],
      "name": "TransferFromIncorrectOwner",
      "type": "error"
    },
    {
      "inputs": [],
      "name": "TransferToNonERC721ReceiverImplementer",
      "type": "error"
    },
    {
      "inputs": [],
      "name": "TransferToZeroAddress",
      "type": "error"
    },
    {
      "anonymous": false,
      "inputs": [
        {
          "indexed": true,
          "internalType": "address",
          "name": "owner",
          "type": "address"
        },
        {
          "indexed": true,
          "internalType": "address",
          "name": "approved",
          "type": "address"
        },
        {
          "indexed": true,
          "internalType": "uint256",
          "name": "tokenId",
          "type": "uint256"
        }
      ],
      "name": "Approval",
      "type": "event"
    },
    {
      "anonymous": false,
      "inputs": [
        {
          "indexed": true,
          "internalType": "address",
          "name": "owner",
          "type": "address"
        },
        {
          "indexed": true,
          "internalType": "address",
          "name": "operator",
          "type": "address"
        },
        {
          "indexed": false,
          "internalType": "bool",
          "name": "approved",
          "type": "bool"
        }
      ],
      "name": "ApprovalForAll",
      "type": "event"
    },
    {
      "anonymous": false,
      "inputs": [
        {
          "indexed": true,
          "internalType": "contract IERC20",
          "name": "token",
          "type": "address"
        },
        {
          "indexed": false,
          "internalType": "address",
          "name": "to",
          "type": "address"
        },
        {
          "indexed": false,
          "internalType": "uint256",
          "name": "amount",
          "type": "uint256"
        }
      ],
      "name": "ERC20PaymentReleased",
      "type": "event"
    },
    {
      "anonymous": false,
      "inputs": [
        {
          "indexed": true,
          "internalType": "address",
          "name": "previousOwner",
          "type": "address"
        },
        {
          "indexed": true,
          "internalType": "address",
          "name": "newOwner",
          "type": "address"
        }
      ],
      "name": "OwnershipTransferred",
      "type": "event"
    },
    {
      "anonymous": false,
      "inputs": [
        {
          "indexed": false,
          "internalType": "address",
          "name": "account",
          "type": "address"
        }
      ],
      "name": "Paused",
      "type": "event"
    },
    {
      "anonymous": false,
      "inputs": [
        {
          "indexed": false,
          "internalType": "address",
          "name": "account",
          "type": "address"
        },
        {
          "indexed": false,
          "internalType": "uint256",
          "name": "shares",
          "type": "uint256"
        }
      ],
      "name": "PayeeAdded",
      "type": "event"
    },
    {
      "anonymous": false,
      "inputs": [
        {
          "indexed": false,
          "internalType": "address",
          "name": "from",
          "type": "address"
        },
        {
          "indexed": false,
          "internalType": "uint256",
          "name": "amount",
          "type": "uint256"
        }
      ],
      "name": "PaymentReceived",
      "type": "event"
    },
    {
      "anonymous": false,
      "inputs": [
        {
          "indexed": false,
          "internalType": "address",
          "name": "to",
          "type": "address"
        },
        {
          "indexed": false,
          "internalType": "uint256",
          "name": "amount",
          "type": "uint256"
        }
      ],
      "name": "PaymentReleased",
      "type": "event"
    },
    {
      "anonymous": false,
      "inputs": [
        {
          "indexed": true,
          "internalType": "address",
          "name": "from",
          "type": "address"
        },
        {
          "indexed": true,
          "internalType": "address",
          "name": "to",
          "type": "address"
        },
        {
          "indexed": true,
          "internalType": "uint256",
          "name": "tokenId",
          "type": "uint256"
        }
      ],
      "name": "Transfer",
      "type": "event"
    },
    {
      "anonymous": false,
      "inputs": [
        {
          "indexed": false,
          "internalType": "address",
          "name": "account",
          "type": "address"
        }
      ],
      "name": "Unpaused",
      "type": "event"
    },
    {
      "inputs": [
        {
          "internalType": "address",
          "name": "_to",
          "type": "address"
        },
        {
          "internalType": "uint256",
          "name": "_quantity",
          "type": "uint256"
        }
      ],
      "name": "airDrop",
      "outputs": [],
      "stateMutability": "nonpayable",
      "type": "function"
    },
    {
      "inputs": [
        {
          "internalType": "address",
          "name": "",
          "type": "address"
        }
      ],
      "name": "amountNFTsperWalletWhitelistSale",
      "outputs": [
        {
          "internalType": "uint256",
          "name": "",
          "type": "uint256"
        }
      ],
      "stateMutability": "view",
      "type": "function"
    },
    {
      "inputs": [
        {
          "internalType": "address",
          "name": "to",
          "type": "address"
        },
        {
          "internalType": "uint256",
          "name": "tokenId",
          "type": "uint256"
        }
      ],
      "name": "approve",
      "outputs": [],
      "stateMutability": "nonpayable",
      "type": "function"
    },
    {
      "inputs": [
        {
          "internalType": "address",
          "name": "owner",
          "type": "address"
        }
      ],
      "name": "balanceOf",
      "outputs": [
        {
          "internalType": "uint256",
          "name": "",
          "type": "uint256"
        }
      ],
      "stateMutability": "view",
      "type": "function"
    },
    {
      "inputs": [],
      "name": "baseURI",
      "outputs": [
        {
          "internalType": "string",
          "name": "",
          "type": "string"
        }
      ],
      "stateMutability": "view",
      "type": "function"
    },
    {
      "inputs": [],
      "name": "contractURI",
      "outputs": [
        {
          "internalType": "string",
          "name": "",
          "type": "string"
        }
      ],
      "stateMutability": "pure",
      "type": "function"
    },
    {
      "inputs": [
        {
          "internalType": "uint256",
          "name": "tokenId",
          "type": "uint256"
        }
      ],
      "name": "getApproved",
      "outputs": [
        {
          "internalType": "address",
          "name": "",
          "type": "address"
        }
      ],
      "stateMutability": "view",
      "type": "function"
    },
    {
      "inputs": [
        {
          "internalType": "address",
          "name": "owner",
          "type": "address"
        },
        {
          "internalType": "address",
          "name": "operator",
          "type": "address"
        }
      ],
      "name": "isApprovedForAll",
      "outputs": [
        {
          "internalType": "bool",
          "name": "",
          "type": "bool"
        }
      ],
      "stateMutability": "view",
      "type": "function"
    },
    {
      "inputs": [],
      "name": "merkleRoot",
      "outputs": [
        {
          "internalType": "bytes32",
          "name": "",
          "type": "bytes32"
        }
      ],
      "stateMutability": "view",
      "type": "function"
    },
    {
      "inputs": [],
      "name": "name",
      "outputs": [
        {
          "internalType": "string",
          "name": "",
          "type": "string"
        }
      ],
      "stateMutability": "view",
      "type": "function"
    },
    {
      "inputs": [],
      "name": "owner",
      "outputs": [
        {
          "internalType": "address",
          "name": "",
          "type": "address"
        }
      ],
      "stateMutability": "view",
      "type": "function"
    },
    {
      "inputs": [
        {
          "internalType": "uint256",
          "name": "tokenId",
          "type": "uint256"
        }
      ],
      "name": "ownerOf",
      "outputs": [
        {
          "internalType": "address",
          "name": "",
          "type": "address"
        }
      ],
      "stateMutability": "view",
      "type": "function"
    },
    {
      "inputs": [],
      "name": "pause",
      "outputs": [],
      "stateMutability": "nonpayable",
      "type": "function"
    },
    {
      "inputs": [],
      "name": "paused",
      "outputs": [
        {
          "internalType": "bool",
          "name": "",
          "type": "bool"
        }
      ],
      "stateMutability": "view",
      "type": "function"
    },
    {
      "inputs": [
        {
          "internalType": "uint256",
          "name": "index",
          "type": "uint256"
        }
      ],
      "name": "payee",
      "outputs": [
        {
          "internalType": "address",
          "name": "",
          "type": "address"
        }
      ],
      "stateMutability": "view",
      "type": "function"
    },
    {
      "inputs": [
        {
          "internalType": "address",
          "name": "_account",
          "type": "address"
        },
        {
          "internalType": "uint256",
          "name": "_quantity",
          "type": "uint256"
        }
      ],
      "name": "publicSaleMint",
      "outputs": [],
      "stateMutability": "payable",
      "type": "function"
    },
    {
      "inputs": [],
      "name": "publicSalePrice",
      "outputs": [
        {
          "internalType": "uint256",
          "name": "",
          "type": "uint256"
        }
      ],
      "stateMutability": "view",
      "type": "function"
    },
    {
      "inputs": [
        {
          "internalType": "address payable",
          "name": "account",
          "type": "address"
        }
      ],
      "name": "release",
      "outputs": [],
      "stateMutability": "nonpayable",
      "type": "function"
    },
    {
      "inputs": [
        {
          "internalType": "contract IERC20",
          "name": "token",
          "type": "address"
        },
        {
          "internalType": "address",
          "name": "account",
          "type": "address"
        }
      ],
      "name": "release",
      "outputs": [],
      "stateMutability": "nonpayable",
      "type": "function"
    },
    {
      "inputs": [],
      "name": "releaseAll",
      "outputs": [],
      "stateMutability": "nonpayable",
      "type": "function"
    },
    {
      "inputs": [
        {
          "internalType": "contract IERC20",
          "name": "token",
          "type": "address"
        },
        {
          "internalType": "address",
          "name": "account",
          "type": "address"
        }
      ],
      "name": "released",
      "outputs": [
        {
          "internalType": "uint256",
          "name": "",
          "type": "uint256"
        }
      ],
      "stateMutability": "view",
      "type": "function"
    },
    {
      "inputs": [
        {
          "internalType": "address",
          "name": "account",
          "type": "address"
        }
      ],
      "name": "released",
      "outputs": [
        {
          "internalType": "uint256",
          "name": "",
          "type": "uint256"
        }
      ],
      "stateMutability": "view",
      "type": "function"
    },
    {
      "inputs": [],
      "name": "renounceOwnership",
      "outputs": [],
      "stateMutability": "nonpayable",
      "type": "function"
    },
    {
      "inputs": [
        {
          "internalType": "address",
          "name": "from",
          "type": "address"
        },
        {
          "internalType": "address",
          "name": "to",
          "type": "address"
        },
        {
          "internalType": "uint256",
          "name": "tokenId",
          "type": "uint256"
        }
      ],
      "name": "safeTransferFrom",
      "outputs": [],
      "stateMutability": "nonpayable",
      "type": "function"
    },
    {
      "inputs": [
        {
          "internalType": "address",
          "name": "from",
          "type": "address"
        },
        {
          "internalType": "address",
          "name": "to",
          "type": "address"
        },
        {
          "internalType": "uint256",
          "name": "tokenId",
          "type": "uint256"
        },
        {
          "internalType": "bytes",
          "name": "_data",
          "type": "bytes"
        }
      ],
      "name": "safeTransferFrom",
      "outputs": [],
      "stateMutability": "nonpayable",
      "type": "function"
    },
    {
      "inputs": [],
      "name": "saleStartTime",
      "outputs": [
        {
          "internalType": "uint256",
          "name": "",
          "type": "uint256"
        }
      ],
      "stateMutability": "view",
      "type": "function"
    },
    {
      "inputs": [
        {
          "internalType": "address",
          "name": "operator",
          "type": "address"
        },
        {
          "internalType": "bool",
          "name": "approved",
          "type": "bool"
        }
      ],
      "name": "setApprovalForAll",
      "outputs": [],
      "stateMutability": "nonpayable",
      "type": "function"
    },
    {
      "inputs": [
        {
          "internalType": "string",
          "name": "_baseURI",
          "type": "string"
        }
      ],
      "name": "setBaseUri",
      "outputs": [],
      "stateMutability": "nonpayable",
      "type": "function"
    },
    {
      "inputs": [
        {
          "internalType": "bytes32",
          "name": "_merkleRoot",
          "type": "bytes32"
        }
      ],
      "name": "setMerkleRoot",
      "outputs": [],
      "stateMutability": "nonpayable",
      "type": "function"
    },
    {
      "inputs": [
        {
          "internalType": "uint256",
          "name": "_price",
          "type": "uint256"
        }
      ],
      "name": "setPublicSalePrice",
      "outputs": [],
      "stateMutability": "nonpayable",
      "type": "function"
    },
    {
      "inputs": [
        {
          "internalType": "uint256",
          "name": "_saleStartTime",
          "type": "uint256"
        }
      ],
      "name": "setSaleStartTime",
      "outputs": [],
      "stateMutability": "nonpayable",
      "type": "function"
    },
    {
      "inputs": [
        {
          "internalType": "uint256",
          "name": "_price",
          "type": "uint256"
        }
      ],
      "name": "setWhitelistSalePrice",
      "outputs": [],
      "stateMutability": "nonpayable",
      "type": "function"
    },
    {
      "inputs": [
        {
          "internalType": "address",
          "name": "account",
          "type": "address"
        }
      ],
      "name": "shares",
      "outputs": [
        {
          "internalType": "uint256",
          "name": "",
          "type": "uint256"
        }
      ],
      "stateMutability": "view",
      "type": "function"
    },
    {
      "inputs": [
        {
          "internalType": "bytes4",
          "name": "interfaceId",
          "type": "bytes4"
        }
      ],
      "name": "supportsInterface",
      "outputs": [
        {
          "internalType": "bool",
          "name": "",
          "type": "bool"
        }
      ],
      "stateMutability": "view",
      "type": "function"
    },
    {
      "inputs": [],
      "name": "symbol",
      "outputs": [
        {
          "internalType": "string",
          "name": "",
          "type": "string"
        }
      ],
      "stateMutability": "view",
      "type": "function"
    },
    {
      "inputs": [
        {
          "internalType": "uint256",
          "name": "_tokenId",
          "type": "uint256"
        }
      ],
      "name": "tokenURI",
      "outputs": [
        {
          "internalType": "string",
          "name": "",
          "type": "string"
        }
      ],
      "stateMutability": "view",
      "type": "function"
    },
    {
      "inputs": [
        {
          "internalType": "contract IERC20",
          "name": "token",
          "type": "address"
        }
      ],
      "name": "totalReleased",
      "outputs": [
        {
          "internalType": "uint256",
          "name": "",
          "type": "uint256"
        }
      ],
      "stateMutability": "view",
      "type": "function"
    },
    {
      "inputs": [],
      "name": "totalReleased",
      "outputs": [
        {
          "internalType": "uint256",
          "name": "",
          "type": "uint256"
        }
      ],
      "stateMutability": "view",
      "type": "function"
    },
    {
      "inputs": [],
      "name": "totalShares",
      "outputs": [
        {
          "internalType": "uint256",
          "name": "",
          "type": "uint256"
        }
      ],
      "stateMutability": "view",
      "type": "function"
    },
    {
      "inputs": [],
      "name": "totalSupply",
      "outputs": [
        {
          "internalType": "uint256",
          "name": "",
          "type": "uint256"
        }
      ],
      "stateMutability": "view",
      "type": "function"
    },
    {
      "inputs": [
        {
          "internalType": "address",
          "name": "from",
          "type": "address"
        },
        {
          "internalType": "address",
          "name": "to",
          "type": "address"
        },
        {
          "internalType": "uint256",
          "name": "tokenId",
          "type": "uint256"
        }
      ],
      "name": "transferFrom",
      "outputs": [],
      "stateMutability": "nonpayable",
      "type": "function"
    },
    {
      "inputs": [
        {
          "internalType": "address",
          "name": "newOwner",
          "type": "address"
        }
      ],
      "name": "transferOwnership",
      "outputs": [],
      "stateMutability": "nonpayable",
      "type": "function"
    },
    {
      "inputs": [],
      "name": "unpause",
      "outputs": [],
      "stateMutability": "nonpayable",
      "type": "function"
    },
    {
      "inputs": [
        {
          "internalType": "address",
          "name": "_account",
          "type": "address"
        },
        {
          "internalType": "uint256",
          "name": "_quantity",
          "type": "uint256"
        },
        {
          "internalType": "bytes32[]",
          "name": "_proof",
          "type": "bytes32[]"
        }
      ],
      "name": "whitelistMint",
      "outputs": [],
      "stateMutability": "payable",
      "type": "function"
    },
    {
      "inputs": [],
      "name": "wlSalePrice",
      "outputs": [
        {
          "internalType": "uint256",
          "name": "",
          "type": "uint256"
        }
      ],
      "stateMutability": "view",
      "type": "function"
    },
    {
      "stateMutability": "payable",
      "type": "receive"
    }
  ],
  "bytecode": "0x60806040526608e1bc9bf040006012556611c37937e08000601355636237f4176014553480156200002f57600080fd5b50604051620037a6380380620037a68339810160408190526200005291620006ae565b83836040518060400160405280600e81526020016d26b0b3b4b19026b7b7323934b0b760911b815250604051806040016040528060048152602001634d414d4f60e01b815250620000b2620000ac6200024f60201b60201c565b62000253565b6000805460ff60a01b191690558151620000d490600390602085019062000491565b508051620000ea90600490602084019062000491565b506001805550508051825114620001635760405162461bcd60e51b815260206004820152603260248201527f5061796d656e7453706c69747465723a2070617965657320616e6420736861726044820152710cae640d8cadccee8d040dad2e6dac2e8c6d60731b60648201526084015b60405180910390fd5b6000825111620001b65760405162461bcd60e51b815260206004820152601a60248201527f5061796d656e7453706c69747465723a206e6f2070617965657300000000000060448201526064016200015a565b60005b825181101562000222576200020d838281518110620001dc57620001dc620007bd565b6020026020010151838381518110620001f957620001f9620007bd565b6020026020010151620002a360201b60201c565b806200021981620007e9565b915050620001b9565b505050601582905580516200023f90601090602084019062000491565b50509151601155506200085c9050565b3390565b600080546001600160a01b038381166001600160a01b0319831681178455604051919092169283917f8be0079c531659141344cd1fd0a4f28419497f9722a3daafe3b4186f6b6457e09190a35050565b6001600160a01b038216620003105760405162461bcd60e51b815260206004820152602c60248201527f5061796d656e7453706c69747465723a206163636f756e74206973207468652060448201526b7a65726f206164647265737360a01b60648201526084016200015a565b60008111620003625760405162461bcd60e51b815260206004820152601d60248201527f5061796d656e7453706c69747465723a2073686172657320617265203000000060448201526064016200015a565b6001600160a01b0382166000908152600b602052604090205415620003de5760405162461bcd60e51b815260206004820152602b60248201527f5061796d656e7453706c69747465723a206163636f756e7420616c726561647960448201526a206861732073686172657360a81b60648201526084016200015a565b600d8054600181019091557fd7b6990105719101dabeb77144f2a3385c8033acd3af97e9423a695e81ad1eb50180546001600160a01b0319166001600160a01b0384169081179091556000908152600b602052604090208190556009546200044890829062000805565b600955604080516001600160a01b0384168152602081018390527f40c340f65e17194d14ddddb073d3c9f888e3cb52b5aae0c6c7706b4fbc905fac910160405180910390a15050565b8280546200049f9062000820565b90600052602060002090601f016020900481019282620004c357600085556200050e565b82601f10620004de57805160ff19168380011785556200050e565b828001600101855582156200050e579182015b828111156200050e578251825591602001919060010190620004f1565b506200051c92915062000520565b5090565b5b808211156200051c576000815560010162000521565b634e487b7160e01b600052604160045260246000fd5b604051601f8201601f191681016001600160401b038111828210171562000578576200057862000537565b604052919050565b60006001600160401b038211156200059c576200059c62000537565b5060051b60200190565b600082601f830112620005b857600080fd5b81516020620005d1620005cb8362000580565b6200054d565b82815260059290921b84018101918181019086841115620005f157600080fd5b8286015b848110156200060e5780518352918301918301620005f5565b509695505050505050565b600082601f8301126200062b57600080fd5b81516001600160401b0381111562000647576200064762000537565b60206200065d601f8301601f191682016200054d565b82815285828487010111156200067257600080fd5b60005b838110156200069257858101830151828201840152820162000675565b83811115620006a45760008385840101525b5095945050505050565b60008060008060808587031215620006c557600080fd5b84516001600160401b0380821115620006dd57600080fd5b818701915087601f830112620006f257600080fd5b8151602062000705620005cb8362000580565b82815260059290921b8401810191818101908b8411156200072557600080fd5b948201945b838610156200075c5785516001600160a01b03811681146200074c5760008081fd5b825294820194908201906200072a565b918a01519198509093505050808211156200077657600080fd5b6200078488838901620005a6565b9450604087015193506060870151915080821115620007a257600080fd5b50620007b18782880162000619565b91505092959194509250565b634e487b7160e01b600052603260045260246000fd5b634e487b7160e01b600052601160045260246000fd5b600060018201620007fe57620007fe620007d3565b5060010190565b600082198211156200081b576200081b620007d3565b500190565b600181811c908216806200083557607f821691505b6020821081036200085657634e487b7160e01b600052602260045260246000fd5b50919050565b612f3a806200086c6000396000f3fe6080604052600436106102765760003560e01c806370a082311161014f5780639b6860c8116100c1578063ce7c2ac21161007a578063ce7c2ac214610794578063d79779b2146107ca578063e33b7de314610800578063e8a3d48514610815578063e985e9c51461082a578063f2fde38b1461087357600080fd5b80639b6860c8146106eb578063a0bcfc7f14610701578063a22cb46514610721578063ac5ae11b14610741578063b88d4fde14610754578063c87b56dd1461077457600080fd5b80638456cb59116101135780638456cb59146106205780638b83209b146106355780638da5cb5b1461065557806395d89b41146106735780639852595c1461068857806399d13800146106be57600080fd5b806370a0823114610595578063715018a6146105b5578063734c66bd146105ca578063791a2519146105e05780637cb647591461060057600080fd5b80633a98ef39116101e85780634b11faaf116101ac5780634b11faaf146104f9578063525f8a5c1461050c5780635be7fde81461052c5780635c975abb146105415780636352211e146105605780636c0360eb1461058057600080fd5b80633a98ef39146104495780633f4ba83a1461045e578063406072a91461047357806342842e0e146104b957806348b75044146104d957600080fd5b806318160ddd1161023a57806318160ddd1461039157806319165587146103bd5780631cbaee2d146103dd57806323b872dd146103f35780632eb4a7ab146104135780633515fbdb1461042957600080fd5b806301ffc9a7146102c0578063045f7850146102f557806306fdde0314610317578063081812fc14610339578063095ea7b31461037157600080fd5b366102bb5760405162461bcd60e51b815260206004820152601060248201526f13db9b1e481a59881e5bdd481b5a5b9d60821b60448201526064015b60405180910390fd5b600080fd5b3480156102cc57600080fd5b506102e06102db3660046127d8565b610893565b60405190151581526020015b60405180910390f35b34801561030157600080fd5b5061031561031036600461280a565b6108e5565b005b34801561032357600080fd5b5061032c610987565b6040516102ec919061288e565b34801561034557600080fd5b506103596103543660046128a1565b610a19565b6040516001600160a01b0390911681526020016102ec565b34801561037d57600080fd5b5061031561038c36600461280a565b610a5d565b34801561039d57600080fd5b506103af600254600154036000190190565b6040519081526020016102ec565b3480156103c957600080fd5b506103156103d83660046128ba565b610aea565b3480156103e957600080fd5b506103af60145481565b3480156103ff57600080fd5b5061031561040e3660046128d7565b610c1b565b34801561041f57600080fd5b506103af60155481565b34801561043557600080fd5b506103156104443660046128a1565b610c26565b34801561045557600080fd5b506009546103af565b34801561046a57600080fd5b50610315610c55565b34801561047f57600080fd5b506103af61048e366004612918565b6001600160a01b039182166000908152600f6020908152604080832093909416825291909152205490565b3480156104c557600080fd5b506103156104d43660046128d7565b610c89565b3480156104e557600080fd5b506103156104f4366004612918565b610ca4565b610315610507366004612951565b610e80565b34801561051857600080fd5b506103156105273660046128a1565b6111a3565b34801561053857600080fd5b506103156111d2565b34801561054d57600080fd5b50600054600160a01b900460ff166102e0565b34801561056c57600080fd5b5061035961057b3660046128a1565b611200565b34801561058c57600080fd5b5061032c611212565b3480156105a157600080fd5b506103af6105b03660046128ba565b6112a0565b3480156105c157600080fd5b506103156112ef565b3480156105d657600080fd5b506103af60125481565b3480156105ec57600080fd5b506103156105fb3660046128a1565b611323565b34801561060c57600080fd5b5061031561061b3660046128a1565b611352565b34801561062c57600080fd5b50610315611381565b34801561064157600080fd5b506103596106503660046128a1565b6113b3565b34801561066157600080fd5b506000546001600160a01b0316610359565b34801561067f57600080fd5b5061032c6113e3565b34801561069457600080fd5b506103af6106a33660046128ba565b6001600160a01b03166000908152600c602052604090205490565b3480156106ca57600080fd5b506103af6106d93660046128ba565b60166020526000908152604090205481565b3480156106f757600080fd5b506103af60135481565b34801561070d57600080fd5b5061031561071c366004612a69565b6113f2565b34801561072d57600080fd5b5061031561073c366004612ac0565b61142f565b61031561074f36600461280a565b6114c4565b34801561076057600080fd5b5061031561076f366004612aee565b6116fe565b34801561078057600080fd5b5061032c61078f3660046128a1565b61174f565b3480156107a057600080fd5b506103af6107af3660046128ba565b6001600160a01b03166000908152600b602052604090205490565b3480156107d657600080fd5b506103af6107e53660046128ba565b6001600160a01b03166000908152600e602052604090205490565b34801561080c57600080fd5b50600a546103af565b34801561082157600080fd5b5061032c6117d8565b34801561083657600080fd5b506102e0610845366004612918565b6001600160a01b03918216600090815260086020908152604080832093909416825291909152205460ff1690565b34801561087f57600080fd5b5061031561088e3660046128ba565b6117f8565b60006001600160e01b031982166380ac58cd60e01b14806108c457506001600160e01b03198216635b5e139f60e01b145b806108df57506301ffc9a760e01b6001600160e01b03198316145b92915050565b6000546001600160a01b0316331461090f5760405162461bcd60e51b81526004016102b290612b6e565b61091b60196001612bb9565b8161092d600254600154036000190190565b6109379190612bb9565b106109795760405162461bcd60e51b815260206004820152601260248201527152656163686564206d617820537570706c7960701b60448201526064016102b2565b6109838282611890565b5050565b60606003805461099690612bd1565b80601f01602080910402602001604051908101604052809291908181526020018280546109c290612bd1565b8015610a0f5780601f106109e457610100808354040283529160200191610a0f565b820191906000526020600020905b8154815290600101906020018083116109f257829003601f168201915b5050505050905090565b6000610a24826118aa565b610a41576040516333d1c03960e21b815260040160405180910390fd5b506000908152600760205260409020546001600160a01b031690565b6000610a6882611200565b9050806001600160a01b0316836001600160a01b031603610a9c5760405163250fdee360e21b815260040160405180910390fd5b336001600160a01b03821614801590610abc5750610aba8133610845565b155b15610ada576040516367d9dca160e11b815260040160405180910390fd5b610ae58383836118e3565b505050565b6001600160a01b0381166000908152600b6020526040902054610b1f5760405162461bcd60e51b81526004016102b290612c0b565b6000610b2a600a5490565b610b349047612bb9565b90506000610b618383610b5c866001600160a01b03166000908152600c602052604090205490565b61193f565b905080600003610b835760405162461bcd60e51b81526004016102b290612c51565b6001600160a01b0383166000908152600c602052604081208054839290610bab908490612bb9565b9250508190555080600a6000828254610bc49190612bb9565b90915550610bd490508382611987565b604080516001600160a01b0385168152602081018390527fdf20fd1e76bc69d672e4814fafb2c449bba3a5369d8359adf9e05e6fde87b056910160405180910390a1505050565b610ae5838383611aa0565b6000546001600160a01b03163314610c505760405162461bcd60e51b81526004016102b290612b6e565b601255565b6000546001600160a01b03163314610c7f5760405162461bcd60e51b81526004016102b290612b6e565b610c87611c9d565b565b610ae5838383604051806020016040528060008152506116fe565b6001600160a01b0381166000908152600b6020526040902054610cd95760405162461bcd60e51b81526004016102b290612c0b565b6001600160a01b0382166000908152600e60205260408120546040516370a0823160e01b81523060048201526001600160a01b038516906370a0823190602401602060405180830381865afa158015610d36573d6000803e3d6000fd5b505050506040513d601f19601f82011682018060405250810190610d5a9190612c9c565b610d649190612bb9565b90506000610d9d8383610b5c87876001600160a01b039182166000908152600f6020908152604080832093909416825291909152205490565b905080600003610dbf5760405162461bcd60e51b81526004016102b290612c51565b6001600160a01b038085166000908152600f6020908152604080832093871683529290529081208054839290610df6908490612bb9565b90915550506001600160a01b0384166000908152600e602052604081208054839290610e23908490612bb9565b90915550610e349050848483611d3a565b604080516001600160a01b038581168252602082018490528616917f3be5b7a71e84ed12875d241991c70855ac5817d847039e17a9d895c1ceb0f18a910160405180910390a250505050565b323314610ecf5760405162461bcd60e51b815260206004820152601e60248201527f5468652063616c6c657220697320616e6f7468657220636f6e7472616374000060448201526064016102b2565b6012546000819003610f105760405162461bcd60e51b815260206004820152600a6024820152690507269636520697320360b41b60448201526064016102b2565b6014544211610f6c5760405162461bcd60e51b815260206004820152602260248201527f57686974656c6973742053616c6520686173206e6f7420737461727465642079604482015261195d60f21b60648201526084016102b2565b601454610f7b90614650612bb9565b4210610fc95760405162461bcd60e51b815260206004820152601a60248201527f57686974656c6973742053616c652069732066696e697368656400000000000060448201526064016102b2565b610fd4338484611d8c565b6110125760405162461bcd60e51b815260206004820152600f60248201526e139bdd081dda1a5d195b1a5cdd1959608a1b60448201526064016102b2565b61101e60026001612bb9565b33600090815260166020526040902054611039908690612bb9565b1061109e5760405162461bcd60e51b815260206004820152602f60248201527f4d6178696d756d206d696e7420616d6f756e7420666f722057686974656c697360448201526e1d0814d85b1948195e18d959591959608a1b60648201526084016102b2565b6110aa600a6001612bb9565b846110bc600254600154036000190190565b6110c69190612bb9565b106111225760405162461bcd60e51b815260206004820152602660248201527f4d617820737570706c7920666f722057686974656c6973742053616c6520657860448201526518d95959195960d21b60648201526084016102b2565b61112c8185611e0d565b34101561116e5760405162461bcd60e51b815260206004820152601060248201526f4e6f7420656e6f7567682066756e647360801b60448201526064016102b2565b6111788585611890565b3360009081526016602052604081208054869290611197908490612bb9565b90915550505050505050565b6000546001600160a01b031633146111cd5760405162461bcd60e51b81526004016102b290612b6e565b601455565b60005b6011548110156111fd576111eb6103d8826113b3565b806111f581612cb5565b9150506111d5565b50565b600061120b82611e19565b5192915050565b6010805461121f90612bd1565b80601f016020809104026020016040519081016040528092919081815260200182805461124b90612bd1565b80156112985780601f1061126d57610100808354040283529160200191611298565b820191906000526020600020905b81548152906001019060200180831161127b57829003601f168201915b505050505081565b60006001600160a01b0382166112c9576040516323d3ad8160e21b815260040160405180910390fd5b506001600160a01b031660009081526006602052604090205467ffffffffffffffff1690565b6000546001600160a01b031633146113195760405162461bcd60e51b81526004016102b290612b6e565b610c876000611f42565b6000546001600160a01b0316331461134d5760405162461bcd60e51b81526004016102b290612b6e565b601355565b6000546001600160a01b0316331461137c5760405162461bcd60e51b81526004016102b290612b6e565b601555565b6000546001600160a01b031633146113ab5760405162461bcd60e51b81526004016102b290612b6e565b610c87611f92565b6000600d82815481106113c8576113c8612cce565b6000918252602090912001546001600160a01b031692915050565b60606004805461099690612bd1565b6000546001600160a01b0316331461141c5760405162461bcd60e51b81526004016102b290612b6e565b8051610983906010906020840190612729565b336001600160a01b038316036114585760405163b06307db60e01b815260040160405180910390fd5b3360008181526008602090815260408083206001600160a01b03871680855290835292819020805460ff191686151590811790915590519081529192917f17307eab39ab6107e8899845ad3d59bd9653f200f220920489ca2b5937696c31910160405180910390a35050565b3233146115135760405162461bcd60e51b815260206004820152601e60248201527f5468652063616c6c657220697320616e6f7468657220636f6e7472616374000060448201526064016102b2565b60135460008190036115545760405162461bcd60e51b815260206004820152600a6024820152690507269636520697320360b41b60448201526064016102b2565b60145461156390614650612bb9565b42116115b15760405162461bcd60e51b815260206004820152601e60248201527f57686974656c6973742053616c65206973206e6f742066696e6973686564000060448201526064016102b2565b6115bd60026001612bb9565b821061161c5760405162461bcd60e51b815260206004820152602860248201527f4d6178206d696e7420616d6f756e7420666f72205075626c69632053616c6520604482015267195e18d95959195960c21b60648201526084016102b2565b611627600a80612bb9565b611632906001612bb9565b82611644600254600154036000190190565b61164e9190612bb9565b106116a75760405162461bcd60e51b815260206004820152602360248201527f4d617820737570706c7920666f72205075626c69632053616c6520657863656560448201526219195960ea1b60648201526084016102b2565b6116b18183611e0d565b3410156116f45760405162461bcd60e51b81526020600482015260116024820152704e6f7420656e6f756768742066756e647360781b60448201526064016102b2565b610ae58383611890565b611709848484611aa0565b6001600160a01b0383163b1515801561172b57506117298484848461201a565b155b15611749576040516368d2bf6b60e11b815260040160405180910390fd5b50505050565b606061175a826118aa565b6117a65760405162461bcd60e51b815260206004820152601f60248201527f55524920717565727920666f72206e6f6e6578697374656e7420746f6b656e0060448201526064016102b2565b60106117b183612106565b6040516020016117c2929190612d00565b6040516020818303038152906040529050919050565b6060604051806080016040528060438152602001612ec260439139905090565b6000546001600160a01b031633146118225760405162461bcd60e51b81526004016102b290612b6e565b6001600160a01b0381166118875760405162461bcd60e51b815260206004820152602660248201527f4f776e61626c653a206e6577206f776e657220697320746865207a65726f206160448201526564647265737360d01b60648201526084016102b2565b6111fd81611f42565b610983828260405180602001604052806000815250612207565b6000816001111580156118be575060015482105b80156108df575050600090815260056020526040902054600160e01b900460ff161590565b60008281526007602052604080822080546001600160a01b0319166001600160a01b0387811691821790925591518593918516917f8c5be1e5ebec7d5bd14f71427d1e84f3dd0314c0f7b2291e5b200ac8c7c3b92591a4505050565b6009546001600160a01b0384166000908152600b6020526040812054909183916119699086612dba565b6119739190612def565b61197d9190612e03565b90505b9392505050565b804710156119d75760405162461bcd60e51b815260206004820152601d60248201527f416464726573733a20696e73756666696369656e742062616c616e636500000060448201526064016102b2565b6000826001600160a01b03168260405160006040518083038185875af1925050503d8060008114611a24576040519150601f19603f3d011682016040523d82523d6000602084013e611a29565b606091505b5050905080610ae55760405162461bcd60e51b815260206004820152603a60248201527f416464726573733a20756e61626c6520746f2073656e642076616c75652c207260448201527f6563697069656e74206d6179206861766520726576657274656400000000000060648201526084016102b2565b6000611aab82611e19565b9050836001600160a01b031681600001516001600160a01b031614611ae25760405162a1148160e81b815260040160405180910390fd5b6000336001600160a01b0386161480611b005750611b008533610845565b80611b1b575033611b1084610a19565b6001600160a01b0316145b905080611b3b57604051632ce44b5f60e11b815260040160405180910390fd5b6001600160a01b038416611b6257604051633a954ecd60e21b815260040160405180910390fd5b611b6f8585856001612214565b611b7b600084876118e3565b6001600160a01b038581166000908152600660209081526040808320805467ffffffffffffffff1980821667ffffffffffffffff92831660001901831617909255898616808652838620805493841693831660019081018416949094179055898652600590945282852080546001600160e01b031916909417600160a01b42909216919091021783558701808452922080549193909116611c51576001548214611c51578054602086015167ffffffffffffffff16600160a01b026001600160e01b03199091166001600160a01b038a16171781555b50505082846001600160a01b0316866001600160a01b03167fddf252ad1be2c89b69c2b068fc378daa952ba7f163c4a11628f55a4df523b3ef60405160405180910390a45b5050505050565b600054600160a01b900460ff16611ced5760405162461bcd60e51b815260206004820152601460248201527314185d5cd8589b194e881b9bdd081c185d5cd95960621b60448201526064016102b2565b6000805460ff60a01b191690557f5db9ee0a495bf2e6ff9c91a7834c1ba4fdd244a5e8aa4e537bd38aeae4b073aa335b6040516001600160a01b03909116815260200160405180910390a1565b604080516001600160a01b038416602482015260448082018490528251808303909101815260649091019091526020810180516001600160e01b031663a9059cbb60e01b179052610ae5908490612266565b600061197d611dd4856040516bffffffffffffffffffffffff19606083901b166020820152600090603401604051602081830303815290604052805190602001209050919050565b84848080602002602001604051908101604052809392919081815260200183836020028082843760009201919091525061233892505050565b60006119808284612dba565b60408051606081018252600080825260208201819052918101919091528180600111158015611e49575060015481105b15611f2957600081815260056020908152604091829020825160608101845290546001600160a01b0381168252600160a01b810467ffffffffffffffff1692820192909252600160e01b90910460ff16151591810182905290611f275780516001600160a01b031615611ebd579392505050565b5060001901600081815260056020908152604091829020825160608101845290546001600160a01b038116808352600160a01b820467ffffffffffffffff1693830193909352600160e01b900460ff1615159281019290925215611f22579392505050565b611ebd565b505b604051636f96cda160e11b815260040160405180910390fd5b600080546001600160a01b038381166001600160a01b0319831681178455604051919092169283917f8be0079c531659141344cd1fd0a4f28419497f9722a3daafe3b4186f6b6457e09190a35050565b600054600160a01b900460ff1615611fdf5760405162461bcd60e51b815260206004820152601060248201526f14185d5cd8589b194e881c185d5cd95960821b60448201526064016102b2565b6000805460ff60a01b1916600160a01b1790557f62e78cea01bee320cd4e420270b5ea74000d11b0c9f74754ebdbfc544b05a258611d1d3390565b604051630a85bd0160e11b81526000906001600160a01b0385169063150b7a029061204f903390899088908890600401612e1a565b6020604051808303816000875af192505050801561208a575060408051601f3d908101601f1916820190925261208791810190612e57565b60015b6120e8573d8080156120b8576040519150601f19603f3d011682016040523d82523d6000602084013e6120bd565b606091505b5080516000036120e0576040516368d2bf6b60e11b815260040160405180910390fd5b805181602001fd5b6001600160e01b031916630a85bd0160e11b1490505b949350505050565b60608160000361212d5750506040805180820190915260018152600360fc1b602082015290565b8160005b8115612157578061214181612cb5565b91506121509050600a83612def565b9150612131565b60008167ffffffffffffffff811115612172576121726129dd565b6040519080825280601f01601f19166020018201604052801561219c576020820181803683370190505b5090505b84156120fe576121b1600183612e03565b91506121be600a86612e74565b6121c9906030612bb9565b60f81b8183815181106121de576121de612cce565b60200101906001600160f81b031916908160001a905350612200600a86612def565b94506121a0565b610ae58383836001612347565b600054600160a01b900460ff16156122615760405162461bcd60e51b815260206004820152601060248201526f14185d5cd8589b194e881c185d5cd95960821b60448201526064016102b2565b611749565b60006122bb826040518060400160405280602081526020017f5361666545524332303a206c6f772d6c6576656c2063616c6c206661696c6564815250856001600160a01b03166125269092919063ffffffff16565b805190915015610ae557808060200190518101906122d99190612e88565b610ae55760405162461bcd60e51b815260206004820152602a60248201527f5361666545524332303a204552433230206f7065726174696f6e20646964206e6044820152691bdd081cdd58d8d9595960b21b60648201526084016102b2565b60006119808260155485612535565b6001546001600160a01b03851661237057604051622e076360e81b815260040160405180910390fd5b836000036123915760405163b562e8dd60e01b815260040160405180910390fd5b61239e6000868387612214565b6001600160a01b038516600081815260066020908152604080832080546fffffffffffffffffffffffffffffffff19811667ffffffffffffffff8083168c0181169182176801000000000000000067ffffffffffffffff1990941690921783900481168c01811690920217909155858452600590925290912080546001600160e01b031916909217600160a01b42909216919091021790558080850183801561245057506001600160a01b0387163b15155b156124d8575b60405182906001600160a01b038916906000907fddf252ad1be2c89b69c2b068fc378daa952ba7f163c4a11628f55a4df523b3ef908290a46124a1600088848060010195508861201a565b6124be576040516368d2bf6b60e11b815260040160405180910390fd5b8082036124565782600154146124d357600080fd5b61251d565b5b6040516001830192906001600160a01b038916906000907fddf252ad1be2c89b69c2b068fc378daa952ba7f163c4a11628f55a4df523b3ef908290a48082036124d9575b50600155611c96565b606061197d848460008561254b565b600082612542858461267c565b14949350505050565b6060824710156125ac5760405162461bcd60e51b815260206004820152602660248201527f416464726573733a20696e73756666696369656e742062616c616e636520666f6044820152651c8818d85b1b60d21b60648201526084016102b2565b6001600160a01b0385163b6126035760405162461bcd60e51b815260206004820152601d60248201527f416464726573733a2063616c6c20746f206e6f6e2d636f6e747261637400000060448201526064016102b2565b600080866001600160a01b0316858760405161261f9190612ea5565b60006040518083038185875af1925050503d806000811461265c576040519150601f19603f3d011682016040523d82523d6000602084013e612661565b606091505b50915091506126718282866126f0565b979650505050505050565b600081815b84518110156126e857600085828151811061269e5761269e612cce565b602002602001015190508083116126c457600083815260208290526040902092506126d5565b600081815260208490526040902092505b50806126e081612cb5565b915050612681565b509392505050565b606083156126ff575081611980565b82511561270f5782518084602001fd5b8160405162461bcd60e51b81526004016102b2919061288e565b82805461273590612bd1565b90600052602060002090601f016020900481019282612757576000855561279d565b82601f1061277057805160ff191683800117855561279d565b8280016001018555821561279d579182015b8281111561279d578251825591602001919060010190612782565b506127a99291506127ad565b5090565b5b808211156127a957600081556001016127ae565b6001600160e01b0319811681146111fd57600080fd5b6000602082840312156127ea57600080fd5b8135611980816127c2565b6001600160a01b03811681146111fd57600080fd5b6000806040838503121561281d57600080fd5b8235612828816127f5565b946020939093013593505050565b60005b83811015612851578181015183820152602001612839565b838111156117495750506000910152565b6000815180845261287a816020860160208601612836565b601f01601f19169290920160200192915050565b6020815260006119806020830184612862565b6000602082840312156128b357600080fd5b5035919050565b6000602082840312156128cc57600080fd5b8135611980816127f5565b6000806000606084860312156128ec57600080fd5b83356128f7816127f5565b92506020840135612907816127f5565b929592945050506040919091013590565b6000806040838503121561292b57600080fd5b8235612936816127f5565b91506020830135612946816127f5565b809150509250929050565b6000806000806060858703121561296757600080fd5b8435612972816127f5565b935060208501359250604085013567ffffffffffffffff8082111561299657600080fd5b818701915087601f8301126129aa57600080fd5b8135818111156129b957600080fd5b8860208260051b85010111156129ce57600080fd5b95989497505060200194505050565b634e487b7160e01b600052604160045260246000fd5b600067ffffffffffffffff80841115612a0e57612a0e6129dd565b604051601f8501601f19908116603f01168101908282118183101715612a3657612a366129dd565b81604052809350858152868686011115612a4f57600080fd5b858560208301376000602087830101525050509392505050565b600060208284031215612a7b57600080fd5b813567ffffffffffffffff811115612a9257600080fd5b8201601f81018413612aa357600080fd5b6120fe848235602084016129f3565b80151581146111fd57600080fd5b60008060408385031215612ad357600080fd5b8235612ade816127f5565b9150602083013561294681612ab2565b60008060008060808587031215612b0457600080fd5b8435612b0f816127f5565b93506020850135612b1f816127f5565b925060408501359150606085013567ffffffffffffffff811115612b4257600080fd5b8501601f81018713612b5357600080fd5b612b62878235602084016129f3565b91505092959194509250565b6020808252818101527f4f776e61626c653a2063616c6c6572206973206e6f7420746865206f776e6572604082015260600190565b634e487b7160e01b600052601160045260246000fd5b60008219821115612bcc57612bcc612ba3565b500190565b600181811c90821680612be557607f821691505b602082108103612c0557634e487b7160e01b600052602260045260246000fd5b50919050565b60208082526026908201527f5061796d656e7453706c69747465723a206163636f756e7420686173206e6f2060408201526573686172657360d01b606082015260800190565b6020808252602b908201527f5061796d656e7453706c69747465723a206163636f756e74206973206e6f742060408201526a191d59481c185e5b595b9d60aa1b606082015260800190565b600060208284031215612cae57600080fd5b5051919050565b600060018201612cc757612cc7612ba3565b5060010190565b634e487b7160e01b600052603260045260246000fd5b60008151612cf6818560208601612836565b9290920192915050565b600080845481600182811c915080831680612d1c57607f831692505b60208084108203612d3b57634e487b7160e01b86526022600452602486fd5b818015612d4f5760018114612d6057612d8d565b60ff19861689528489019650612d8d565b60008b81526020902060005b86811015612d855781548b820152908501908301612d6c565b505084890196505b505050505050612db1612da08286612ce4565b64173539b7b760d91b815260050190565b95945050505050565b6000816000190483118215151615612dd457612dd4612ba3565b500290565b634e487b7160e01b600052601260045260246000fd5b600082612dfe57612dfe612dd9565b500490565b600082821015612e1557612e15612ba3565b500390565b6001600160a01b0385811682528416602082015260408101839052608060608201819052600090612e4d90830184612862565b9695505050505050565b600060208284031215612e6957600080fd5b8151611980816127c2565b600082612e8357612e83612dd9565b500690565b600060208284031215612e9a57600080fd5b815161198081612ab2565b60008251612eb7818460208701612836565b919091019291505056fe697066733a2f2f6261666b72656964377a7972776b337962337578633373657a6f657137336a716a6d336f7968636865643234716234706a717635687462377669342fa2646970667358221220cbca69aa5fd108b2ff4755649aba2157b080efdd0357875f4a54dc17e36962a864736f6c634300080d0033",
  "linkReferences": {},
  "deployedLinkReferences": {}
}