{
  "_format": "hh-sol-artifact-1",
  "contractName": "MagicMondrian",
  "sourceName": "contracts/MagicMondrian.sol",
  "abi": [
    {
      "inputs": [
        {
          "internalType": "address[]",
          "name": "_payeesAdresses",
          "type": "address[]"
        },
        {
          "internalType": "uint256[]",
          "name": "_payeesShares",
          "type": "uint256[]"
        },
        {
          "internalType": "address",
          "name": "_signerAddress",
          "type": "address"
        },
        {
          "internalType": "string",
          "name": "_hiddenURI",
          "type": "string"
        }
      ],
      "stateMutability": "nonpayable",
      "type": "constructor"
    },
    {
      "inputs": [],
      "name": "ApprovalCallerNotOwnerNorApproved",
      "type": "error"
    },
    {
      "inputs": [],
      "name": "ApprovalQueryForNonexistentToken",
      "type": "error"
    },
    {
      "inputs": [],
      "name": "ApprovalToCurrentOwner",
      "type": "error"
    },
    {
      "inputs": [],
      "name": "ApproveToCaller",
      "type": "error"
    },
    {
      "inputs": [],
      "name": "BalanceQueryForZeroAddress",
      "type": "error"
    },
    {
      "inputs": [],
      "name": "MintToZeroAddress",
      "type": "error"
    },
    {
      "inputs": [],
      "name": "MintZeroQuantity",
      "type": "error"
    },
    {
      "inputs": [],
      "name": "OwnerQueryForNonexistentToken",
      "type": "error"
    },
    {
      "inputs": [],
      "name": "TransferCallerNotOwnerNorApproved",
      "type": "error"
    },
    {
      "inputs": [],
      "name": "TransferFromIncorrectOwner",
      "type": "error"
    },
    {
      "inputs": [],
      "name": "TransferToNonERC721ReceiverImplementer",
      "type": "error"
    },
    {
      "inputs": [],
      "name": "TransferToZeroAddress",
      "type": "error"
    },
    {
      "anonymous": false,
      "inputs": [
        {
          "indexed": true,
          "internalType": "address",
          "name": "owner",
          "type": "address"
        },
        {
          "indexed": true,
          "internalType": "address",
          "name": "approved",
          "type": "address"
        },
        {
          "indexed": true,
          "internalType": "uint256",
          "name": "tokenId",
          "type": "uint256"
        }
      ],
      "name": "Approval",
      "type": "event"
    },
    {
      "anonymous": false,
      "inputs": [
        {
          "indexed": true,
          "internalType": "address",
          "name": "owner",
          "type": "address"
        },
        {
          "indexed": true,
          "internalType": "address",
          "name": "operator",
          "type": "address"
        },
        {
          "indexed": false,
          "internalType": "bool",
          "name": "approved",
          "type": "bool"
        }
      ],
      "name": "ApprovalForAll",
      "type": "event"
    },
    {
      "anonymous": false,
      "inputs": [
        {
          "indexed": true,
          "internalType": "contract IERC20",
          "name": "token",
          "type": "address"
        },
        {
          "indexed": false,
          "internalType": "address",
          "name": "to",
          "type": "address"
        },
        {
          "indexed": false,
          "internalType": "uint256",
          "name": "amount",
          "type": "uint256"
        }
      ],
      "name": "ERC20PaymentReleased",
      "type": "event"
    },
    {
      "anonymous": false,
      "inputs": [
        {
          "indexed": true,
          "internalType": "address",
          "name": "previousOwner",
          "type": "address"
        },
        {
          "indexed": true,
          "internalType": "address",
          "name": "newOwner",
          "type": "address"
        }
      ],
      "name": "OwnershipTransferred",
      "type": "event"
    },
    {
      "anonymous": false,
      "inputs": [
        {
          "indexed": false,
          "internalType": "address",
          "name": "account",
          "type": "address"
        }
      ],
      "name": "Paused",
      "type": "event"
    },
    {
      "anonymous": false,
      "inputs": [
        {
          "indexed": false,
          "internalType": "address",
          "name": "account",
          "type": "address"
        },
        {
          "indexed": false,
          "internalType": "uint256",
          "name": "shares",
          "type": "uint256"
        }
      ],
      "name": "PayeeAdded",
      "type": "event"
    },
    {
      "anonymous": false,
      "inputs": [
        {
          "indexed": false,
          "internalType": "address",
          "name": "from",
          "type": "address"
        },
        {
          "indexed": false,
          "internalType": "uint256",
          "name": "amount",
          "type": "uint256"
        }
      ],
      "name": "PaymentReceived",
      "type": "event"
    },
    {
      "anonymous": false,
      "inputs": [
        {
          "indexed": false,
          "internalType": "address",
          "name": "to",
          "type": "address"
        },
        {
          "indexed": false,
          "internalType": "uint256",
          "name": "amount",
          "type": "uint256"
        }
      ],
      "name": "PaymentReleased",
      "type": "event"
    },
    {
      "anonymous": false,
      "inputs": [
        {
          "indexed": false,
          "internalType": "string",
          "name": "baseURI",
          "type": "string"
        }
      ],
      "name": "SetBaseURI",
      "type": "event"
    },
    {
      "anonymous": false,
      "inputs": [
        {
          "indexed": true,
          "internalType": "address",
          "name": "from",
          "type": "address"
        },
        {
          "indexed": true,
          "internalType": "address",
          "name": "to",
          "type": "address"
        },
        {
          "indexed": true,
          "internalType": "uint256",
          "name": "tokenId",
          "type": "uint256"
        }
      ],
      "name": "Transfer",
      "type": "event"
    },
    {
      "anonymous": false,
      "inputs": [
        {
          "indexed": false,
          "internalType": "address",
          "name": "account",
          "type": "address"
        }
      ],
      "name": "Unpaused",
      "type": "event"
    },
    {
      "inputs": [],
      "name": "MAX_SUPPLY",
      "outputs": [
        {
          "internalType": "uint256",
          "name": "",
          "type": "uint256"
        }
      ],
      "stateMutability": "view",
      "type": "function"
    },
    {
      "inputs": [
        {
          "internalType": "address",
          "name": "_to",
          "type": "address"
        },
        {
          "internalType": "uint256",
          "name": "_quantity",
          "type": "uint256"
        }
      ],
      "name": "airDrop",
      "outputs": [],
      "stateMutability": "nonpayable",
      "type": "function"
    },
    {
      "inputs": [
        {
          "internalType": "address",
          "name": "",
          "type": "address"
        }
      ],
      "name": "amountNFTsperWalletWhitelistSale",
      "outputs": [
        {
          "internalType": "uint256",
          "name": "",
          "type": "uint256"
        }
      ],
      "stateMutability": "view",
      "type": "function"
    },
    {
      "inputs": [
        {
          "internalType": "address",
          "name": "to",
          "type": "address"
        },
        {
          "internalType": "uint256",
          "name": "tokenId",
          "type": "uint256"
        }
      ],
      "name": "approve",
      "outputs": [],
      "stateMutability": "nonpayable",
      "type": "function"
    },
    {
      "inputs": [
        {
          "internalType": "address",
          "name": "owner",
          "type": "address"
        }
      ],
      "name": "balanceOf",
      "outputs": [
        {
          "internalType": "uint256",
          "name": "",
          "type": "uint256"
        }
      ],
      "stateMutability": "view",
      "type": "function"
    },
    {
      "inputs": [],
      "name": "contractURI",
      "outputs": [
        {
          "internalType": "string",
          "name": "",
          "type": "string"
        }
      ],
      "stateMutability": "pure",
      "type": "function"
    },
    {
      "inputs": [],
      "name": "cost",
      "outputs": [
        {
          "internalType": "uint256",
          "name": "",
          "type": "uint256"
        }
      ],
      "stateMutability": "view",
      "type": "function"
    },
    {
      "inputs": [
        {
          "internalType": "uint256",
          "name": "tokenId",
          "type": "uint256"
        }
      ],
      "name": "getApproved",
      "outputs": [
        {
          "internalType": "address",
          "name": "",
          "type": "address"
        }
      ],
      "stateMutability": "view",
      "type": "function"
    },
    {
      "inputs": [
        {
          "internalType": "address",
          "name": "owner",
          "type": "address"
        },
        {
          "internalType": "address",
          "name": "operator",
          "type": "address"
        }
      ],
      "name": "isApprovedForAll",
      "outputs": [
        {
          "internalType": "bool",
          "name": "",
          "type": "bool"
        }
      ],
      "stateMutability": "view",
      "type": "function"
    },
    {
      "inputs": [],
      "name": "maxMint",
      "outputs": [
        {
          "internalType": "uint256",
          "name": "",
          "type": "uint256"
        }
      ],
      "stateMutability": "view",
      "type": "function"
    },
    {
      "inputs": [],
      "name": "maxReserved",
      "outputs": [
        {
          "internalType": "uint256",
          "name": "",
          "type": "uint256"
        }
      ],
      "stateMutability": "view",
      "type": "function"
    },
    {
      "inputs": [],
      "name": "name",
      "outputs": [
        {
          "internalType": "string",
          "name": "",
          "type": "string"
        }
      ],
      "stateMutability": "view",
      "type": "function"
    },
    {
      "inputs": [],
      "name": "owner",
      "outputs": [
        {
          "internalType": "address",
          "name": "",
          "type": "address"
        }
      ],
      "stateMutability": "view",
      "type": "function"
    },
    {
      "inputs": [
        {
          "internalType": "uint256",
          "name": "tokenId",
          "type": "uint256"
        }
      ],
      "name": "ownerOf",
      "outputs": [
        {
          "internalType": "address",
          "name": "",
          "type": "address"
        }
      ],
      "stateMutability": "view",
      "type": "function"
    },
    {
      "inputs": [],
      "name": "pause",
      "outputs": [],
      "stateMutability": "nonpayable",
      "type": "function"
    },
    {
      "inputs": [],
      "name": "paused",
      "outputs": [
        {
          "internalType": "bool",
          "name": "",
          "type": "bool"
        }
      ],
      "stateMutability": "view",
      "type": "function"
    },
    {
      "inputs": [
        {
          "internalType": "uint256",
          "name": "index",
          "type": "uint256"
        }
      ],
      "name": "payee",
      "outputs": [
        {
          "internalType": "address",
          "name": "",
          "type": "address"
        }
      ],
      "stateMutability": "view",
      "type": "function"
    },
    {
      "inputs": [
        {
          "internalType": "address",
          "name": "_account",
          "type": "address"
        },
        {
          "internalType": "uint256",
          "name": "_quantity",
          "type": "uint256"
        }
      ],
      "name": "publicSaleMint",
      "outputs": [],
      "stateMutability": "payable",
      "type": "function"
    },
    {
      "inputs": [
        {
          "internalType": "address payable",
          "name": "account",
          "type": "address"
        }
      ],
      "name": "release",
      "outputs": [],
      "stateMutability": "nonpayable",
      "type": "function"
    },
    {
      "inputs": [
        {
          "internalType": "contract IERC20",
          "name": "token",
          "type": "address"
        },
        {
          "internalType": "address",
          "name": "account",
          "type": "address"
        }
      ],
      "name": "release",
      "outputs": [],
      "stateMutability": "nonpayable",
      "type": "function"
    },
    {
      "inputs": [],
      "name": "releaseAll",
      "outputs": [],
      "stateMutability": "nonpayable",
      "type": "function"
    },
    {
      "inputs": [
        {
          "internalType": "contract IERC20",
          "name": "token",
          "type": "address"
        },
        {
          "internalType": "address",
          "name": "account",
          "type": "address"
        }
      ],
      "name": "released",
      "outputs": [
        {
          "internalType": "uint256",
          "name": "",
          "type": "uint256"
        }
      ],
      "stateMutability": "view",
      "type": "function"
    },
    {
      "inputs": [
        {
          "internalType": "address",
          "name": "account",
          "type": "address"
        }
      ],
      "name": "released",
      "outputs": [
        {
          "internalType": "uint256",
          "name": "",
          "type": "uint256"
        }
      ],
      "stateMutability": "view",
      "type": "function"
    },
    {
      "inputs": [],
      "name": "renounceOwnership",
      "outputs": [],
      "stateMutability": "nonpayable",
      "type": "function"
    },
    {
      "inputs": [
        {
          "internalType": "address",
          "name": "from",
          "type": "address"
        },
        {
          "internalType": "address",
          "name": "to",
          "type": "address"
        },
        {
          "internalType": "uint256",
          "name": "tokenId",
          "type": "uint256"
        }
      ],
      "name": "safeTransferFrom",
      "outputs": [],
      "stateMutability": "nonpayable",
      "type": "function"
    },
    {
      "inputs": [
        {
          "internalType": "address",
          "name": "from",
          "type": "address"
        },
        {
          "internalType": "address",
          "name": "to",
          "type": "address"
        },
        {
          "internalType": "uint256",
          "name": "tokenId",
          "type": "uint256"
        },
        {
          "internalType": "bytes",
          "name": "_data",
          "type": "bytes"
        }
      ],
      "name": "safeTransferFrom",
      "outputs": [],
      "stateMutability": "nonpayable",
      "type": "function"
    },
    {
      "inputs": [],
      "name": "sellingPhase",
      "outputs": [
        {
          "internalType": "enum MagicMondrian.Phase",
          "name": "",
          "type": "uint8"
        }
      ],
      "stateMutability": "view",
      "type": "function"
    },
    {
      "inputs": [
        {
          "internalType": "address",
          "name": "operator",
          "type": "address"
        },
        {
          "internalType": "bool",
          "name": "approved",
          "type": "bool"
        }
      ],
      "name": "setApprovalForAll",
      "outputs": [],
      "stateMutability": "nonpayable",
      "type": "function"
    },
    {
      "inputs": [
        {
          "internalType": "string",
          "name": "_baseURI",
          "type": "string"
        }
      ],
      "name": "setBaseUri",
      "outputs": [],
      "stateMutability": "nonpayable",
      "type": "function"
    },
    {
      "inputs": [
        {
          "internalType": "uint256",
          "name": "_cost",
          "type": "uint256"
        }
      ],
      "name": "setCost",
      "outputs": [],
      "stateMutability": "nonpayable",
      "type": "function"
    },
    {
      "inputs": [
        {
          "internalType": "string",
          "name": "_hiddenUri",
          "type": "string"
        }
      ],
      "name": "setHiddenUri",
      "outputs": [],
      "stateMutability": "nonpayable",
      "type": "function"
    },
    {
      "inputs": [
        {
          "internalType": "uint256",
          "name": "_maxMintAmountPerTx",
          "type": "uint256"
        }
      ],
      "name": "setMaxMintAmountPerTx",
      "outputs": [],
      "stateMutability": "nonpayable",
      "type": "function"
    },
    {
      "inputs": [
        {
          "internalType": "uint256",
          "name": "_maxReserved",
          "type": "uint256"
        }
      ],
      "name": "setMaxReserved",
      "outputs": [],
      "stateMutability": "nonpayable",
      "type": "function"
    },
    {
      "inputs": [
        {
          "internalType": "uint256",
          "name": "_phase",
          "type": "uint256"
        }
      ],
      "name": "setPhase",
      "outputs": [],
      "stateMutability": "nonpayable",
      "type": "function"
    },
    {
      "inputs": [
        {
          "internalType": "address",
          "name": "_signerAddress",
          "type": "address"
        }
      ],
      "name": "setSignerAddress",
      "outputs": [],
      "stateMutability": "nonpayable",
      "type": "function"
    },
    {
      "inputs": [
        {
          "internalType": "address",
          "name": "account",
          "type": "address"
        }
      ],
      "name": "shares",
      "outputs": [
        {
          "internalType": "uint256",
          "name": "",
          "type": "uint256"
        }
      ],
      "stateMutability": "view",
      "type": "function"
    },
    {
      "inputs": [
        {
          "internalType": "bytes4",
          "name": "interfaceId",
          "type": "bytes4"
        }
      ],
      "name": "supportsInterface",
      "outputs": [
        {
          "internalType": "bool",
          "name": "",
          "type": "bool"
        }
      ],
      "stateMutability": "view",
      "type": "function"
    },
    {
      "inputs": [],
      "name": "symbol",
      "outputs": [
        {
          "internalType": "string",
          "name": "",
          "type": "string"
        }
      ],
      "stateMutability": "view",
      "type": "function"
    },
    {
      "inputs": [
        {
          "internalType": "uint256",
          "name": "_tokenId",
          "type": "uint256"
        }
      ],
      "name": "tokenURI",
      "outputs": [
        {
          "internalType": "string",
          "name": "",
          "type": "string"
        }
      ],
      "stateMutability": "view",
      "type": "function"
    },
    {
      "inputs": [
        {
          "internalType": "contract IERC20",
          "name": "token",
          "type": "address"
        }
      ],
      "name": "totalReleased",
      "outputs": [
        {
          "internalType": "uint256",
          "name": "",
          "type": "uint256"
        }
      ],
      "stateMutability": "view",
      "type": "function"
    },
    {
      "inputs": [],
      "name": "totalReleased",
      "outputs": [
        {
          "internalType": "uint256",
          "name": "",
          "type": "uint256"
        }
      ],
      "stateMutability": "view",
      "type": "function"
    },
    {
      "inputs": [],
      "name": "totalShares",
      "outputs": [
        {
          "internalType": "uint256",
          "name": "",
          "type": "uint256"
        }
      ],
      "stateMutability": "view",
      "type": "function"
    },
    {
      "inputs": [],
      "name": "totalSupply",
      "outputs": [
        {
          "internalType": "uint256",
          "name": "",
          "type": "uint256"
        }
      ],
      "stateMutability": "view",
      "type": "function"
    },
    {
      "inputs": [
        {
          "internalType": "address",
          "name": "from",
          "type": "address"
        },
        {
          "internalType": "address",
          "name": "to",
          "type": "address"
        },
        {
          "internalType": "uint256",
          "name": "tokenId",
          "type": "uint256"
        }
      ],
      "name": "transferFrom",
      "outputs": [],
      "stateMutability": "nonpayable",
      "type": "function"
    },
    {
      "inputs": [
        {
          "internalType": "address",
          "name": "newOwner",
          "type": "address"
        }
      ],
      "name": "transferOwnership",
      "outputs": [],
      "stateMutability": "nonpayable",
      "type": "function"
    },
    {
      "inputs": [],
      "name": "unpause",
      "outputs": [],
      "stateMutability": "nonpayable",
      "type": "function"
    },
    {
      "inputs": [
        {
          "internalType": "address",
          "name": "_account",
          "type": "address"
        },
        {
          "internalType": "uint256",
          "name": "_quantity",
          "type": "uint256"
        },
        {
          "internalType": "bytes",
          "name": "_signature",
          "type": "bytes"
        }
      ],
      "name": "whitelistMint",
      "outputs": [],
      "stateMutability": "payable",
      "type": "function"
    },
    {
      "stateMutability": "payable",
      "type": "receive"
    }
  ],
  "bytecode": "0x60806040526032601655600560175565e35fa931a0006018553480156200002557600080fd5b5060405162003d5538038062003d5583398101604081905262000048916200079e565b816040518060400160405280600e81526020016d26b0b3b4b19026b7b7323934b0b760911b81525085856040518060400160405280600e81526020016d26b0b3b4b19026b7b7323934b0b760911b815250604051806040016040528060048152602001634d414d4f60e01b815250620000d0620000ca6200032260201b60201c565b62000326565b6000805460ff60a01b191690558151620000f290600390602085019062000564565b5080516200010890600490602084019062000564565b506001805550508051825114620001815760405162461bcd60e51b815260206004820152603260248201527f5061796d656e7453706c69747465723a2070617965657320616e6420736861726044820152710cae640d8cadccee8d040dad2e6dac2e8c6d60731b60648201526084015b60405180910390fd5b6000825111620001d45760405162461bcd60e51b815260206004820152601a60248201527f5061796d656e7453706c69747465723a206e6f20706179656573000000000000604482015260640162000178565b60005b825181101562000240576200022b838281518110620001fa57620001fa620008a8565b6020026020010151838381518110620002175762000217620008a8565b60200260200101516200037660201b60201c565b806200023781620008d4565b915050620001d7565b5050601080546001600160a01b0319166001600160a01b03851617905550805160208083019190912060408051808201825260018152603160f81b9084015280517f8b73c3c69bb8fe3d512ecc4cf759cc79239f7b179b0ffacaa9a75d522b39400f938101939093528201527fc89efdaa54c0f20c7adf612882df0950f5a951637e0307cdcb4c672f298b8bc660608201524660808201523060a082015260c00160408051601f1981840301815291905280516020918201206011558351620003129350601392509084019062000564565b5050915160155550620009479050565b3390565b600080546001600160a01b038381166001600160a01b0319831681178455604051919092169283917f8be0079c531659141344cd1fd0a4f28419497f9722a3daafe3b4186f6b6457e09190a35050565b6001600160a01b038216620003e35760405162461bcd60e51b815260206004820152602c60248201527f5061796d656e7453706c69747465723a206163636f756e74206973207468652060448201526b7a65726f206164647265737360a01b606482015260840162000178565b60008111620004355760405162461bcd60e51b815260206004820152601d60248201527f5061796d656e7453706c69747465723a20736861726573206172652030000000604482015260640162000178565b6001600160a01b0382166000908152600b602052604090205415620004b15760405162461bcd60e51b815260206004820152602b60248201527f5061796d656e7453706c69747465723a206163636f756e7420616c726561647960448201526a206861732073686172657360a81b606482015260840162000178565b600d8054600181019091557fd7b6990105719101dabeb77144f2a3385c8033acd3af97e9423a695e81ad1eb50180546001600160a01b0319166001600160a01b0384169081179091556000908152600b602052604090208190556009546200051b908290620008f0565b600955604080516001600160a01b0384168152602081018390527f40c340f65e17194d14ddddb073d3c9f888e3cb52b5aae0c6c7706b4fbc905fac910160405180910390a15050565b82805462000572906200090b565b90600052602060002090601f016020900481019282620005965760008555620005e1565b82601f10620005b157805160ff1916838001178555620005e1565b82800160010185558215620005e1579182015b82811115620005e1578251825591602001919060010190620005c4565b50620005ef929150620005f3565b5090565b5b80821115620005ef5760008155600101620005f4565b634e487b7160e01b600052604160045260246000fd5b604051601f8201601f191681016001600160401b03811182821017156200064b576200064b6200060a565b604052919050565b60006001600160401b038211156200066f576200066f6200060a565b5060051b60200190565b80516001600160a01b03811681146200069157600080fd5b919050565b600082601f830112620006a857600080fd5b81516020620006c1620006bb8362000653565b62000620565b82815260059290921b84018101918181019086841115620006e157600080fd5b8286015b84811015620006fe5780518352918301918301620006e5565b509695505050505050565b600082601f8301126200071b57600080fd5b81516001600160401b038111156200073757620007376200060a565b60206200074d601f8301601f1916820162000620565b82815285828487010111156200076257600080fd5b60005b838110156200078257858101830151828201840152820162000765565b83811115620007945760008385840101525b5095945050505050565b60008060008060808587031215620007b557600080fd5b84516001600160401b0380821115620007cd57600080fd5b818701915087601f830112620007e257600080fd5b81516020620007f5620006bb8362000653565b82815260059290921b8401810191818101908b8411156200081557600080fd5b948201945b838610156200083e576200082e8662000679565b825294820194908201906200081a565b918a01519198509093505050808211156200085857600080fd5b620008668883890162000696565b9450620008766040880162000679565b935060608701519150808211156200088d57600080fd5b506200089c8782880162000709565b91505092959194509250565b634e487b7160e01b600052603260045260246000fd5b634e487b7160e01b600052601160045260246000fd5b600060018201620008e957620008e9620008be565b5060010190565b60008219821115620009065762000906620008be565b500190565b600181811c908216806200092057607f821691505b6020821081036200094157634e487b7160e01b600052602260045260246000fd5b50919050565b6133fe80620009576000396000f3fe60806040526004361061028c5760003560e01c80636bee18bd1161015a578063a9898fd9116100c1578063d79779b21161007a578063d79779b21461080b578063dae55cb314610841578063e33b7de314610868578063e8a3d4851461087d578063e985e9c514610892578063f2fde38b146108db57600080fd5b8063a9898fd91461074c578063ac5ae11b14610762578063b071401b14610775578063b88d4fde14610795578063c87b56dd146107b5578063ce7c2ac2146107d557600080fd5b80638da5cb5b116101135780638da5cb5b1461067657806395d89b41146106945780639852595c146106a957806399d13800146106df578063a0bcfc7f1461070c578063a22cb4651461072c57600080fd5b80636bee18bd146105d657806370a08231146105f6578063715018a6146106165780637501f7411461062b5780638456cb59146106415780638b83209b1461065657600080fd5b80632cc82655116101fe57806344a0d68a116101b757806344a0d68a1461052f57806348b750441461054f5780635be7fde81461056f5780635c975abb146105845780635ed222e3146105a35780636352211e146105b657600080fd5b80632cc826551461046957806332cb6b0c146104895780633a98ef391461049f5780633f4ba83a146104b4578063406072a9146104c957806342842e0e1461050f57600080fd5b8063095ea7b311610250578063095ea7b3146103a75780631067fcc7146103c757806313faede6146103e757806318160ddd1461040b578063191655871461042957806323b872dd1461044957600080fd5b806301ffc9a7146102d6578063045f78501461030b578063046dc1661461032d57806306fdde031461034d578063081812fc1461036f57600080fd5b366102d15760405162461bcd60e51b815260206004820152601060248201526f13db9b1e481a59881e5bdd481b5a5b9d60821b60448201526064015b60405180910390fd5b600080fd5b3480156102e257600080fd5b506102f66102f1366004612c2c565b6108fb565b60405190151581526020015b60405180910390f35b34801561031757600080fd5b5061032b610326366004612c5e565b61094d565b005b34801561033957600080fd5b5061032b610348366004612c8a565b6109f0565b34801561035957600080fd5b50610362610a3c565b6040516103029190612cff565b34801561037b57600080fd5b5061038f61038a366004612d12565b610ace565b6040516001600160a01b039091168152602001610302565b3480156103b357600080fd5b5061032b6103c2366004612c5e565b610b12565b3480156103d357600080fd5b5061032b6103e2366004612db7565b610b9f565b3480156103f357600080fd5b506103fd60185481565b604051908152602001610302565b34801561041757600080fd5b506103fd600254600154036000190190565b34801561043557600080fd5b5061032b610444366004612c8a565b610bdc565b34801561045557600080fd5b5061032b610464366004612e00565b610d0d565b34801561047557600080fd5b5061032b610484366004612d12565b610d18565b34801561049557600080fd5b506103fd6103e881565b3480156104ab57600080fd5b506009546103fd565b3480156104c057600080fd5b5061032b610d78565b3480156104d557600080fd5b506103fd6104e4366004612e41565b6001600160a01b039182166000908152600f6020908152604080832093909416825291909152205490565b34801561051b57600080fd5b5061032b61052a366004612e00565b610dac565b34801561053b57600080fd5b5061032b61054a366004612d12565b610dc7565b34801561055b57600080fd5b5061032b61056a366004612e41565b610df6565b34801561057b57600080fd5b5061032b610fd2565b34801561059057600080fd5b50600054600160a01b900460ff166102f6565b61032b6105b1366004612e7a565b611000565b3480156105c257600080fd5b5061038f6105d1366004612d12565b61139c565b3480156105e257600080fd5b5061032b6105f1366004612d12565b6113ae565b34801561060257600080fd5b506103fd610611366004612c8a565b6113dd565b34801561062257600080fd5b5061032b61142c565b34801561063757600080fd5b506103fd60175481565b34801561064d57600080fd5b5061032b611460565b34801561066257600080fd5b5061038f610671366004612d12565b611492565b34801561068257600080fd5b506000546001600160a01b031661038f565b3480156106a057600080fd5b506103626114c2565b3480156106b557600080fd5b506103fd6106c4366004612c8a565b6001600160a01b03166000908152600c602052604090205490565b3480156106eb57600080fd5b506103fd6106fa366004612c8a565b60196020526000908152604090205481565b34801561071857600080fd5b5061032b610727366004612db7565b6114d1565b34801561073857600080fd5b5061032b610747366004612f11565b61154a565b34801561075857600080fd5b506103fd60165481565b61032b610770366004612c5e565b6115df565b34801561078157600080fd5b5061032b610790366004612d12565b6117f4565b3480156107a157600080fd5b5061032b6107b0366004612f3f565b611823565b3480156107c157600080fd5b506103626107d0366004612d12565b611874565b3480156107e157600080fd5b506103fd6107f0366004612c8a565b6001600160a01b03166000908152600b602052604090205490565b34801561081757600080fd5b506103fd610826366004612c8a565b6001600160a01b03166000908152600e602052604090205490565b34801561084d57600080fd5b5060145461085b9060ff1681565b6040516103029190612fd5565b34801561087457600080fd5b50600a546103fd565b34801561088957600080fd5b506103626119d8565b34801561089e57600080fd5b506102f66108ad366004612e41565b6001600160a01b03918216600090815260086020908152604080832093909416825291909152205460ff1690565b3480156108e757600080fd5b5061032b6108f6366004612c8a565b6119f8565b60006001600160e01b031982166380ac58cd60e01b148061092c57506001600160e01b03198216635b5e139f60e01b145b8061094757506301ffc9a760e01b6001600160e01b03198316145b92915050565b6000546001600160a01b031633146109775760405162461bcd60e51b81526004016102c890612ffd565b6109846103e86001613048565b81610996600254600154036000190190565b6109a09190613048565b106109e25760405162461bcd60e51b815260206004820152601260248201527152656163686564206d617820537570706c7960701b60448201526064016102c8565b6109ec8282611a90565b5050565b6000546001600160a01b03163314610a1a5760405162461bcd60e51b81526004016102c890612ffd565b601080546001600160a01b0319166001600160a01b0392909216919091179055565b606060038054610a4b90613060565b80601f0160208091040260200160405190810160405280929190818152602001828054610a7790613060565b8015610ac45780601f10610a9957610100808354040283529160200191610ac4565b820191906000526020600020905b815481529060010190602001808311610aa757829003601f168201915b5050505050905090565b6000610ad982611aaa565b610af6576040516333d1c03960e21b815260040160405180910390fd5b506000908152600760205260409020546001600160a01b031690565b6000610b1d8261139c565b9050806001600160a01b0316836001600160a01b031603610b515760405163250fdee360e21b815260040160405180910390fd5b336001600160a01b03821614801590610b715750610b6f81336108ad565b155b15610b8f576040516367d9dca160e11b815260040160405180910390fd5b610b9a838383611ae3565b505050565b6000546001600160a01b03163314610bc95760405162461bcd60e51b81526004016102c890612ffd565b80516109ec906013906020840190612b7d565b6001600160a01b0381166000908152600b6020526040902054610c115760405162461bcd60e51b81526004016102c89061309a565b6000610c1c600a5490565b610c269047613048565b90506000610c538383610c4e866001600160a01b03166000908152600c602052604090205490565b611b3f565b905080600003610c755760405162461bcd60e51b81526004016102c8906130e0565b6001600160a01b0383166000908152600c602052604081208054839290610c9d908490613048565b9250508190555080600a6000828254610cb69190613048565b90915550610cc690508382611b87565b604080516001600160a01b0385168152602081018390527fdf20fd1e76bc69d672e4814fafb2c449bba3a5369d8359adf9e05e6fde87b056910160405180910390a1505050565b610b9a838383611ca0565b6000546001600160a01b03163314610d425760405162461bcd60e51b81526004016102c890612ffd565b806003811115610d5457610d54612fbf565b6014805460ff19166001836003811115610d7057610d70612fbf565b021790555050565b6000546001600160a01b03163314610da25760405162461bcd60e51b81526004016102c890612ffd565b610daa611e9d565b565b610b9a83838360405180602001604052806000815250611823565b6000546001600160a01b03163314610df15760405162461bcd60e51b81526004016102c890612ffd565b601855565b6001600160a01b0381166000908152600b6020526040902054610e2b5760405162461bcd60e51b81526004016102c89061309a565b6001600160a01b0382166000908152600e60205260408120546040516370a0823160e01b81523060048201526001600160a01b038516906370a0823190602401602060405180830381865afa158015610e88573d6000803e3d6000fd5b505050506040513d601f19601f82011682018060405250810190610eac919061312b565b610eb69190613048565b90506000610eef8383610c4e87876001600160a01b039182166000908152600f6020908152604080832093909416825291909152205490565b905080600003610f115760405162461bcd60e51b81526004016102c8906130e0565b6001600160a01b038085166000908152600f6020908152604080832093871683529290529081208054839290610f48908490613048565b90915550506001600160a01b0384166000908152600e602052604081208054839290610f75908490613048565b90915550610f869050848483611f3a565b604080516001600160a01b038581168252602082018490528616917f3be5b7a71e84ed12875d241991c70855ac5817d847039e17a9d895c1ceb0f18a910160405180910390a250505050565b60005b601554811015610ffd57610feb61044482611492565b80610ff581613144565b915050610fd5565b50565b32331461104f5760405162461bcd60e51b815260206004820152601e60248201527f5468652063616c6c657220697320616e6f7468657220636f6e7472616374000060448201526064016102c8565b818160006011547f68e83002b91b0fd96d4df3566b5122221117e3ec6c2468fda594f6491f89b1c93360405160200161109b9291909182526001600160a01b0316602082015260400190565b604051602081830303815290604052805190602001206040516020016110d892919061190160f01b81526002810192909252602282015260420190565b604051602081830303815290604052805190602001209050600061113484848080601f0160208091040260200160405190810160405280939291908181526020018383808284376000920191909152508693925050611f8c9050565b6010549091506001600160a01b038083169116146111865760405162461bcd60e51b815260206004820152600f60248201526e139bdd081dda1a5d195b1a5cdd1959608a1b60448201526064016102c8565b60185460008190036111c75760405162461bcd60e51b815260206004820152600a6024820152690507269636520697320360b41b60448201526064016102c8565b600160145460ff1660038111156111e0576111e0612fbf565b1461122d5760405162461bcd60e51b815260206004820152601960248201527f57686974656c6973742053616c65206e6f74206163746976650000000000000060448201526064016102c8565b60175461123b906001613048565b33600090815260196020526040902054611256908a90613048565b1061129e5760405162461bcd60e51b815260206004820152601860248201527713585e081b5a5b9d08185b5bdd5b9d08195e18d95959195960421b60448201526064016102c8565b6016546112ad906103e861315d565b6112b8906001613048565b886112ca600254600154036000190190565b6112d49190613048565b106113175760405162461bcd60e51b815260206004820152601360248201527213585e081cdd5c1c1b1e48195e18d959591959606a1b60448201526064016102c8565b6113218189611fb0565b3410156113635760405162461bcd60e51b815260206004820152601060248201526f4e6f7420656e6f7567682066756e647360801b60448201526064016102c8565b61136d8989611a90565b33600090815260196020526040812080548a929061138c908490613048565b9091555050505050505050505050565b60006113a782611fbc565b5192915050565b6000546001600160a01b031633146113d85760405162461bcd60e51b81526004016102c890612ffd565b601655565b60006001600160a01b038216611406576040516323d3ad8160e21b815260040160405180910390fd5b506001600160a01b031660009081526006602052604090205467ffffffffffffffff1690565b6000546001600160a01b031633146114565760405162461bcd60e51b81526004016102c890612ffd565b610daa60006120e5565b6000546001600160a01b0316331461148a5760405162461bcd60e51b81526004016102c890612ffd565b610daa612135565b6000600d82815481106114a7576114a7613174565b6000918252602090912001546001600160a01b031692915050565b606060048054610a4b90613060565b6000546001600160a01b031633146114fb5760405162461bcd60e51b81526004016102c890612ffd565b805161150e906012906020840190612b7d565b507f23c8c9488efebfd474e85a7956de6f39b17c7ab88502d42a623db2d8e382bbaa601260405161153f919061318a565b60405180910390a150565b336001600160a01b038316036115735760405163b06307db60e01b815260040160405180910390fd5b3360008181526008602090815260408083206001600160a01b03871680855290835292819020805460ff191686151590811790915590519081529192917f17307eab39ab6107e8899845ad3d59bd9653f200f220920489ca2b5937696c31910160405180910390a35050565b32331461162e5760405162461bcd60e51b815260206004820152601e60248201527f5468652063616c6c657220697320616e6f7468657220636f6e7472616374000060448201526064016102c8565b601854600081900361166f5760405162461bcd60e51b815260206004820152600a6024820152690507269636520697320360b41b60448201526064016102c8565b600160145460ff16600381111561168857611688612fbf565b116116ce5760405162461bcd60e51b81526020600482015260166024820152755075626c69632053616c65206e6f742061637469766560501b60448201526064016102c8565b6017546116dc906001613048565b82106117255760405162461bcd60e51b815260206004820152601860248201527713585e081b5a5b9d08185b5bdd5b9d08195e18d95959195960421b60448201526064016102c8565b601654611734906103e861315d565b61173f906001613048565b82611751600254600154036000190190565b61175b9190613048565b1061179e5760405162461bcd60e51b815260206004820152601360248201527213585e081cdd5c1c1b1e48195e18d959591959606a1b60448201526064016102c8565b6117a88183611fb0565b3410156117ea5760405162461bcd60e51b815260206004820152601060248201526f4e6f7420656e6f7567682066756e647360801b60448201526064016102c8565b610b9a8383611a90565b6000546001600160a01b0316331461181e5760405162461bcd60e51b81526004016102c890612ffd565b601755565b61182e848484611ca0565b6001600160a01b0383163b15158015611850575061184e848484846121bd565b155b1561186e576040516368d2bf6b60e11b815260040160405180910390fd5b50505050565b606061187f82611aaa565b6118cb5760405162461bcd60e51b815260206004820152601f60248201527f55524920717565727920666f72206e6f6e6578697374656e7420746f6b656e0060448201526064016102c8565b600360145460ff1660038111156118e4576118e4612fbf565b101561197c57601380546118f790613060565b80601f016020809104026020016040519081016040528092919081815260200182805461192390613060565b80156119705780601f1061194557610100808354040283529160200191611970565b820191906000526020600020905b81548152906001019060200180831161195357829003601f168201915b50505050509050919050565b60006012805461198b90613060565b9050116119a75760405180602001604052806000815250610947565b60126119b2836122a9565b6040516020016119c392919061320f565b60405160208183030381529060405292915050565b606060405180606001604052806036815260200161339360369139905090565b6000546001600160a01b03163314611a225760405162461bcd60e51b81526004016102c890612ffd565b6001600160a01b038116611a875760405162461bcd60e51b815260206004820152602660248201527f4f776e61626c653a206e6577206f776e657220697320746865207a65726f206160448201526564647265737360d01b60648201526084016102c8565b610ffd816120e5565b6109ec8282604051806020016040528060008152506123aa565b600081600111158015611abe575060015482105b8015610947575050600090815260056020526040902054600160e01b900460ff161590565b60008281526007602052604080822080546001600160a01b0319166001600160a01b0387811691821790925591518593918516917f8c5be1e5ebec7d5bd14f71427d1e84f3dd0314c0f7b2291e5b200ac8c7c3b92591a4505050565b6009546001600160a01b0384166000908152600b602052604081205490918391611b6990866132a2565b611b7391906132d7565b611b7d919061315d565b90505b9392505050565b80471015611bd75760405162461bcd60e51b815260206004820152601d60248201527f416464726573733a20696e73756666696369656e742062616c616e636500000060448201526064016102c8565b6000826001600160a01b03168260405160006040518083038185875af1925050503d8060008114611c24576040519150601f19603f3d011682016040523d82523d6000602084013e611c29565b606091505b5050905080610b9a5760405162461bcd60e51b815260206004820152603a60248201527f416464726573733a20756e61626c6520746f2073656e642076616c75652c207260448201527f6563697069656e74206d6179206861766520726576657274656400000000000060648201526084016102c8565b6000611cab82611fbc565b9050836001600160a01b031681600001516001600160a01b031614611ce25760405162a1148160e81b815260040160405180910390fd5b6000336001600160a01b0386161480611d005750611d0085336108ad565b80611d1b575033611d1084610ace565b6001600160a01b0316145b905080611d3b57604051632ce44b5f60e11b815260040160405180910390fd5b6001600160a01b038416611d6257604051633a954ecd60e21b815260040160405180910390fd5b611d6f85858560016123b7565b611d7b60008487611ae3565b6001600160a01b038581166000908152600660209081526040808320805467ffffffffffffffff1980821667ffffffffffffffff92831660001901831617909255898616808652838620805493841693831660019081018416949094179055898652600590945282852080546001600160e01b031916909417600160a01b42909216919091021783558701808452922080549193909116611e51576001548214611e51578054602086015167ffffffffffffffff16600160a01b026001600160e01b03199091166001600160a01b038a16171781555b50505082846001600160a01b0316866001600160a01b03167fddf252ad1be2c89b69c2b068fc378daa952ba7f163c4a11628f55a4df523b3ef60405160405180910390a45b5050505050565b600054600160a01b900460ff16611eed5760405162461bcd60e51b815260206004820152601460248201527314185d5cd8589b194e881b9bdd081c185d5cd95960621b60448201526064016102c8565b6000805460ff60a01b191690557f5db9ee0a495bf2e6ff9c91a7834c1ba4fdd244a5e8aa4e537bd38aeae4b073aa335b6040516001600160a01b03909116815260200160405180910390a1565b604080516001600160a01b038416602482015260448082018490528251808303909101815260649091019091526020810180516001600160e01b031663a9059cbb60e01b179052610b9a908490612409565b6000806000611f9b85856124db565b91509150611fa881612549565b509392505050565b6000611b8082846132a2565b60408051606081018252600080825260208201819052918101919091528180600111158015611fec575060015481105b156120cc57600081815260056020908152604091829020825160608101845290546001600160a01b0381168252600160a01b810467ffffffffffffffff1692820192909252600160e01b90910460ff161515918101829052906120ca5780516001600160a01b031615612060579392505050565b5060001901600081815260056020908152604091829020825160608101845290546001600160a01b038116808352600160a01b820467ffffffffffffffff1693830193909352600160e01b900460ff16151592810192909252156120c5579392505050565b612060565b505b604051636f96cda160e11b815260040160405180910390fd5b600080546001600160a01b038381166001600160a01b0319831681178455604051919092169283917f8be0079c531659141344cd1fd0a4f28419497f9722a3daafe3b4186f6b6457e09190a35050565b600054600160a01b900460ff16156121825760405162461bcd60e51b815260206004820152601060248201526f14185d5cd8589b194e881c185d5cd95960821b60448201526064016102c8565b6000805460ff60a01b1916600160a01b1790557f62e78cea01bee320cd4e420270b5ea74000d11b0c9f74754ebdbfc544b05a258611f1d3390565b604051630a85bd0160e11b81526000906001600160a01b0385169063150b7a02906121f29033908990889088906004016132eb565b6020604051808303816000875af192505050801561222d575060408051601f3d908101601f1916820190925261222a91810190613328565b60015b61228b573d80801561225b576040519150601f19603f3d011682016040523d82523d6000602084013e612260565b606091505b508051600003612283576040516368d2bf6b60e11b815260040160405180910390fd5b805181602001fd5b6001600160e01b031916630a85bd0160e11b1490505b949350505050565b6060816000036122d05750506040805180820190915260018152600360fc1b602082015290565b8160005b81156122fa57806122e481613144565b91506122f39050600a836132d7565b91506122d4565b60008167ffffffffffffffff81111561231557612315612d2b565b6040519080825280601f01601f19166020018201604052801561233f576020820181803683370190505b5090505b84156122a15761235460018361315d565b9150612361600a86613345565b61236c906030613048565b60f81b81838151811061238157612381613174565b60200101906001600160f81b031916908160001a9053506123a3600a866132d7565b9450612343565b610b9a83838360016126ff565b600054600160a01b900460ff16156124045760405162461bcd60e51b815260206004820152601060248201526f14185d5cd8589b194e881c185d5cd95960821b60448201526064016102c8565b61186e565b600061245e826040518060400160405280602081526020017f5361666545524332303a206c6f772d6c6576656c2063616c6c206661696c6564815250856001600160a01b03166128de9092919063ffffffff16565b805190915015610b9a578080602001905181019061247c9190613359565b610b9a5760405162461bcd60e51b815260206004820152602a60248201527f5361666545524332303a204552433230206f7065726174696f6e20646964206e6044820152691bdd081cdd58d8d9595960b21b60648201526084016102c8565b60008082516041036125115760208301516040840151606085015160001a612505878285856128ed565b94509450505050612542565b825160400361253a576020830151604084015161252f8683836129da565b935093505050612542565b506000905060025b9250929050565b600081600481111561255d5761255d612fbf565b036125655750565b600181600481111561257957612579612fbf565b036125c65760405162461bcd60e51b815260206004820152601860248201527f45434453413a20696e76616c6964207369676e6174757265000000000000000060448201526064016102c8565b60028160048111156125da576125da612fbf565b036126275760405162461bcd60e51b815260206004820152601f60248201527f45434453413a20696e76616c6964207369676e6174757265206c656e6774680060448201526064016102c8565b600381600481111561263b5761263b612fbf565b036126935760405162461bcd60e51b815260206004820152602260248201527f45434453413a20696e76616c6964207369676e6174757265202773272076616c604482015261756560f01b60648201526084016102c8565b60048160048111156126a7576126a7612fbf565b03610ffd5760405162461bcd60e51b815260206004820152602260248201527f45434453413a20696e76616c6964207369676e6174757265202776272076616c604482015261756560f01b60648201526084016102c8565b6001546001600160a01b03851661272857604051622e076360e81b815260040160405180910390fd5b836000036127495760405163b562e8dd60e01b815260040160405180910390fd5b61275660008683876123b7565b6001600160a01b038516600081815260066020908152604080832080546fffffffffffffffffffffffffffffffff19811667ffffffffffffffff8083168c0181169182176801000000000000000067ffffffffffffffff1990941690921783900481168c01811690920217909155858452600590925290912080546001600160e01b031916909217600160a01b42909216919091021790558080850183801561280857506001600160a01b0387163b15155b15612890575b60405182906001600160a01b038916906000907fddf252ad1be2c89b69c2b068fc378daa952ba7f163c4a11628f55a4df523b3ef908290a461285960008884806001019550886121bd565b612876576040516368d2bf6b60e11b815260040160405180910390fd5b80820361280e57826001541461288b57600080fd5b6128d5565b5b6040516001830192906001600160a01b038916906000907fddf252ad1be2c89b69c2b068fc378daa952ba7f163c4a11628f55a4df523b3ef908290a4808203612891575b50600155611e96565b6060611b7d8484600085612a13565b6000807f7fffffffffffffffffffffffffffffff5d576e7357a4501ddfe92f46681b20a083111561292457506000905060036129d1565b8460ff16601b1415801561293c57508460ff16601c14155b1561294d57506000905060046129d1565b6040805160008082526020820180845289905260ff881692820192909252606081018690526080810185905260019060a0016020604051602081039080840390855afa1580156129a1573d6000803e3d6000fd5b5050604051601f1901519150506001600160a01b0381166129ca576000600192509250506129d1565b9150600090505b94509492505050565b6000806001600160ff1b038316816129f760ff86901c601b613048565b9050612a05878288856128ed565b935093505050935093915050565b606082471015612a745760405162461bcd60e51b815260206004820152602660248201527f416464726573733a20696e73756666696369656e742062616c616e636520666f6044820152651c8818d85b1b60d21b60648201526084016102c8565b6001600160a01b0385163b612acb5760405162461bcd60e51b815260206004820152601d60248201527f416464726573733a2063616c6c20746f206e6f6e2d636f6e747261637400000060448201526064016102c8565b600080866001600160a01b03168587604051612ae79190613376565b60006040518083038185875af1925050503d8060008114612b24576040519150601f19603f3d011682016040523d82523d6000602084013e612b29565b606091505b5091509150612b39828286612b44565b979650505050505050565b60608315612b53575081611b80565b825115612b635782518084602001fd5b8160405162461bcd60e51b81526004016102c89190612cff565b828054612b8990613060565b90600052602060002090601f016020900481019282612bab5760008555612bf1565b82601f10612bc457805160ff1916838001178555612bf1565b82800160010185558215612bf1579182015b82811115612bf1578251825591602001919060010190612bd6565b50612bfd929150612c01565b5090565b5b80821115612bfd5760008155600101612c02565b6001600160e01b031981168114610ffd57600080fd5b600060208284031215612c3e57600080fd5b8135611b8081612c16565b6001600160a01b0381168114610ffd57600080fd5b60008060408385031215612c7157600080fd5b8235612c7c81612c49565b946020939093013593505050565b600060208284031215612c9c57600080fd5b8135611b8081612c49565b60005b83811015612cc2578181015183820152602001612caa565b8381111561186e5750506000910152565b60008151808452612ceb816020860160208601612ca7565b601f01601f19169290920160200192915050565b602081526000611b806020830184612cd3565b600060208284031215612d2457600080fd5b5035919050565b634e487b7160e01b600052604160045260246000fd5b600067ffffffffffffffff80841115612d5c57612d5c612d2b565b604051601f8501601f19908116603f01168101908282118183101715612d8457612d84612d2b565b81604052809350858152868686011115612d9d57600080fd5b858560208301376000602087830101525050509392505050565b600060208284031215612dc957600080fd5b813567ffffffffffffffff811115612de057600080fd5b8201601f81018413612df157600080fd5b6122a184823560208401612d41565b600080600060608486031215612e1557600080fd5b8335612e2081612c49565b92506020840135612e3081612c49565b929592945050506040919091013590565b60008060408385031215612e5457600080fd5b8235612e5f81612c49565b91506020830135612e6f81612c49565b809150509250929050565b60008060008060608587031215612e9057600080fd5b8435612e9b81612c49565b935060208501359250604085013567ffffffffffffffff80821115612ebf57600080fd5b818701915087601f830112612ed357600080fd5b813581811115612ee257600080fd5b886020828501011115612ef457600080fd5b95989497505060200194505050565b8015158114610ffd57600080fd5b60008060408385031215612f2457600080fd5b8235612f2f81612c49565b91506020830135612e6f81612f03565b60008060008060808587031215612f5557600080fd5b8435612f6081612c49565b93506020850135612f7081612c49565b925060408501359150606085013567ffffffffffffffff811115612f9357600080fd5b8501601f81018713612fa457600080fd5b612fb387823560208401612d41565b91505092959194509250565b634e487b7160e01b600052602160045260246000fd5b6020810160048310612ff757634e487b7160e01b600052602160045260246000fd5b91905290565b6020808252818101527f4f776e61626c653a2063616c6c6572206973206e6f7420746865206f776e6572604082015260600190565b634e487b7160e01b600052601160045260246000fd5b6000821982111561305b5761305b613032565b500190565b600181811c9082168061307457607f821691505b60208210810361309457634e487b7160e01b600052602260045260246000fd5b50919050565b60208082526026908201527f5061796d656e7453706c69747465723a206163636f756e7420686173206e6f2060408201526573686172657360d01b606082015260800190565b6020808252602b908201527f5061796d656e7453706c69747465723a206163636f756e74206973206e6f742060408201526a191d59481c185e5b595b9d60aa1b606082015260800190565b60006020828403121561313d57600080fd5b5051919050565b60006001820161315657613156613032565b5060010190565b60008282101561316f5761316f613032565b500390565b634e487b7160e01b600052603260045260246000fd5b600060208083526000845461319e81613060565b808487015260406001808416600081146131bf57600181146131d357613201565b60ff19851689840152606089019550613201565b896000528660002060005b858110156131f95781548b82018601529083019088016131de565b8a0184019650505b509398975050505050505050565b600080845461321d81613060565b60018281168015613235576001811461324657613275565b60ff19841687528287019450613275565b8860005260208060002060005b8581101561326c5781548a820152908401908201613253565b50505082870194505b505050508351613289818360208801612ca7565b64173539b7b760d91b9101908152600501949350505050565b60008160001904831182151516156132bc576132bc613032565b500290565b634e487b7160e01b600052601260045260246000fd5b6000826132e6576132e66132c1565b500490565b6001600160a01b038581168252841660208201526040810183905260806060820181905260009061331e90830184612cd3565b9695505050505050565b60006020828403121561333a57600080fd5b8151611b8081612c16565b600082613354576133546132c1565b500690565b60006020828403121561336b57600080fd5b8151611b8081612f03565b60008251613388818460208701612ca7565b919091019291505056fe697066733a2f2f516d627654394c34374d56756d3769636e6f4362377350505931376d774251787a59694748516268794a765048362fa2646970667358221220caf5f9100c70c6888f3d6c3b604d7524f4df06f4177aafa619f35f2bcf38c80d64736f6c634300080d0033",
  "linkReferences": {},
  "deployedLinkReferences": {}
}