{
  "_format": "hh-sol-artifact-1",
  "contractName": "MagicMondrian",
  "sourceName": "contracts/MagicMondrian.sol",
  "abi": [
    {
      "inputs": [
        {
          "internalType": "address",
          "name": "_paymentSplitter",
          "type": "address"
        },
        {
          "internalType": "address",
          "name": "_signerAddress",
          "type": "address"
        },
        {
          "internalType": "string",
          "name": "_hiddenURI",
          "type": "string"
        }
      ],
      "stateMutability": "nonpayable",
      "type": "constructor"
    },
    {
      "inputs": [],
      "name": "ApprovalCallerNotOwnerNorApproved",
      "type": "error"
    },
    {
      "inputs": [],
      "name": "ApprovalQueryForNonexistentToken",
      "type": "error"
    },
    {
      "inputs": [],
      "name": "ApprovalToCurrentOwner",
      "type": "error"
    },
    {
      "inputs": [],
      "name": "ApproveToCaller",
      "type": "error"
    },
    {
      "inputs": [],
      "name": "BalanceQueryForZeroAddress",
      "type": "error"
    },
    {
      "inputs": [],
      "name": "MintToZeroAddress",
      "type": "error"
    },
    {
      "inputs": [],
      "name": "MintZeroQuantity",
      "type": "error"
    },
    {
      "inputs": [],
      "name": "OwnerQueryForNonexistentToken",
      "type": "error"
    },
    {
      "inputs": [],
      "name": "TransferCallerNotOwnerNorApproved",
      "type": "error"
    },
    {
      "inputs": [],
      "name": "TransferFromIncorrectOwner",
      "type": "error"
    },
    {
      "inputs": [],
      "name": "TransferToNonERC721ReceiverImplementer",
      "type": "error"
    },
    {
      "inputs": [],
      "name": "TransferToZeroAddress",
      "type": "error"
    },
    {
      "anonymous": false,
      "inputs": [
        {
          "indexed": true,
          "internalType": "address",
          "name": "owner",
          "type": "address"
        },
        {
          "indexed": true,
          "internalType": "address",
          "name": "approved",
          "type": "address"
        },
        {
          "indexed": true,
          "internalType": "uint256",
          "name": "tokenId",
          "type": "uint256"
        }
      ],
      "name": "Approval",
      "type": "event"
    },
    {
      "anonymous": false,
      "inputs": [
        {
          "indexed": true,
          "internalType": "address",
          "name": "owner",
          "type": "address"
        },
        {
          "indexed": true,
          "internalType": "address",
          "name": "operator",
          "type": "address"
        },
        {
          "indexed": false,
          "internalType": "bool",
          "name": "approved",
          "type": "bool"
        }
      ],
      "name": "ApprovalForAll",
      "type": "event"
    },
    {
      "anonymous": false,
      "inputs": [
        {
          "indexed": true,
          "internalType": "address",
          "name": "previousOwner",
          "type": "address"
        },
        {
          "indexed": true,
          "internalType": "address",
          "name": "newOwner",
          "type": "address"
        }
      ],
      "name": "OwnershipTransferred",
      "type": "event"
    },
    {
      "anonymous": false,
      "inputs": [
        {
          "indexed": false,
          "internalType": "address",
          "name": "account",
          "type": "address"
        }
      ],
      "name": "Paused",
      "type": "event"
    },
    {
      "anonymous": false,
      "inputs": [
        {
          "indexed": false,
          "internalType": "string",
          "name": "baseURI",
          "type": "string"
        }
      ],
      "name": "SetBaseURI",
      "type": "event"
    },
    {
      "anonymous": false,
      "inputs": [
        {
          "indexed": true,
          "internalType": "address",
          "name": "from",
          "type": "address"
        },
        {
          "indexed": true,
          "internalType": "address",
          "name": "to",
          "type": "address"
        },
        {
          "indexed": true,
          "internalType": "uint256",
          "name": "tokenId",
          "type": "uint256"
        }
      ],
      "name": "Transfer",
      "type": "event"
    },
    {
      "anonymous": false,
      "inputs": [
        {
          "indexed": false,
          "internalType": "address",
          "name": "account",
          "type": "address"
        }
      ],
      "name": "Unpaused",
      "type": "event"
    },
    {
      "inputs": [],
      "name": "MAX_SUPPLY",
      "outputs": [
        {
          "internalType": "uint256",
          "name": "",
          "type": "uint256"
        }
      ],
      "stateMutability": "view",
      "type": "function"
    },
    {
      "inputs": [
        {
          "internalType": "address",
          "name": "_to",
          "type": "address"
        },
        {
          "internalType": "uint256",
          "name": "_quantity",
          "type": "uint256"
        }
      ],
      "name": "airDrop",
      "outputs": [],
      "stateMutability": "nonpayable",
      "type": "function"
    },
    {
      "inputs": [
        {
          "internalType": "address",
          "name": "",
          "type": "address"
        }
      ],
      "name": "amountNFTsperWalletWhitelistSale",
      "outputs": [
        {
          "internalType": "uint256",
          "name": "",
          "type": "uint256"
        }
      ],
      "stateMutability": "view",
      "type": "function"
    },
    {
      "inputs": [
        {
          "internalType": "address",
          "name": "to",
          "type": "address"
        },
        {
          "internalType": "uint256",
          "name": "tokenId",
          "type": "uint256"
        }
      ],
      "name": "approve",
      "outputs": [],
      "stateMutability": "nonpayable",
      "type": "function"
    },
    {
      "inputs": [
        {
          "internalType": "address",
          "name": "owner",
          "type": "address"
        }
      ],
      "name": "balanceOf",
      "outputs": [
        {
          "internalType": "uint256",
          "name": "",
          "type": "uint256"
        }
      ],
      "stateMutability": "view",
      "type": "function"
    },
    {
      "inputs": [],
      "name": "contractURI",
      "outputs": [
        {
          "internalType": "string",
          "name": "",
          "type": "string"
        }
      ],
      "stateMutability": "pure",
      "type": "function"
    },
    {
      "inputs": [],
      "name": "cost",
      "outputs": [
        {
          "internalType": "uint256",
          "name": "",
          "type": "uint256"
        }
      ],
      "stateMutability": "view",
      "type": "function"
    },
    {
      "inputs": [
        {
          "internalType": "uint256",
          "name": "tokenId",
          "type": "uint256"
        }
      ],
      "name": "getApproved",
      "outputs": [
        {
          "internalType": "address",
          "name": "",
          "type": "address"
        }
      ],
      "stateMutability": "view",
      "type": "function"
    },
    {
      "inputs": [
        {
          "internalType": "address",
          "name": "",
          "type": "address"
        }
      ],
      "name": "hasPrintedOnce",
      "outputs": [
        {
          "internalType": "bool",
          "name": "",
          "type": "bool"
        }
      ],
      "stateMutability": "view",
      "type": "function"
    },
    {
      "inputs": [
        {
          "internalType": "address",
          "name": "owner",
          "type": "address"
        },
        {
          "internalType": "address",
          "name": "operator",
          "type": "address"
        }
      ],
      "name": "isApprovedForAll",
      "outputs": [
        {
          "internalType": "bool",
          "name": "",
          "type": "bool"
        }
      ],
      "stateMutability": "view",
      "type": "function"
    },
    {
      "inputs": [],
      "name": "maxMint",
      "outputs": [
        {
          "internalType": "uint256",
          "name": "",
          "type": "uint256"
        }
      ],
      "stateMutability": "view",
      "type": "function"
    },
    {
      "inputs": [],
      "name": "maxReserved",
      "outputs": [
        {
          "internalType": "uint256",
          "name": "",
          "type": "uint256"
        }
      ],
      "stateMutability": "view",
      "type": "function"
    },
    {
      "inputs": [],
      "name": "name",
      "outputs": [
        {
          "internalType": "string",
          "name": "",
          "type": "string"
        }
      ],
      "stateMutability": "view",
      "type": "function"
    },
    {
      "inputs": [],
      "name": "owner",
      "outputs": [
        {
          "internalType": "address",
          "name": "",
          "type": "address"
        }
      ],
      "stateMutability": "view",
      "type": "function"
    },
    {
      "inputs": [
        {
          "internalType": "uint256",
          "name": "tokenId",
          "type": "uint256"
        }
      ],
      "name": "ownerOf",
      "outputs": [
        {
          "internalType": "address",
          "name": "",
          "type": "address"
        }
      ],
      "stateMutability": "view",
      "type": "function"
    },
    {
      "inputs": [],
      "name": "pause",
      "outputs": [],
      "stateMutability": "nonpayable",
      "type": "function"
    },
    {
      "inputs": [],
      "name": "paused",
      "outputs": [
        {
          "internalType": "bool",
          "name": "",
          "type": "bool"
        }
      ],
      "stateMutability": "view",
      "type": "function"
    },
    {
      "inputs": [],
      "name": "print",
      "outputs": [],
      "stateMutability": "payable",
      "type": "function"
    },
    {
      "inputs": [],
      "name": "printPrice",
      "outputs": [
        {
          "internalType": "uint256",
          "name": "",
          "type": "uint256"
        }
      ],
      "stateMutability": "view",
      "type": "function"
    },
    {
      "inputs": [
        {
          "internalType": "address",
          "name": "_account",
          "type": "address"
        },
        {
          "internalType": "uint256",
          "name": "_quantity",
          "type": "uint256"
        }
      ],
      "name": "publicSaleMint",
      "outputs": [],
      "stateMutability": "payable",
      "type": "function"
    },
    {
      "inputs": [],
      "name": "renounceOwnership",
      "outputs": [],
      "stateMutability": "nonpayable",
      "type": "function"
    },
    {
      "inputs": [
        {
          "internalType": "address",
          "name": "from",
          "type": "address"
        },
        {
          "internalType": "address",
          "name": "to",
          "type": "address"
        },
        {
          "internalType": "uint256",
          "name": "tokenId",
          "type": "uint256"
        }
      ],
      "name": "safeTransferFrom",
      "outputs": [],
      "stateMutability": "nonpayable",
      "type": "function"
    },
    {
      "inputs": [
        {
          "internalType": "address",
          "name": "from",
          "type": "address"
        },
        {
          "internalType": "address",
          "name": "to",
          "type": "address"
        },
        {
          "internalType": "uint256",
          "name": "tokenId",
          "type": "uint256"
        },
        {
          "internalType": "bytes",
          "name": "_data",
          "type": "bytes"
        }
      ],
      "name": "safeTransferFrom",
      "outputs": [],
      "stateMutability": "nonpayable",
      "type": "function"
    },
    {
      "inputs": [],
      "name": "sellingPhase",
      "outputs": [
        {
          "internalType": "enum MagicMondrian.Phase",
          "name": "",
          "type": "uint8"
        }
      ],
      "stateMutability": "view",
      "type": "function"
    },
    {
      "inputs": [
        {
          "internalType": "address",
          "name": "operator",
          "type": "address"
        },
        {
          "internalType": "bool",
          "name": "approved",
          "type": "bool"
        }
      ],
      "name": "setApprovalForAll",
      "outputs": [],
      "stateMutability": "nonpayable",
      "type": "function"
    },
    {
      "inputs": [
        {
          "internalType": "string",
          "name": "_baseURI",
          "type": "string"
        }
      ],
      "name": "setBaseUri",
      "outputs": [],
      "stateMutability": "nonpayable",
      "type": "function"
    },
    {
      "inputs": [
        {
          "internalType": "uint256",
          "name": "_cost",
          "type": "uint256"
        }
      ],
      "name": "setCost",
      "outputs": [],
      "stateMutability": "nonpayable",
      "type": "function"
    },
    {
      "inputs": [
        {
          "internalType": "string",
          "name": "_hiddenUri",
          "type": "string"
        }
      ],
      "name": "setHiddenUri",
      "outputs": [],
      "stateMutability": "nonpayable",
      "type": "function"
    },
    {
      "inputs": [
        {
          "internalType": "uint256",
          "name": "_maxMintAmountPerTx",
          "type": "uint256"
        }
      ],
      "name": "setMaxMintAmountPerTx",
      "outputs": [],
      "stateMutability": "nonpayable",
      "type": "function"
    },
    {
      "inputs": [
        {
          "internalType": "uint256",
          "name": "_maxReserved",
          "type": "uint256"
        }
      ],
      "name": "setMaxReserved",
      "outputs": [],
      "stateMutability": "nonpayable",
      "type": "function"
    },
    {
      "inputs": [
        {
          "internalType": "uint256",
          "name": "_phase",
          "type": "uint256"
        }
      ],
      "name": "setPhase",
      "outputs": [],
      "stateMutability": "nonpayable",
      "type": "function"
    },
    {
      "inputs": [
        {
          "internalType": "address",
          "name": "_signerAddress",
          "type": "address"
        }
      ],
      "name": "setSignerAddress",
      "outputs": [],
      "stateMutability": "nonpayable",
      "type": "function"
    },
    {
      "inputs": [
        {
          "internalType": "bytes4",
          "name": "interfaceId",
          "type": "bytes4"
        }
      ],
      "name": "supportsInterface",
      "outputs": [
        {
          "internalType": "bool",
          "name": "",
          "type": "bool"
        }
      ],
      "stateMutability": "view",
      "type": "function"
    },
    {
      "inputs": [],
      "name": "symbol",
      "outputs": [
        {
          "internalType": "string",
          "name": "",
          "type": "string"
        }
      ],
      "stateMutability": "view",
      "type": "function"
    },
    {
      "inputs": [
        {
          "internalType": "uint256",
          "name": "_tokenId",
          "type": "uint256"
        }
      ],
      "name": "tokenURI",
      "outputs": [
        {
          "internalType": "string",
          "name": "",
          "type": "string"
        }
      ],
      "stateMutability": "view",
      "type": "function"
    },
    {
      "inputs": [],
      "name": "totalSupply",
      "outputs": [
        {
          "internalType": "uint256",
          "name": "",
          "type": "uint256"
        }
      ],
      "stateMutability": "view",
      "type": "function"
    },
    {
      "inputs": [
        {
          "internalType": "address",
          "name": "from",
          "type": "address"
        },
        {
          "internalType": "address",
          "name": "to",
          "type": "address"
        },
        {
          "internalType": "uint256",
          "name": "tokenId",
          "type": "uint256"
        }
      ],
      "name": "transferFrom",
      "outputs": [],
      "stateMutability": "nonpayable",
      "type": "function"
    },
    {
      "inputs": [
        {
          "internalType": "address",
          "name": "newOwner",
          "type": "address"
        }
      ],
      "name": "transferOwnership",
      "outputs": [],
      "stateMutability": "nonpayable",
      "type": "function"
    },
    {
      "inputs": [],
      "name": "unpause",
      "outputs": [],
      "stateMutability": "nonpayable",
      "type": "function"
    },
    {
      "inputs": [
        {
          "internalType": "address",
          "name": "_account",
          "type": "address"
        },
        {
          "internalType": "uint256",
          "name": "_quantity",
          "type": "uint256"
        },
        {
          "internalType": "bytes",
          "name": "_signature",
          "type": "bytes"
        }
      ],
      "name": "whitelistMint",
      "outputs": [],
      "stateMutability": "payable",
      "type": "function"
    },
    {
      "inputs": [],
      "name": "withdraw",
      "outputs": [],
      "stateMutability": "payable",
      "type": "function"
    },
    {
      "stateMutability": "payable",
      "type": "receive"
    }
  ],
  "bytecode": "0x60806040526032600f55606460105565e35fa931a000601155655af3107a40006012553480156200002f57600080fd5b506040516200309138038062003091833981016040819052620000529162000342565b816040518060400160405280600e81526020016d26b0b3b4b19026b7b7323934b0b760911b8152506040518060400160405280600e81526020016d26b0b3b4b19026b7b7323934b0b760911b815250604051806040016040528060048152602001634d414d4f60e01b815250620000d8620000d26200021560201b60201c565b62000219565b6000805460ff60a01b19169055600180558151620000fe90600490602085019062000269565b5080516200011490600590602084019062000269565b5060016002555050600a80546001600160a01b0319166001600160a01b038416179055805160208083019190912060408051808201825260018152603160f81b9084015280517f8b73c3c69bb8fe3d512ecc4cf759cc79239f7b179b0ffacaa9a75d522b39400f938101939093528201527fc89efdaa54c0f20c7adf612882df0950f5a951637e0307cdcb4c672f298b8bc660608201524660808201523060a082015260c00160408051601f198184030181529190528051602091820120600b558351620001eb9350600d92509084019062000269565b5050600e80546001600160a01b0319166001600160a01b0393909316929092179091555062000482565b3390565b600080546001600160a01b038381166001600160a01b0319831681178455604051919092169283917f8be0079c531659141344cd1fd0a4f28419497f9722a3daafe3b4186f6b6457e09190a35050565b828054620002779062000446565b90600052602060002090601f0160209004810192826200029b5760008555620002e6565b82601f10620002b657805160ff1916838001178555620002e6565b82800160010185558215620002e6579182015b82811115620002e6578251825591602001919060010190620002c9565b50620002f4929150620002f8565b5090565b5b80821115620002f45760008155600101620002f9565b80516001600160a01b03811681146200032757600080fd5b919050565b634e487b7160e01b600052604160045260246000fd5b6000806000606084860312156200035857600080fd5b62000363846200030f565b92506020620003748186016200030f565b60408601519093506001600160401b03808211156200039257600080fd5b818701915087601f830112620003a757600080fd5b815181811115620003bc57620003bc6200032c565b604051601f8201601f19908116603f01168101908382118183101715620003e757620003e76200032c565b816040528281528a868487010111156200040057600080fd5b600093505b8284101562000424578484018601518185018701529285019262000405565b82841115620004365760008684830101525b8096505050505050509250925092565b600181811c908216806200045b57607f821691505b6020821081036200047c57634e487b7160e01b600052602260045260246000fd5b50919050565b612bff80620004926000396000f3fe60806040526004361061024a5760003560e01c80635f2f179711610139578063a0bcfc7f116100b6578063b88d4fde1161007a578063b88d4fde146106a3578063c87b56dd146106c3578063dae55cb3146106e3578063e8a3d48514610711578063e985e9c514610726578063f2fde38b1461076f57600080fd5b8063a0bcfc7f1461061a578063a22cb4651461063a578063a9898fd91461065a578063ac5ae11b14610670578063b071401b1461068357600080fd5b80637501f741116100fd5780637501f7411461058f5780638456cb59146105a55780638da5cb5b146105ba57806395d89b41146105d857806399d13800146105ed57600080fd5b80635f2f1797146105045780636352211e1461051a5780636bee18bd1461053a57806370a082311461055a578063715018a61461057a57600080fd5b806323b872dd116101c757806342842e0e1161018b57806342842e0e1461046257806344a0d68a14610482578063594122b8146104a25780635c975abb146104d25780635ed222e3146104f157600080fd5b806323b872dd146103ef5780632cc826551461040f57806332cb6b0c1461042f5780633ccfd60b146104455780633f4ba83a1461044d57600080fd5b8063095ea7b31161020e578063095ea7b3146103655780631067fcc71461038557806313bdfacd146103a557806313faede6146103ad57806318160ddd146103d157600080fd5b806301ffc9a714610294578063045f7850146102c9578063046dc166146102eb57806306fdde031461030b578063081812fc1461032d57600080fd5b3661028f5760405162461bcd60e51b815260206004820152601060248201526f13db9b1e481a59881e5bdd481b5a5b9d60821b60448201526064015b60405180910390fd5b600080fd5b3480156102a057600080fd5b506102b46102af3660046124bd565b61078f565b60405190151581526020015b60405180910390f35b3480156102d557600080fd5b506102e96102e43660046124f6565b6107e1565b005b3480156102f757600080fd5b506102e9610306366004612520565b610884565b34801561031757600080fd5b506103206108d0565b6040516102c09190612593565b34801561033957600080fd5b5061034d6103483660046125a6565b610962565b6040516001600160a01b0390911681526020016102c0565b34801561037157600080fd5b506102e96103803660046124f6565b6109a6565b34801561039157600080fd5b506102e96103a036600461264b565b610a33565b6102e9610a70565b3480156103b957600080fd5b506103c360115481565b6040519081526020016102c0565b3480156103dd57600080fd5b506103c3600354600254036000190190565b3480156103fb57600080fd5b506102e961040a366004612694565b610b64565b34801561041b57600080fd5b506102e961042a3660046125a6565b610b6f565b34801561043b57600080fd5b506103c36103e881565b6102e9610bd5565b34801561045957600080fd5b506102e9610cc8565b34801561046e57600080fd5b506102e961047d366004612694565b610cfc565b34801561048e57600080fd5b506102e961049d3660046125a6565b610d17565b3480156104ae57600080fd5b506102b46104bd366004612520565b60146020526000908152604090205460ff1681565b3480156104de57600080fd5b50600054600160a01b900460ff166102b4565b6102e96104ff3660046126d0565b610d46565b34801561051057600080fd5b506103c360125481565b34801561052657600080fd5b5061034d6105353660046125a6565b611096565b34801561054657600080fd5b506102e96105553660046125a6565b6110a8565b34801561056657600080fd5b506103c3610575366004612520565b6110d7565b34801561058657600080fd5b506102e9611126565b34801561059b57600080fd5b506103c360105481565b3480156105b157600080fd5b506102e961115a565b3480156105c657600080fd5b506000546001600160a01b031661034d565b3480156105e457600080fd5b5061032061118c565b3480156105f957600080fd5b506103c3610608366004612520565b60136020526000908152604090205481565b34801561062657600080fd5b506102e961063536600461264b565b61119b565b34801561064657600080fd5b506102e9610655366004612757565b611214565b34801561066657600080fd5b506103c3600f5481565b6102e961067e3660046124f6565b6112a9565b34801561068f57600080fd5b506102e961069e3660046125a6565b611472565b3480156106af57600080fd5b506102e96106be366004612793565b6114a1565b3480156106cf57600080fd5b506103206106de3660046125a6565b6114f2565b3480156106ef57600080fd5b50600e5461070490600160a01b900460ff1681565b6040516102c09190612825565b34801561071d57600080fd5b5061032061165d565b34801561073257600080fd5b506102b461074136600461284d565b6001600160a01b03918216600090815260096020908152604080832093909416825291909152205460ff1690565b34801561077b57600080fd5b506102e961078a366004612520565b61167d565b60006001600160e01b031982166380ac58cd60e01b14806107c057506001600160e01b03198216635b5e139f60e01b145b806107db57506301ffc9a760e01b6001600160e01b03198316145b92915050565b6000546001600160a01b0316331461080b5760405162461bcd60e51b815260040161028690612880565b6108186103e860016128cb565b8161082a600354600254036000190190565b61083491906128cb565b106108765760405162461bcd60e51b815260206004820152601260248201527152656163686564206d617820537570706c7960701b6044820152606401610286565b6108808282611718565b5050565b6000546001600160a01b031633146108ae5760405162461bcd60e51b815260040161028690612880565b600a80546001600160a01b0319166001600160a01b0392909216919091179055565b6060600480546108df906128e3565b80601f016020809104026020016040519081016040528092919081815260200182805461090b906128e3565b80156109585780601f1061092d57610100808354040283529160200191610958565b820191906000526020600020905b81548152906001019060200180831161093b57829003601f168201915b5050505050905090565b600061096d82611732565b61098a576040516333d1c03960e21b815260040160405180910390fd5b506000908152600860205260409020546001600160a01b031690565b60006109b182611096565b9050806001600160a01b0316836001600160a01b0316036109e55760405163250fdee360e21b815260040160405180910390fd5b336001600160a01b03821614801590610a055750610a038133610741565b155b15610a23576040516367d9dca160e11b815260040160405180910390fd5b610a2e83838361176b565b505050565b6000546001600160a01b03163314610a5d5760405162461bcd60e51b815260040161028690612880565b805161088090600d90602084019061240e565b323314610a8f5760405162461bcd60e51b81526004016102869061291d565b3360009081526014602052604090205460ff1615610ae15760405162461bcd60e51b815260206004820152600f60248201526e105b1c9958591e481c1c9a5b9d1959608a1b6044820152606401610286565b601254341015610b035760405162461bcd60e51b815260040161028690612954565b6000610b0e336110d7565b11610b485760405162461bcd60e51b815260206004820152600a6024820152694e6f2062616c616e636560b01b6044820152606401610286565b336000908152601460205260409020805460ff19166001179055565b610a2e8383836117c7565b6000546001600160a01b03163314610b995760405162461bcd60e51b815260040161028690612880565b806003811115610bab57610bab61280f565b600e805460ff60a01b1916600160a01b836003811115610bcd57610bcd61280f565b021790555050565b600260015403610c275760405162461bcd60e51b815260206004820152601f60248201527f5265656e7472616e637947756172643a207265656e7472616e742063616c6c006044820152606401610286565b6002600155600e546040516000916001600160a01b03169047908381818185875af1925050503d8060008114610c79576040519150601f19603f3d011682016040523d82523d6000602084013e610c7e565b606091505b5050905080610cc15760405162461bcd60e51b815260206004820152600f60248201526e15da5d1a191c985dc819985a5b1959608a1b6044820152606401610286565b5060018055565b6000546001600160a01b03163314610cf25760405162461bcd60e51b815260040161028690612880565b610cfa6119c4565b565b610a2e838383604051806020016040528060008152506114a1565b6000546001600160a01b03163314610d415760405162461bcd60e51b815260040161028690612880565b601155565b323314610d655760405162461bcd60e51b81526004016102869061291d565b81816000600b547f68e83002b91b0fd96d4df3566b5122221117e3ec6c2468fda594f6491f89b1c933604051602001610db19291909182526001600160a01b0316602082015260400190565b60405160208183030381529060405280519060200120604051602001610dee92919061190160f01b81526002810192909252602282015260420190565b6040516020818303038152906040528051906020012090506000610e4a84848080601f0160208091040260200160405190810160405280939291908181526020018383808284376000920191909152508693925050611a619050565b600a549091506001600160a01b03808316911614610e9c5760405162461bcd60e51b815260206004820152600f60248201526e139bdd081dda1a5d195b1a5cdd1959608a1b6044820152606401610286565b6011546000819003610edd5760405162461bcd60e51b815260206004820152600a6024820152690507269636520697320360b41b6044820152606401610286565b6001600e54600160a01b900460ff166003811115610efd57610efd61280f565b14610f4a5760405162461bcd60e51b815260206004820152601960248201527f57686974656c6973742053616c65206e6f7420616374697665000000000000006044820152606401610286565b601054610f589060016128cb565b33600090815260136020526040902054610f73908a906128cb565b10610fbb5760405162461bcd60e51b815260206004820152601860248201527713585e081b5a5b9d08185b5bdd5b9d08195e18d95959195960421b6044820152606401610286565b600f54610fca906103e861297e565b610fd59060016128cb565b88610fe7600354600254036000190190565b610ff191906128cb565b106110345760405162461bcd60e51b815260206004820152601360248201527213585e081cdd5c1c1b1e48195e18d959591959606a1b6044820152606401610286565b61103e8189611a85565b34101561105d5760405162461bcd60e51b815260040161028690612954565b6110678989611718565b33600090815260136020526040812080548a92906110869084906128cb565b9091555050505050505050505050565b60006110a182611a98565b5192915050565b6000546001600160a01b031633146110d25760405162461bcd60e51b815260040161028690612880565b600f55565b60006001600160a01b038216611100576040516323d3ad8160e21b815260040160405180910390fd5b506001600160a01b031660009081526007602052604090205467ffffffffffffffff1690565b6000546001600160a01b031633146111505760405162461bcd60e51b815260040161028690612880565b610cfa6000611bc1565b6000546001600160a01b031633146111845760405162461bcd60e51b815260040161028690612880565b610cfa611c11565b6060600580546108df906128e3565b6000546001600160a01b031633146111c55760405162461bcd60e51b815260040161028690612880565b80516111d890600c90602084019061240e565b507f23c8c9488efebfd474e85a7956de6f39b17c7ab88502d42a623db2d8e382bbaa600c6040516112099190612995565b60405180910390a150565b336001600160a01b0383160361123d5760405163b06307db60e01b815260040160405180910390fd5b3360008181526009602090815260408083206001600160a01b03871680855290835292819020805460ff191686151590811790915590519081529192917f17307eab39ab6107e8899845ad3d59bd9653f200f220920489ca2b5937696c31910160405180910390a35050565b3233146112c85760405162461bcd60e51b81526004016102869061291d565b60115460008190036113095760405162461bcd60e51b815260206004820152600a6024820152690507269636520697320360b41b6044820152606401610286565b6001600e54600160a01b900460ff1660038111156113295761132961280f565b1161136f5760405162461bcd60e51b81526020600482015260166024820152755075626c69632053616c65206e6f742061637469766560501b6044820152606401610286565b60105461137d9060016128cb565b82106113c65760405162461bcd60e51b815260206004820152601860248201527713585e081b5a5b9d08185b5bdd5b9d08195e18d95959195960421b6044820152606401610286565b600f546113d5906103e861297e565b6113e09060016128cb565b826113f2600354600254036000190190565b6113fc91906128cb565b1061143f5760405162461bcd60e51b815260206004820152601360248201527213585e081cdd5c1c1b1e48195e18d959591959606a1b6044820152606401610286565b6114498183611a85565b3410156114685760405162461bcd60e51b815260040161028690612954565b610a2e8383611718565b6000546001600160a01b0316331461149c5760405162461bcd60e51b815260040161028690612880565b601055565b6114ac8484846117c7565b6001600160a01b0383163b151580156114ce57506114cc84848484611c99565b155b156114ec576040516368d2bf6b60e11b815260040160405180910390fd5b50505050565b60606114fd82611732565b6115495760405162461bcd60e51b815260206004820152601f60248201527f55524920717565727920666f72206e6f6e6578697374656e7420746f6b656e006044820152606401610286565b6003600e54600160a01b900460ff1660038111156115695761156961280f565b101561160157600d805461157c906128e3565b80601f01602080910402602001604051908101604052809291908181526020018280546115a8906128e3565b80156115f55780601f106115ca576101008083540402835291602001916115f5565b820191906000526020600020905b8154815290600101906020018083116115d857829003601f168201915b50505050509050919050565b6000600c8054611610906128e3565b90501161162c57604051806020016040528060008152506107db565b600c61163783611d85565b604051602001611648929190612a1a565b60405160208183030381529060405292915050565b6060604051806060016040528060368152602001612b9460369139905090565b6000546001600160a01b031633146116a75760405162461bcd60e51b815260040161028690612880565b6001600160a01b03811661170c5760405162461bcd60e51b815260206004820152602660248201527f4f776e61626c653a206e6577206f776e657220697320746865207a65726f206160448201526564647265737360d01b6064820152608401610286565b61171581611bc1565b50565b610880828260405180602001604052806000815250611e86565b600081600111158015611746575060025482105b80156107db575050600090815260066020526040902054600160e01b900460ff161590565b60008281526008602052604080822080546001600160a01b0319166001600160a01b0387811691821790925591518593918516917f8c5be1e5ebec7d5bd14f71427d1e84f3dd0314c0f7b2291e5b200ac8c7c3b92591a4505050565b60006117d282611a98565b9050836001600160a01b031681600001516001600160a01b0316146118095760405162a1148160e81b815260040160405180910390fd5b6000336001600160a01b038616148061182757506118278533610741565b8061184257503361183784610962565b6001600160a01b0316145b90508061186257604051632ce44b5f60e11b815260040160405180910390fd5b6001600160a01b03841661188957604051633a954ecd60e21b815260040160405180910390fd5b6118968585856001611e93565b6118a26000848761176b565b6001600160a01b038581166000908152600760209081526040808320805467ffffffffffffffff1980821667ffffffffffffffff92831660001901831617909255898616808652838620805493841693831660019081018416949094179055898652600690945282852080546001600160e01b031916909417600160a01b42909216919091021783558701808452922080549193909116611978576002548214611978578054602086015167ffffffffffffffff16600160a01b026001600160e01b03199091166001600160a01b038a16171781555b50505082846001600160a01b0316866001600160a01b03167fddf252ad1be2c89b69c2b068fc378daa952ba7f163c4a11628f55a4df523b3ef60405160405180910390a45b5050505050565b600054600160a01b900460ff16611a145760405162461bcd60e51b815260206004820152601460248201527314185d5cd8589b194e881b9bdd081c185d5cd95960621b6044820152606401610286565b6000805460ff60a01b191690557f5db9ee0a495bf2e6ff9c91a7834c1ba4fdd244a5e8aa4e537bd38aeae4b073aa335b6040516001600160a01b03909116815260200160405180910390a1565b6000806000611a708585611ee5565b91509150611a7d81611f53565b509392505050565b6000611a918284612aad565b9392505050565b60408051606081018252600080825260208201819052918101919091528180600111158015611ac8575060025481105b15611ba857600081815260066020908152604091829020825160608101845290546001600160a01b0381168252600160a01b810467ffffffffffffffff1692820192909252600160e01b90910460ff16151591810182905290611ba65780516001600160a01b031615611b3c579392505050565b5060001901600081815260066020908152604091829020825160608101845290546001600160a01b038116808352600160a01b820467ffffffffffffffff1693830193909352600160e01b900460ff1615159281019290925215611ba1579392505050565b611b3c565b505b604051636f96cda160e11b815260040160405180910390fd5b600080546001600160a01b038381166001600160a01b0319831681178455604051919092169283917f8be0079c531659141344cd1fd0a4f28419497f9722a3daafe3b4186f6b6457e09190a35050565b600054600160a01b900460ff1615611c5e5760405162461bcd60e51b815260206004820152601060248201526f14185d5cd8589b194e881c185d5cd95960821b6044820152606401610286565b6000805460ff60a01b1916600160a01b1790557f62e78cea01bee320cd4e420270b5ea74000d11b0c9f74754ebdbfc544b05a258611a443390565b604051630a85bd0160e11b81526000906001600160a01b0385169063150b7a0290611cce903390899088908890600401612acc565b6020604051808303816000875af1925050508015611d09575060408051601f3d908101601f19168201909252611d0691810190612b09565b60015b611d67573d808015611d37576040519150601f19603f3d011682016040523d82523d6000602084013e611d3c565b606091505b508051600003611d5f576040516368d2bf6b60e11b815260040160405180910390fd5b805181602001fd5b6001600160e01b031916630a85bd0160e11b1490505b949350505050565b606081600003611dac5750506040805180820190915260018152600360fc1b602082015290565b8160005b8115611dd65780611dc081612b26565b9150611dcf9050600a83612b55565b9150611db0565b60008167ffffffffffffffff811115611df157611df16125bf565b6040519080825280601f01601f191660200182016040528015611e1b576020820181803683370190505b5090505b8415611d7d57611e3060018361297e565b9150611e3d600a86612b69565b611e489060306128cb565b60f81b818381518110611e5d57611e5d612b7d565b60200101906001600160f81b031916908160001a905350611e7f600a86612b55565b9450611e1f565b610a2e8383836001612109565b600054600160a01b900460ff1615611ee05760405162461bcd60e51b815260206004820152601060248201526f14185d5cd8589b194e881c185d5cd95960821b6044820152606401610286565b6114ec565b6000808251604103611f1b5760208301516040840151606085015160001a611f0f878285856122e8565b94509450505050611f4c565b8251604003611f445760208301516040840151611f398683836123d5565b935093505050611f4c565b506000905060025b9250929050565b6000816004811115611f6757611f6761280f565b03611f6f5750565b6001816004811115611f8357611f8361280f565b03611fd05760405162461bcd60e51b815260206004820152601860248201527f45434453413a20696e76616c6964207369676e617475726500000000000000006044820152606401610286565b6002816004811115611fe457611fe461280f565b036120315760405162461bcd60e51b815260206004820152601f60248201527f45434453413a20696e76616c6964207369676e6174757265206c656e677468006044820152606401610286565b60038160048111156120455761204561280f565b0361209d5760405162461bcd60e51b815260206004820152602260248201527f45434453413a20696e76616c6964207369676e6174757265202773272076616c604482015261756560f01b6064820152608401610286565b60048160048111156120b1576120b161280f565b036117155760405162461bcd60e51b815260206004820152602260248201527f45434453413a20696e76616c6964207369676e6174757265202776272076616c604482015261756560f01b6064820152608401610286565b6002546001600160a01b03851661213257604051622e076360e81b815260040160405180910390fd5b836000036121535760405163b562e8dd60e01b815260040160405180910390fd5b6121606000868387611e93565b6001600160a01b038516600081815260076020908152604080832080546fffffffffffffffffffffffffffffffff19811667ffffffffffffffff8083168c0181169182176801000000000000000067ffffffffffffffff1990941690921783900481168c01811690920217909155858452600690925290912080546001600160e01b031916909217600160a01b42909216919091021790558080850183801561221257506001600160a01b0387163b15155b1561229a575b60405182906001600160a01b038916906000907fddf252ad1be2c89b69c2b068fc378daa952ba7f163c4a11628f55a4df523b3ef908290a46122636000888480600101955088611c99565b612280576040516368d2bf6b60e11b815260040160405180910390fd5b80820361221857826002541461229557600080fd5b6122df565b5b6040516001830192906001600160a01b038916906000907fddf252ad1be2c89b69c2b068fc378daa952ba7f163c4a11628f55a4df523b3ef908290a480820361229b575b506002556119bd565b6000807f7fffffffffffffffffffffffffffffff5d576e7357a4501ddfe92f46681b20a083111561231f57506000905060036123cc565b8460ff16601b1415801561233757508460ff16601c14155b1561234857506000905060046123cc565b6040805160008082526020820180845289905260ff881692820192909252606081018690526080810185905260019060a0016020604051602081039080840390855afa15801561239c573d6000803e3d6000fd5b5050604051601f1901519150506001600160a01b0381166123c5576000600192509250506123cc565b9150600090505b94509492505050565b6000806001600160ff1b038316816123f260ff86901c601b6128cb565b9050612400878288856122e8565b935093505050935093915050565b82805461241a906128e3565b90600052602060002090601f01602090048101928261243c5760008555612482565b82601f1061245557805160ff1916838001178555612482565b82800160010185558215612482579182015b82811115612482578251825591602001919060010190612467565b5061248e929150612492565b5090565b5b8082111561248e5760008155600101612493565b6001600160e01b03198116811461171557600080fd5b6000602082840312156124cf57600080fd5b8135611a91816124a7565b80356001600160a01b03811681146124f157600080fd5b919050565b6000806040838503121561250957600080fd5b612512836124da565b946020939093013593505050565b60006020828403121561253257600080fd5b611a91826124da565b60005b8381101561255657818101518382015260200161253e565b838111156114ec5750506000910152565b6000815180845261257f81602086016020860161253b565b601f01601f19169290920160200192915050565b602081526000611a916020830184612567565b6000602082840312156125b857600080fd5b5035919050565b634e487b7160e01b600052604160045260246000fd5b600067ffffffffffffffff808411156125f0576125f06125bf565b604051601f8501601f19908116603f01168101908282118183101715612618576126186125bf565b8160405280935085815286868601111561263157600080fd5b858560208301376000602087830101525050509392505050565b60006020828403121561265d57600080fd5b813567ffffffffffffffff81111561267457600080fd5b8201601f8101841361268557600080fd5b611d7d848235602084016125d5565b6000806000606084860312156126a957600080fd5b6126b2846124da565b92506126c0602085016124da565b9150604084013590509250925092565b600080600080606085870312156126e657600080fd5b6126ef856124da565b935060208501359250604085013567ffffffffffffffff8082111561271357600080fd5b818701915087601f83011261272757600080fd5b81358181111561273657600080fd5b88602082850101111561274857600080fd5b95989497505060200194505050565b6000806040838503121561276a57600080fd5b612773836124da565b91506020830135801515811461278857600080fd5b809150509250929050565b600080600080608085870312156127a957600080fd5b6127b2856124da565b93506127c0602086016124da565b925060408501359150606085013567ffffffffffffffff8111156127e357600080fd5b8501601f810187136127f457600080fd5b612803878235602084016125d5565b91505092959194509250565b634e487b7160e01b600052602160045260246000fd5b602081016004831061284757634e487b7160e01b600052602160045260246000fd5b91905290565b6000806040838503121561286057600080fd5b612869836124da565b9150612877602084016124da565b90509250929050565b6020808252818101527f4f776e61626c653a2063616c6c6572206973206e6f7420746865206f776e6572604082015260600190565b634e487b7160e01b600052601160045260246000fd5b600082198211156128de576128de6128b5565b500190565b600181811c908216806128f757607f821691505b60208210810361291757634e487b7160e01b600052602260045260246000fd5b50919050565b6020808252601e908201527f5468652063616c6c657220697320616e6f7468657220636f6e74726163740000604082015260600190565b60208082526010908201526f4e6f7420656e6f7567682066756e647360801b604082015260600190565b600082821015612990576129906128b5565b500390565b60006020808352600084546129a9816128e3565b808487015260406001808416600081146129ca57600181146129de57612a0c565b60ff19851689840152606089019550612a0c565b896000528660002060005b85811015612a045781548b82018601529083019088016129e9565b8a0184019650505b509398975050505050505050565b6000808454612a28816128e3565b60018281168015612a405760018114612a5157612a80565b60ff19841687528287019450612a80565b8860005260208060002060005b85811015612a775781548a820152908401908201612a5e565b50505082870194505b505050508351612a9481836020880161253b565b64173539b7b760d91b9101908152600501949350505050565b6000816000190483118215151615612ac757612ac76128b5565b500290565b6001600160a01b0385811682528416602082015260408101839052608060608201819052600090612aff90830184612567565b9695505050505050565b600060208284031215612b1b57600080fd5b8151611a91816124a7565b600060018201612b3857612b386128b5565b5060010190565b634e487b7160e01b600052601260045260246000fd5b600082612b6457612b64612b3f565b500490565b600082612b7857612b78612b3f565b500690565b634e487b7160e01b600052603260045260246000fdfe697066733a2f2f516d627654394c34374d56756d3769636e6f4362377350505931376d774251787a59694748516268794a765048362fa2646970667358221220863a2136f470e4fc3fc0d771737239ce7e3667df5dd6e694394c8eefd7eb0aa464736f6c634300080d0033",
  "linkReferences": {},
  "deployedLinkReferences": {}
}