{
  "_format": "hh-sol-artifact-1",
  "contractName": "MagicMondrian",
  "sourceName": "contracts/MagicMondrian.sol",
  "abi": [
    {
      "inputs": [
        {
          "internalType": "address",
          "name": "_paymentSplitter",
          "type": "address"
        },
        {
          "internalType": "address",
          "name": "_signerAddress",
          "type": "address"
        },
        {
          "internalType": "string",
          "name": "_hiddenURI",
          "type": "string"
        }
      ],
      "stateMutability": "nonpayable",
      "type": "constructor"
    },
    {
      "inputs": [],
      "name": "ApprovalCallerNotOwnerNorApproved",
      "type": "error"
    },
    {
      "inputs": [],
      "name": "ApprovalQueryForNonexistentToken",
      "type": "error"
    },
    {
      "inputs": [],
      "name": "ApprovalToCurrentOwner",
      "type": "error"
    },
    {
      "inputs": [],
      "name": "ApproveToCaller",
      "type": "error"
    },
    {
      "inputs": [],
      "name": "BalanceQueryForZeroAddress",
      "type": "error"
    },
    {
      "inputs": [],
      "name": "MintToZeroAddress",
      "type": "error"
    },
    {
      "inputs": [],
      "name": "MintZeroQuantity",
      "type": "error"
    },
    {
      "inputs": [],
      "name": "OwnerQueryForNonexistentToken",
      "type": "error"
    },
    {
      "inputs": [],
      "name": "TransferCallerNotOwnerNorApproved",
      "type": "error"
    },
    {
      "inputs": [],
      "name": "TransferFromIncorrectOwner",
      "type": "error"
    },
    {
      "inputs": [],
      "name": "TransferToNonERC721ReceiverImplementer",
      "type": "error"
    },
    {
      "inputs": [],
      "name": "TransferToZeroAddress",
      "type": "error"
    },
    {
      "anonymous": false,
      "inputs": [
        {
          "indexed": true,
          "internalType": "address",
          "name": "owner",
          "type": "address"
        },
        {
          "indexed": true,
          "internalType": "address",
          "name": "approved",
          "type": "address"
        },
        {
          "indexed": true,
          "internalType": "uint256",
          "name": "tokenId",
          "type": "uint256"
        }
      ],
      "name": "Approval",
      "type": "event"
    },
    {
      "anonymous": false,
      "inputs": [
        {
          "indexed": true,
          "internalType": "address",
          "name": "owner",
          "type": "address"
        },
        {
          "indexed": true,
          "internalType": "address",
          "name": "operator",
          "type": "address"
        },
        {
          "indexed": false,
          "internalType": "bool",
          "name": "approved",
          "type": "bool"
        }
      ],
      "name": "ApprovalForAll",
      "type": "event"
    },
    {
      "anonymous": false,
      "inputs": [
        {
          "indexed": true,
          "internalType": "address",
          "name": "previousOwner",
          "type": "address"
        },
        {
          "indexed": true,
          "internalType": "address",
          "name": "newOwner",
          "type": "address"
        }
      ],
      "name": "OwnershipTransferred",
      "type": "event"
    },
    {
      "anonymous": false,
      "inputs": [
        {
          "indexed": false,
          "internalType": "address",
          "name": "account",
          "type": "address"
        }
      ],
      "name": "Paused",
      "type": "event"
    },
    {
      "anonymous": false,
      "inputs": [
        {
          "indexed": false,
          "internalType": "string",
          "name": "baseURI",
          "type": "string"
        }
      ],
      "name": "SetBaseURI",
      "type": "event"
    },
    {
      "anonymous": false,
      "inputs": [
        {
          "indexed": true,
          "internalType": "address",
          "name": "from",
          "type": "address"
        },
        {
          "indexed": true,
          "internalType": "address",
          "name": "to",
          "type": "address"
        },
        {
          "indexed": true,
          "internalType": "uint256",
          "name": "tokenId",
          "type": "uint256"
        }
      ],
      "name": "Transfer",
      "type": "event"
    },
    {
      "anonymous": false,
      "inputs": [
        {
          "indexed": false,
          "internalType": "address",
          "name": "account",
          "type": "address"
        }
      ],
      "name": "Unpaused",
      "type": "event"
    },
    {
      "inputs": [],
      "name": "MAX_SUPPLY",
      "outputs": [
        {
          "internalType": "uint256",
          "name": "",
          "type": "uint256"
        }
      ],
      "stateMutability": "view",
      "type": "function"
    },
    {
      "inputs": [
        {
          "internalType": "address",
          "name": "_to",
          "type": "address"
        },
        {
          "internalType": "uint256",
          "name": "_quantity",
          "type": "uint256"
        }
      ],
      "name": "airDrop",
      "outputs": [],
      "stateMutability": "nonpayable",
      "type": "function"
    },
    {
      "inputs": [
        {
          "internalType": "address",
          "name": "",
          "type": "address"
        }
      ],
      "name": "amountNFTsperWalletWhitelistSale",
      "outputs": [
        {
          "internalType": "uint256",
          "name": "",
          "type": "uint256"
        }
      ],
      "stateMutability": "view",
      "type": "function"
    },
    {
      "inputs": [
        {
          "internalType": "address",
          "name": "to",
          "type": "address"
        },
        {
          "internalType": "uint256",
          "name": "tokenId",
          "type": "uint256"
        }
      ],
      "name": "approve",
      "outputs": [],
      "stateMutability": "nonpayable",
      "type": "function"
    },
    {
      "inputs": [
        {
          "internalType": "address",
          "name": "owner",
          "type": "address"
        }
      ],
      "name": "balanceOf",
      "outputs": [
        {
          "internalType": "uint256",
          "name": "",
          "type": "uint256"
        }
      ],
      "stateMutability": "view",
      "type": "function"
    },
    {
      "inputs": [],
      "name": "contractURI",
      "outputs": [
        {
          "internalType": "string",
          "name": "",
          "type": "string"
        }
      ],
      "stateMutability": "pure",
      "type": "function"
    },
    {
      "inputs": [],
      "name": "cost",
      "outputs": [
        {
          "internalType": "uint256",
          "name": "",
          "type": "uint256"
        }
      ],
      "stateMutability": "view",
      "type": "function"
    },
    {
      "inputs": [
        {
          "internalType": "uint256",
          "name": "tokenId",
          "type": "uint256"
        }
      ],
      "name": "getApproved",
      "outputs": [
        {
          "internalType": "address",
          "name": "",
          "type": "address"
        }
      ],
      "stateMutability": "view",
      "type": "function"
    },
    {
      "inputs": [
        {
          "internalType": "address",
          "name": "owner",
          "type": "address"
        },
        {
          "internalType": "address",
          "name": "operator",
          "type": "address"
        }
      ],
      "name": "isApprovedForAll",
      "outputs": [
        {
          "internalType": "bool",
          "name": "",
          "type": "bool"
        }
      ],
      "stateMutability": "view",
      "type": "function"
    },
    {
      "inputs": [],
      "name": "maxMint",
      "outputs": [
        {
          "internalType": "uint256",
          "name": "",
          "type": "uint256"
        }
      ],
      "stateMutability": "view",
      "type": "function"
    },
    {
      "inputs": [],
      "name": "maxReserved",
      "outputs": [
        {
          "internalType": "uint256",
          "name": "",
          "type": "uint256"
        }
      ],
      "stateMutability": "view",
      "type": "function"
    },
    {
      "inputs": [],
      "name": "name",
      "outputs": [
        {
          "internalType": "string",
          "name": "",
          "type": "string"
        }
      ],
      "stateMutability": "view",
      "type": "function"
    },
    {
      "inputs": [],
      "name": "owner",
      "outputs": [
        {
          "internalType": "address",
          "name": "",
          "type": "address"
        }
      ],
      "stateMutability": "view",
      "type": "function"
    },
    {
      "inputs": [
        {
          "internalType": "uint256",
          "name": "tokenId",
          "type": "uint256"
        }
      ],
      "name": "ownerOf",
      "outputs": [
        {
          "internalType": "address",
          "name": "",
          "type": "address"
        }
      ],
      "stateMutability": "view",
      "type": "function"
    },
    {
      "inputs": [],
      "name": "pause",
      "outputs": [],
      "stateMutability": "nonpayable",
      "type": "function"
    },
    {
      "inputs": [],
      "name": "paused",
      "outputs": [
        {
          "internalType": "bool",
          "name": "",
          "type": "bool"
        }
      ],
      "stateMutability": "view",
      "type": "function"
    },
    {
      "inputs": [
        {
          "internalType": "address",
          "name": "_account",
          "type": "address"
        },
        {
          "internalType": "uint256",
          "name": "_quantity",
          "type": "uint256"
        }
      ],
      "name": "publicSaleMint",
      "outputs": [],
      "stateMutability": "payable",
      "type": "function"
    },
    {
      "inputs": [],
      "name": "renounceOwnership",
      "outputs": [],
      "stateMutability": "nonpayable",
      "type": "function"
    },
    {
      "inputs": [
        {
          "internalType": "address",
          "name": "from",
          "type": "address"
        },
        {
          "internalType": "address",
          "name": "to",
          "type": "address"
        },
        {
          "internalType": "uint256",
          "name": "tokenId",
          "type": "uint256"
        }
      ],
      "name": "safeTransferFrom",
      "outputs": [],
      "stateMutability": "nonpayable",
      "type": "function"
    },
    {
      "inputs": [
        {
          "internalType": "address",
          "name": "from",
          "type": "address"
        },
        {
          "internalType": "address",
          "name": "to",
          "type": "address"
        },
        {
          "internalType": "uint256",
          "name": "tokenId",
          "type": "uint256"
        },
        {
          "internalType": "bytes",
          "name": "_data",
          "type": "bytes"
        }
      ],
      "name": "safeTransferFrom",
      "outputs": [],
      "stateMutability": "nonpayable",
      "type": "function"
    },
    {
      "inputs": [],
      "name": "sellingPhase",
      "outputs": [
        {
          "internalType": "enum MagicMondrian.Phase",
          "name": "",
          "type": "uint8"
        }
      ],
      "stateMutability": "view",
      "type": "function"
    },
    {
      "inputs": [
        {
          "internalType": "address",
          "name": "operator",
          "type": "address"
        },
        {
          "internalType": "bool",
          "name": "approved",
          "type": "bool"
        }
      ],
      "name": "setApprovalForAll",
      "outputs": [],
      "stateMutability": "nonpayable",
      "type": "function"
    },
    {
      "inputs": [
        {
          "internalType": "string",
          "name": "_baseURI",
          "type": "string"
        }
      ],
      "name": "setBaseUri",
      "outputs": [],
      "stateMutability": "nonpayable",
      "type": "function"
    },
    {
      "inputs": [
        {
          "internalType": "uint256",
          "name": "_cost",
          "type": "uint256"
        }
      ],
      "name": "setCost",
      "outputs": [],
      "stateMutability": "nonpayable",
      "type": "function"
    },
    {
      "inputs": [
        {
          "internalType": "string",
          "name": "_hiddenUri",
          "type": "string"
        }
      ],
      "name": "setHiddenUri",
      "outputs": [],
      "stateMutability": "nonpayable",
      "type": "function"
    },
    {
      "inputs": [
        {
          "internalType": "uint256",
          "name": "_maxMintAmountPerTx",
          "type": "uint256"
        }
      ],
      "name": "setMaxMintAmountPerTx",
      "outputs": [],
      "stateMutability": "nonpayable",
      "type": "function"
    },
    {
      "inputs": [
        {
          "internalType": "uint256",
          "name": "_maxReserved",
          "type": "uint256"
        }
      ],
      "name": "setMaxReserved",
      "outputs": [],
      "stateMutability": "nonpayable",
      "type": "function"
    },
    {
      "inputs": [
        {
          "internalType": "uint256",
          "name": "_phase",
          "type": "uint256"
        }
      ],
      "name": "setPhase",
      "outputs": [],
      "stateMutability": "nonpayable",
      "type": "function"
    },
    {
      "inputs": [
        {
          "internalType": "address",
          "name": "_signerAddress",
          "type": "address"
        }
      ],
      "name": "setSignerAddress",
      "outputs": [],
      "stateMutability": "nonpayable",
      "type": "function"
    },
    {
      "inputs": [
        {
          "internalType": "bytes4",
          "name": "interfaceId",
          "type": "bytes4"
        }
      ],
      "name": "supportsInterface",
      "outputs": [
        {
          "internalType": "bool",
          "name": "",
          "type": "bool"
        }
      ],
      "stateMutability": "view",
      "type": "function"
    },
    {
      "inputs": [],
      "name": "symbol",
      "outputs": [
        {
          "internalType": "string",
          "name": "",
          "type": "string"
        }
      ],
      "stateMutability": "view",
      "type": "function"
    },
    {
      "inputs": [
        {
          "internalType": "uint256",
          "name": "_tokenId",
          "type": "uint256"
        }
      ],
      "name": "tokenURI",
      "outputs": [
        {
          "internalType": "string",
          "name": "",
          "type": "string"
        }
      ],
      "stateMutability": "view",
      "type": "function"
    },
    {
      "inputs": [],
      "name": "totalSupply",
      "outputs": [
        {
          "internalType": "uint256",
          "name": "",
          "type": "uint256"
        }
      ],
      "stateMutability": "view",
      "type": "function"
    },
    {
      "inputs": [
        {
          "internalType": "address",
          "name": "from",
          "type": "address"
        },
        {
          "internalType": "address",
          "name": "to",
          "type": "address"
        },
        {
          "internalType": "uint256",
          "name": "tokenId",
          "type": "uint256"
        }
      ],
      "name": "transferFrom",
      "outputs": [],
      "stateMutability": "nonpayable",
      "type": "function"
    },
    {
      "inputs": [
        {
          "internalType": "address",
          "name": "newOwner",
          "type": "address"
        }
      ],
      "name": "transferOwnership",
      "outputs": [],
      "stateMutability": "nonpayable",
      "type": "function"
    },
    {
      "inputs": [],
      "name": "unpause",
      "outputs": [],
      "stateMutability": "nonpayable",
      "type": "function"
    },
    {
      "inputs": [
        {
          "internalType": "address",
          "name": "_account",
          "type": "address"
        },
        {
          "internalType": "uint256",
          "name": "_quantity",
          "type": "uint256"
        },
        {
          "internalType": "bytes",
          "name": "_signature",
          "type": "bytes"
        }
      ],
      "name": "whitelistMint",
      "outputs": [],
      "stateMutability": "payable",
      "type": "function"
    },
    {
      "inputs": [],
      "name": "withdraw",
      "outputs": [],
      "stateMutability": "payable",
      "type": "function"
    },
    {
      "stateMutability": "payable",
      "type": "receive"
    }
  ],
  "bytecode": "0x60806040526032600f55600560105565e35fa931a0006011553480156200002557600080fd5b5060405162002f6938038062002f69833981016040819052620000489162000338565b816040518060400160405280600e81526020016d26b0b3b4b19026b7b7323934b0b760911b8152506040518060400160405280600e81526020016d26b0b3b4b19026b7b7323934b0b760911b815250604051806040016040528060048152602001634d414d4f60e01b815250620000ce620000c86200020b60201b60201c565b6200020f565b6000805460ff60a01b19169055600180558151620000f49060049060208501906200025f565b5080516200010a9060059060208401906200025f565b5060016002555050600a80546001600160a01b0319166001600160a01b038416179055805160208083019190912060408051808201825260018152603160f81b9084015280517f8b73c3c69bb8fe3d512ecc4cf759cc79239f7b179b0ffacaa9a75d522b39400f938101939093528201527fc89efdaa54c0f20c7adf612882df0950f5a951637e0307cdcb4c672f298b8bc660608201524660808201523060a082015260c00160408051601f198184030181529190528051602091820120600b558351620001e19350600d9250908401906200025f565b5050600e80546001600160a01b0319166001600160a01b0393909316929092179091555062000478565b3390565b600080546001600160a01b038381166001600160a01b0319831681178455604051919092169283917f8be0079c531659141344cd1fd0a4f28419497f9722a3daafe3b4186f6b6457e09190a35050565b8280546200026d906200043c565b90600052602060002090601f016020900481019282620002915760008555620002dc565b82601f10620002ac57805160ff1916838001178555620002dc565b82800160010185558215620002dc579182015b82811115620002dc578251825591602001919060010190620002bf565b50620002ea929150620002ee565b5090565b5b80821115620002ea5760008155600101620002ef565b80516001600160a01b03811681146200031d57600080fd5b919050565b634e487b7160e01b600052604160045260246000fd5b6000806000606084860312156200034e57600080fd5b620003598462000305565b925060206200036a81860162000305565b60408601519093506001600160401b03808211156200038857600080fd5b818701915087601f8301126200039d57600080fd5b815181811115620003b257620003b262000322565b604051601f8201601f19908116603f01168101908382118183101715620003dd57620003dd62000322565b816040528281528a86848701011115620003f657600080fd5b600093505b828410156200041a5784840186015181850187015292850192620003fb565b828411156200042c5760008684830101525b8096505050505050509250925092565b600181811c908216806200045157607f821691505b6020821081036200047257634e487b7160e01b600052602260045260246000fd5b50919050565b612ae180620004886000396000f3fe6080604052600436106102295760003560e01c80636bee18bd11610123578063a22cb465116100ab578063c87b56dd1161006f578063c87b56dd14610654578063dae55cb314610674578063e8a3d485146106a2578063e985e9c5146106b7578063f2fde38b1461070057600080fd5b8063a22cb465146105cb578063a9898fd9146105eb578063ac5ae11b14610601578063b071401b14610614578063b88d4fde1461063457600080fd5b80638456cb59116100f25780638456cb59146105365780638da5cb5b1461054b57806395d89b411461056957806399d138001461057e578063a0bcfc7f146105ab57600080fd5b80636bee18bd146104cb57806370a08231146104eb578063715018a61461050b5780637501f7411461052057600080fd5b806323b872dd116101b157806342842e0e1161017557806342842e0e1461043957806344a0d68a146104595780635c975abb146104795780635ed222e3146104985780636352211e146104ab57600080fd5b806323b872dd146103c65780632cc82655146103e657806332cb6b0c146104065780633ccfd60b1461041c5780633f4ba83a1461042457600080fd5b8063081812fc116101f8578063081812fc1461030c578063095ea7b3146103445780631067fcc71461036457806313faede61461038457806318160ddd146103a857600080fd5b806301ffc9a714610273578063045f7850146102a8578063046dc166146102ca57806306fdde03146102ea57600080fd5b3661026e5760405162461bcd60e51b815260206004820152601060248201526f13db9b1e481a59881e5bdd481b5a5b9d60821b60448201526064015b60405180910390fd5b600080fd5b34801561027f57600080fd5b5061029361028e366004612400565b610720565b60405190151581526020015b60405180910390f35b3480156102b457600080fd5b506102c86102c3366004612439565b610772565b005b3480156102d657600080fd5b506102c86102e5366004612463565b610815565b3480156102f657600080fd5b506102ff610861565b60405161029f91906124d6565b34801561031857600080fd5b5061032c6103273660046124e9565b6108f3565b6040516001600160a01b03909116815260200161029f565b34801561035057600080fd5b506102c861035f366004612439565b610937565b34801561037057600080fd5b506102c861037f36600461258e565b6109c4565b34801561039057600080fd5b5061039a60115481565b60405190815260200161029f565b3480156103b457600080fd5b5061039a600354600254036000190190565b3480156103d257600080fd5b506102c86103e13660046125d7565b610a01565b3480156103f257600080fd5b506102c86104013660046124e9565b610a0c565b34801561041257600080fd5b5061039a6103e881565b6102c8610a72565b34801561043057600080fd5b506102c8610b65565b34801561044557600080fd5b506102c86104543660046125d7565b610b99565b34801561046557600080fd5b506102c86104743660046124e9565b610bb4565b34801561048557600080fd5b50600054600160a01b900460ff16610293565b6102c86104a6366004612613565b610be3565b3480156104b757600080fd5b5061032c6104c63660046124e9565b610f86565b3480156104d757600080fd5b506102c86104e63660046124e9565b610f98565b3480156104f757600080fd5b5061039a610506366004612463565b610fc7565b34801561051757600080fd5b506102c8611016565b34801561052c57600080fd5b5061039a60105481565b34801561054257600080fd5b506102c861104a565b34801561055757600080fd5b506000546001600160a01b031661032c565b34801561057557600080fd5b506102ff61107c565b34801561058a57600080fd5b5061039a610599366004612463565b60126020526000908152604090205481565b3480156105b757600080fd5b506102c86105c636600461258e565b61108b565b3480156105d757600080fd5b506102c86105e636600461269a565b611104565b3480156105f757600080fd5b5061039a600f5481565b6102c861060f366004612439565b611199565b34801561062057600080fd5b506102c861062f3660046124e9565b6113b5565b34801561064057600080fd5b506102c861064f3660046126d6565b6113e4565b34801561066057600080fd5b506102ff61066f3660046124e9565b611435565b34801561068057600080fd5b50600e5461069590600160a01b900460ff1681565b60405161029f9190612768565b3480156106ae57600080fd5b506102ff6115a0565b3480156106c357600080fd5b506102936106d2366004612790565b6001600160a01b03918216600090815260096020908152604080832093909416825291909152205460ff1690565b34801561070c57600080fd5b506102c861071b366004612463565b6115c0565b60006001600160e01b031982166380ac58cd60e01b148061075157506001600160e01b03198216635b5e139f60e01b145b8061076c57506301ffc9a760e01b6001600160e01b03198316145b92915050565b6000546001600160a01b0316331461079c5760405162461bcd60e51b8152600401610265906127c3565b6107a96103e8600161280e565b816107bb600354600254036000190190565b6107c5919061280e565b106108075760405162461bcd60e51b815260206004820152601260248201527152656163686564206d617820537570706c7960701b6044820152606401610265565b610811828261165b565b5050565b6000546001600160a01b0316331461083f5760405162461bcd60e51b8152600401610265906127c3565b600a80546001600160a01b0319166001600160a01b0392909216919091179055565b60606004805461087090612826565b80601f016020809104026020016040519081016040528092919081815260200182805461089c90612826565b80156108e95780601f106108be576101008083540402835291602001916108e9565b820191906000526020600020905b8154815290600101906020018083116108cc57829003601f168201915b5050505050905090565b60006108fe82611675565b61091b576040516333d1c03960e21b815260040160405180910390fd5b506000908152600860205260409020546001600160a01b031690565b600061094282610f86565b9050806001600160a01b0316836001600160a01b0316036109765760405163250fdee360e21b815260040160405180910390fd5b336001600160a01b03821614801590610996575061099481336106d2565b155b156109b4576040516367d9dca160e11b815260040160405180910390fd5b6109bf8383836116ae565b505050565b6000546001600160a01b031633146109ee5760405162461bcd60e51b8152600401610265906127c3565b805161081190600d906020840190612351565b6109bf83838361170a565b6000546001600160a01b03163314610a365760405162461bcd60e51b8152600401610265906127c3565b806003811115610a4857610a48612752565b600e805460ff60a01b1916600160a01b836003811115610a6a57610a6a612752565b021790555050565b600260015403610ac45760405162461bcd60e51b815260206004820152601f60248201527f5265656e7472616e637947756172643a207265656e7472616e742063616c6c006044820152606401610265565b6002600155600e546040516000916001600160a01b03169047908381818185875af1925050503d8060008114610b16576040519150601f19603f3d011682016040523d82523d6000602084013e610b1b565b606091505b5050905080610b5e5760405162461bcd60e51b815260206004820152600f60248201526e15da5d1a191c985dc819985a5b1959608a1b6044820152606401610265565b5060018055565b6000546001600160a01b03163314610b8f5760405162461bcd60e51b8152600401610265906127c3565b610b97611907565b565b6109bf838383604051806020016040528060008152506113e4565b6000546001600160a01b03163314610bde5760405162461bcd60e51b8152600401610265906127c3565b601155565b323314610c325760405162461bcd60e51b815260206004820152601e60248201527f5468652063616c6c657220697320616e6f7468657220636f6e747261637400006044820152606401610265565b81816000600b547f68e83002b91b0fd96d4df3566b5122221117e3ec6c2468fda594f6491f89b1c933604051602001610c7e9291909182526001600160a01b0316602082015260400190565b60405160208183030381529060405280519060200120604051602001610cbb92919061190160f01b81526002810192909252602282015260420190565b6040516020818303038152906040528051906020012090506000610d1784848080601f01602080910402602001604051908101604052809392919081815260200183838082843760009201919091525086939250506119a49050565b600a549091506001600160a01b03808316911614610d695760405162461bcd60e51b815260206004820152600f60248201526e139bdd081dda1a5d195b1a5cdd1959608a1b6044820152606401610265565b6011546000819003610daa5760405162461bcd60e51b815260206004820152600a6024820152690507269636520697320360b41b6044820152606401610265565b6001600e54600160a01b900460ff166003811115610dca57610dca612752565b14610e175760405162461bcd60e51b815260206004820152601960248201527f57686974656c6973742053616c65206e6f7420616374697665000000000000006044820152606401610265565b601054610e2590600161280e565b33600090815260126020526040902054610e40908a9061280e565b10610e885760405162461bcd60e51b815260206004820152601860248201527713585e081b5a5b9d08185b5bdd5b9d08195e18d95959195960421b6044820152606401610265565b600f54610e97906103e8612860565b610ea290600161280e565b88610eb4600354600254036000190190565b610ebe919061280e565b10610f015760405162461bcd60e51b815260206004820152601360248201527213585e081cdd5c1c1b1e48195e18d959591959606a1b6044820152606401610265565b610f0b81896119c8565b341015610f4d5760405162461bcd60e51b815260206004820152601060248201526f4e6f7420656e6f7567682066756e647360801b6044820152606401610265565b610f57898961165b565b33600090815260126020526040812080548a9290610f7690849061280e565b9091555050505050505050505050565b6000610f91826119db565b5192915050565b6000546001600160a01b03163314610fc25760405162461bcd60e51b8152600401610265906127c3565b600f55565b60006001600160a01b038216610ff0576040516323d3ad8160e21b815260040160405180910390fd5b506001600160a01b031660009081526007602052604090205467ffffffffffffffff1690565b6000546001600160a01b031633146110405760405162461bcd60e51b8152600401610265906127c3565b610b976000611b04565b6000546001600160a01b031633146110745760405162461bcd60e51b8152600401610265906127c3565b610b97611b54565b60606005805461087090612826565b6000546001600160a01b031633146110b55760405162461bcd60e51b8152600401610265906127c3565b80516110c890600c906020840190612351565b507f23c8c9488efebfd474e85a7956de6f39b17c7ab88502d42a623db2d8e382bbaa600c6040516110f99190612877565b60405180910390a150565b336001600160a01b0383160361112d5760405163b06307db60e01b815260040160405180910390fd5b3360008181526009602090815260408083206001600160a01b03871680855290835292819020805460ff191686151590811790915590519081529192917f17307eab39ab6107e8899845ad3d59bd9653f200f220920489ca2b5937696c31910160405180910390a35050565b3233146111e85760405162461bcd60e51b815260206004820152601e60248201527f5468652063616c6c657220697320616e6f7468657220636f6e747261637400006044820152606401610265565b60115460008190036112295760405162461bcd60e51b815260206004820152600a6024820152690507269636520697320360b41b6044820152606401610265565b6001600e54600160a01b900460ff16600381111561124957611249612752565b1161128f5760405162461bcd60e51b81526020600482015260166024820152755075626c69632053616c65206e6f742061637469766560501b6044820152606401610265565b60105461129d90600161280e565b82106112e65760405162461bcd60e51b815260206004820152601860248201527713585e081b5a5b9d08185b5bdd5b9d08195e18d95959195960421b6044820152606401610265565b600f546112f5906103e8612860565b61130090600161280e565b82611312600354600254036000190190565b61131c919061280e565b1061135f5760405162461bcd60e51b815260206004820152601360248201527213585e081cdd5c1c1b1e48195e18d959591959606a1b6044820152606401610265565b61136981836119c8565b3410156113ab5760405162461bcd60e51b815260206004820152601060248201526f4e6f7420656e6f7567682066756e647360801b6044820152606401610265565b6109bf838361165b565b6000546001600160a01b031633146113df5760405162461bcd60e51b8152600401610265906127c3565b601055565b6113ef84848461170a565b6001600160a01b0383163b15158015611411575061140f84848484611bdc565b155b1561142f576040516368d2bf6b60e11b815260040160405180910390fd5b50505050565b606061144082611675565b61148c5760405162461bcd60e51b815260206004820152601f60248201527f55524920717565727920666f72206e6f6e6578697374656e7420746f6b656e006044820152606401610265565b6003600e54600160a01b900460ff1660038111156114ac576114ac612752565b101561154457600d80546114bf90612826565b80601f01602080910402602001604051908101604052809291908181526020018280546114eb90612826565b80156115385780601f1061150d57610100808354040283529160200191611538565b820191906000526020600020905b81548152906001019060200180831161151b57829003601f168201915b50505050509050919050565b6000600c805461155390612826565b90501161156f576040518060200160405280600081525061076c565b600c61157a83611cc8565b60405160200161158b9291906128fc565b60405160208183030381529060405292915050565b6060604051806060016040528060368152602001612a7660369139905090565b6000546001600160a01b031633146115ea5760405162461bcd60e51b8152600401610265906127c3565b6001600160a01b03811661164f5760405162461bcd60e51b815260206004820152602660248201527f4f776e61626c653a206e6577206f776e657220697320746865207a65726f206160448201526564647265737360d01b6064820152608401610265565b61165881611b04565b50565b610811828260405180602001604052806000815250611dc9565b600081600111158015611689575060025482105b801561076c575050600090815260066020526040902054600160e01b900460ff161590565b60008281526008602052604080822080546001600160a01b0319166001600160a01b0387811691821790925591518593918516917f8c5be1e5ebec7d5bd14f71427d1e84f3dd0314c0f7b2291e5b200ac8c7c3b92591a4505050565b6000611715826119db565b9050836001600160a01b031681600001516001600160a01b03161461174c5760405162a1148160e81b815260040160405180910390fd5b6000336001600160a01b038616148061176a575061176a85336106d2565b8061178557503361177a846108f3565b6001600160a01b0316145b9050806117a557604051632ce44b5f60e11b815260040160405180910390fd5b6001600160a01b0384166117cc57604051633a954ecd60e21b815260040160405180910390fd5b6117d98585856001611dd6565b6117e5600084876116ae565b6001600160a01b038581166000908152600760209081526040808320805467ffffffffffffffff1980821667ffffffffffffffff92831660001901831617909255898616808652838620805493841693831660019081018416949094179055898652600690945282852080546001600160e01b031916909417600160a01b429092169190910217835587018084529220805491939091166118bb5760025482146118bb578054602086015167ffffffffffffffff16600160a01b026001600160e01b03199091166001600160a01b038a16171781555b50505082846001600160a01b0316866001600160a01b03167fddf252ad1be2c89b69c2b068fc378daa952ba7f163c4a11628f55a4df523b3ef60405160405180910390a45b5050505050565b600054600160a01b900460ff166119575760405162461bcd60e51b815260206004820152601460248201527314185d5cd8589b194e881b9bdd081c185d5cd95960621b6044820152606401610265565b6000805460ff60a01b191690557f5db9ee0a495bf2e6ff9c91a7834c1ba4fdd244a5e8aa4e537bd38aeae4b073aa335b6040516001600160a01b03909116815260200160405180910390a1565b60008060006119b38585611e28565b915091506119c081611e96565b509392505050565b60006119d4828461298f565b9392505050565b60408051606081018252600080825260208201819052918101919091528180600111158015611a0b575060025481105b15611aeb57600081815260066020908152604091829020825160608101845290546001600160a01b0381168252600160a01b810467ffffffffffffffff1692820192909252600160e01b90910460ff16151591810182905290611ae95780516001600160a01b031615611a7f579392505050565b5060001901600081815260066020908152604091829020825160608101845290546001600160a01b038116808352600160a01b820467ffffffffffffffff1693830193909352600160e01b900460ff1615159281019290925215611ae4579392505050565b611a7f565b505b604051636f96cda160e11b815260040160405180910390fd5b600080546001600160a01b038381166001600160a01b0319831681178455604051919092169283917f8be0079c531659141344cd1fd0a4f28419497f9722a3daafe3b4186f6b6457e09190a35050565b600054600160a01b900460ff1615611ba15760405162461bcd60e51b815260206004820152601060248201526f14185d5cd8589b194e881c185d5cd95960821b6044820152606401610265565b6000805460ff60a01b1916600160a01b1790557f62e78cea01bee320cd4e420270b5ea74000d11b0c9f74754ebdbfc544b05a2586119873390565b604051630a85bd0160e11b81526000906001600160a01b0385169063150b7a0290611c119033908990889088906004016129ae565b6020604051808303816000875af1925050508015611c4c575060408051601f3d908101601f19168201909252611c49918101906129eb565b60015b611caa573d808015611c7a576040519150601f19603f3d011682016040523d82523d6000602084013e611c7f565b606091505b508051600003611ca2576040516368d2bf6b60e11b815260040160405180910390fd5b805181602001fd5b6001600160e01b031916630a85bd0160e11b1490505b949350505050565b606081600003611cef5750506040805180820190915260018152600360fc1b602082015290565b8160005b8115611d195780611d0381612a08565b9150611d129050600a83612a37565b9150611cf3565b60008167ffffffffffffffff811115611d3457611d34612502565b6040519080825280601f01601f191660200182016040528015611d5e576020820181803683370190505b5090505b8415611cc057611d73600183612860565b9150611d80600a86612a4b565b611d8b90603061280e565b60f81b818381518110611da057611da0612a5f565b60200101906001600160f81b031916908160001a905350611dc2600a86612a37565b9450611d62565b6109bf838383600161204c565b600054600160a01b900460ff1615611e235760405162461bcd60e51b815260206004820152601060248201526f14185d5cd8589b194e881c185d5cd95960821b6044820152606401610265565b61142f565b6000808251604103611e5e5760208301516040840151606085015160001a611e528782858561222b565b94509450505050611e8f565b8251604003611e875760208301516040840151611e7c868383612318565b935093505050611e8f565b506000905060025b9250929050565b6000816004811115611eaa57611eaa612752565b03611eb25750565b6001816004811115611ec657611ec6612752565b03611f135760405162461bcd60e51b815260206004820152601860248201527f45434453413a20696e76616c6964207369676e617475726500000000000000006044820152606401610265565b6002816004811115611f2757611f27612752565b03611f745760405162461bcd60e51b815260206004820152601f60248201527f45434453413a20696e76616c6964207369676e6174757265206c656e677468006044820152606401610265565b6003816004811115611f8857611f88612752565b03611fe05760405162461bcd60e51b815260206004820152602260248201527f45434453413a20696e76616c6964207369676e6174757265202773272076616c604482015261756560f01b6064820152608401610265565b6004816004811115611ff457611ff4612752565b036116585760405162461bcd60e51b815260206004820152602260248201527f45434453413a20696e76616c6964207369676e6174757265202776272076616c604482015261756560f01b6064820152608401610265565b6002546001600160a01b03851661207557604051622e076360e81b815260040160405180910390fd5b836000036120965760405163b562e8dd60e01b815260040160405180910390fd5b6120a36000868387611dd6565b6001600160a01b038516600081815260076020908152604080832080546fffffffffffffffffffffffffffffffff19811667ffffffffffffffff8083168c0181169182176801000000000000000067ffffffffffffffff1990941690921783900481168c01811690920217909155858452600690925290912080546001600160e01b031916909217600160a01b42909216919091021790558080850183801561215557506001600160a01b0387163b15155b156121dd575b60405182906001600160a01b038916906000907fddf252ad1be2c89b69c2b068fc378daa952ba7f163c4a11628f55a4df523b3ef908290a46121a66000888480600101955088611bdc565b6121c3576040516368d2bf6b60e11b815260040160405180910390fd5b80820361215b5782600254146121d857600080fd5b612222565b5b6040516001830192906001600160a01b038916906000907fddf252ad1be2c89b69c2b068fc378daa952ba7f163c4a11628f55a4df523b3ef908290a48082036121de575b50600255611900565b6000807f7fffffffffffffffffffffffffffffff5d576e7357a4501ddfe92f46681b20a0831115612262575060009050600361230f565b8460ff16601b1415801561227a57508460ff16601c14155b1561228b575060009050600461230f565b6040805160008082526020820180845289905260ff881692820192909252606081018690526080810185905260019060a0016020604051602081039080840390855afa1580156122df573d6000803e3d6000fd5b5050604051601f1901519150506001600160a01b0381166123085760006001925092505061230f565b9150600090505b94509492505050565b6000806001600160ff1b0383168161233560ff86901c601b61280e565b90506123438782888561222b565b935093505050935093915050565b82805461235d90612826565b90600052602060002090601f01602090048101928261237f57600085556123c5565b82601f1061239857805160ff19168380011785556123c5565b828001600101855582156123c5579182015b828111156123c55782518255916020019190600101906123aa565b506123d19291506123d5565b5090565b5b808211156123d157600081556001016123d6565b6001600160e01b03198116811461165857600080fd5b60006020828403121561241257600080fd5b81356119d4816123ea565b80356001600160a01b038116811461243457600080fd5b919050565b6000806040838503121561244c57600080fd5b6124558361241d565b946020939093013593505050565b60006020828403121561247557600080fd5b6119d48261241d565b60005b83811015612499578181015183820152602001612481565b8381111561142f5750506000910152565b600081518084526124c281602086016020860161247e565b601f01601f19169290920160200192915050565b6020815260006119d460208301846124aa565b6000602082840312156124fb57600080fd5b5035919050565b634e487b7160e01b600052604160045260246000fd5b600067ffffffffffffffff8084111561253357612533612502565b604051601f8501601f19908116603f0116810190828211818310171561255b5761255b612502565b8160405280935085815286868601111561257457600080fd5b858560208301376000602087830101525050509392505050565b6000602082840312156125a057600080fd5b813567ffffffffffffffff8111156125b757600080fd5b8201601f810184136125c857600080fd5b611cc084823560208401612518565b6000806000606084860312156125ec57600080fd5b6125f58461241d565b92506126036020850161241d565b9150604084013590509250925092565b6000806000806060858703121561262957600080fd5b6126328561241d565b935060208501359250604085013567ffffffffffffffff8082111561265657600080fd5b818701915087601f83011261266a57600080fd5b81358181111561267957600080fd5b88602082850101111561268b57600080fd5b95989497505060200194505050565b600080604083850312156126ad57600080fd5b6126b68361241d565b9150602083013580151581146126cb57600080fd5b809150509250929050565b600080600080608085870312156126ec57600080fd5b6126f58561241d565b93506127036020860161241d565b925060408501359150606085013567ffffffffffffffff81111561272657600080fd5b8501601f8101871361273757600080fd5b61274687823560208401612518565b91505092959194509250565b634e487b7160e01b600052602160045260246000fd5b602081016004831061278a57634e487b7160e01b600052602160045260246000fd5b91905290565b600080604083850312156127a357600080fd5b6127ac8361241d565b91506127ba6020840161241d565b90509250929050565b6020808252818101527f4f776e61626c653a2063616c6c6572206973206e6f7420746865206f776e6572604082015260600190565b634e487b7160e01b600052601160045260246000fd5b60008219821115612821576128216127f8565b500190565b600181811c9082168061283a57607f821691505b60208210810361285a57634e487b7160e01b600052602260045260246000fd5b50919050565b600082821015612872576128726127f8565b500390565b600060208083526000845461288b81612826565b808487015260406001808416600081146128ac57600181146128c0576128ee565b60ff198516898401526060890195506128ee565b896000528660002060005b858110156128e65781548b82018601529083019088016128cb565b8a0184019650505b509398975050505050505050565b600080845461290a81612826565b60018281168015612922576001811461293357612962565b60ff19841687528287019450612962565b8860005260208060002060005b858110156129595781548a820152908401908201612940565b50505082870194505b50505050835161297681836020880161247e565b64173539b7b760d91b9101908152600501949350505050565b60008160001904831182151516156129a9576129a96127f8565b500290565b6001600160a01b03858116825284166020820152604081018390526080606082018190526000906129e1908301846124aa565b9695505050505050565b6000602082840312156129fd57600080fd5b81516119d4816123ea565b600060018201612a1a57612a1a6127f8565b5060010190565b634e487b7160e01b600052601260045260246000fd5b600082612a4657612a46612a21565b500490565b600082612a5a57612a5a612a21565b500690565b634e487b7160e01b600052603260045260246000fdfe697066733a2f2f516d627654394c34374d56756d3769636e6f4362377350505931376d774251787a59694748516268794a765048362fa26469706673582212207a3bd5fcf7d34a25d4cfc2e53d7aad97d6b6f31c273e3fe5f593fb066a07a93564736f6c634300080d0033",
  "linkReferences": {},
  "deployedLinkReferences": {}
}