{
  "_format": "hh-sol-artifact-1",
  "contractName": "MagicMondrian",
  "sourceName": "contracts/MagicMondrian.sol",
  "abi": [
    {
      "inputs": [
        {
          "internalType": "address",
          "name": "_paymentSplitter",
          "type": "address"
        },
        {
          "internalType": "address",
          "name": "_signerAddress",
          "type": "address"
        },
        {
          "internalType": "string",
          "name": "_baseURI",
          "type": "string"
        }
      ],
      "stateMutability": "nonpayable",
      "type": "constructor"
    },
    {
      "inputs": [],
      "name": "ApprovalCallerNotOwnerNorApproved",
      "type": "error"
    },
    {
      "inputs": [],
      "name": "ApprovalQueryForNonexistentToken",
      "type": "error"
    },
    {
      "inputs": [],
      "name": "ApprovalToCurrentOwner",
      "type": "error"
    },
    {
      "inputs": [],
      "name": "ApproveToCaller",
      "type": "error"
    },
    {
      "inputs": [],
      "name": "BalanceQueryForZeroAddress",
      "type": "error"
    },
    {
      "inputs": [],
      "name": "MintToZeroAddress",
      "type": "error"
    },
    {
      "inputs": [],
      "name": "MintZeroQuantity",
      "type": "error"
    },
    {
      "inputs": [],
      "name": "OwnerQueryForNonexistentToken",
      "type": "error"
    },
    {
      "inputs": [],
      "name": "TransferCallerNotOwnerNorApproved",
      "type": "error"
    },
    {
      "inputs": [],
      "name": "TransferFromIncorrectOwner",
      "type": "error"
    },
    {
      "inputs": [],
      "name": "TransferToNonERC721ReceiverImplementer",
      "type": "error"
    },
    {
      "inputs": [],
      "name": "TransferToZeroAddress",
      "type": "error"
    },
    {
      "anonymous": false,
      "inputs": [
        {
          "indexed": true,
          "internalType": "address",
          "name": "owner",
          "type": "address"
        },
        {
          "indexed": true,
          "internalType": "address",
          "name": "approved",
          "type": "address"
        },
        {
          "indexed": true,
          "internalType": "uint256",
          "name": "tokenId",
          "type": "uint256"
        }
      ],
      "name": "Approval",
      "type": "event"
    },
    {
      "anonymous": false,
      "inputs": [
        {
          "indexed": true,
          "internalType": "address",
          "name": "owner",
          "type": "address"
        },
        {
          "indexed": true,
          "internalType": "address",
          "name": "operator",
          "type": "address"
        },
        {
          "indexed": false,
          "internalType": "bool",
          "name": "approved",
          "type": "bool"
        }
      ],
      "name": "ApprovalForAll",
      "type": "event"
    },
    {
      "anonymous": false,
      "inputs": [
        {
          "indexed": true,
          "internalType": "address",
          "name": "previousOwner",
          "type": "address"
        },
        {
          "indexed": true,
          "internalType": "address",
          "name": "newOwner",
          "type": "address"
        }
      ],
      "name": "OwnershipTransferred",
      "type": "event"
    },
    {
      "anonymous": false,
      "inputs": [
        {
          "indexed": false,
          "internalType": "address",
          "name": "account",
          "type": "address"
        }
      ],
      "name": "Paused",
      "type": "event"
    },
    {
      "anonymous": false,
      "inputs": [
        {
          "indexed": true,
          "internalType": "address",
          "name": "from",
          "type": "address"
        },
        {
          "indexed": true,
          "internalType": "address",
          "name": "to",
          "type": "address"
        },
        {
          "indexed": true,
          "internalType": "uint256",
          "name": "tokenId",
          "type": "uint256"
        }
      ],
      "name": "Transfer",
      "type": "event"
    },
    {
      "anonymous": false,
      "inputs": [
        {
          "indexed": false,
          "internalType": "address",
          "name": "account",
          "type": "address"
        }
      ],
      "name": "Unpaused",
      "type": "event"
    },
    {
      "inputs": [],
      "name": "MAX_SUPPLY",
      "outputs": [
        {
          "internalType": "uint256",
          "name": "",
          "type": "uint256"
        }
      ],
      "stateMutability": "view",
      "type": "function"
    },
    {
      "inputs": [
        {
          "internalType": "address",
          "name": "_to",
          "type": "address"
        },
        {
          "internalType": "uint256",
          "name": "_quantity",
          "type": "uint256"
        }
      ],
      "name": "airDrop",
      "outputs": [],
      "stateMutability": "nonpayable",
      "type": "function"
    },
    {
      "inputs": [
        {
          "internalType": "address",
          "name": "",
          "type": "address"
        }
      ],
      "name": "amountNFTsperWalletWhitelistSale",
      "outputs": [
        {
          "internalType": "uint256",
          "name": "",
          "type": "uint256"
        }
      ],
      "stateMutability": "view",
      "type": "function"
    },
    {
      "inputs": [
        {
          "internalType": "address",
          "name": "to",
          "type": "address"
        },
        {
          "internalType": "uint256",
          "name": "tokenId",
          "type": "uint256"
        }
      ],
      "name": "approve",
      "outputs": [],
      "stateMutability": "nonpayable",
      "type": "function"
    },
    {
      "inputs": [
        {
          "internalType": "address",
          "name": "owner",
          "type": "address"
        }
      ],
      "name": "balanceOf",
      "outputs": [
        {
          "internalType": "uint256",
          "name": "",
          "type": "uint256"
        }
      ],
      "stateMutability": "view",
      "type": "function"
    },
    {
      "inputs": [],
      "name": "contractURI",
      "outputs": [
        {
          "internalType": "string",
          "name": "",
          "type": "string"
        }
      ],
      "stateMutability": "view",
      "type": "function"
    },
    {
      "inputs": [],
      "name": "cost",
      "outputs": [
        {
          "internalType": "uint256",
          "name": "",
          "type": "uint256"
        }
      ],
      "stateMutability": "view",
      "type": "function"
    },
    {
      "inputs": [
        {
          "internalType": "uint256",
          "name": "tokenId",
          "type": "uint256"
        }
      ],
      "name": "getApproved",
      "outputs": [
        {
          "internalType": "address",
          "name": "",
          "type": "address"
        }
      ],
      "stateMutability": "view",
      "type": "function"
    },
    {
      "inputs": [
        {
          "internalType": "address",
          "name": "",
          "type": "address"
        },
        {
          "internalType": "uint256",
          "name": "",
          "type": "uint256"
        }
      ],
      "name": "hasPrintedOnce",
      "outputs": [
        {
          "internalType": "bool",
          "name": "",
          "type": "bool"
        }
      ],
      "stateMutability": "view",
      "type": "function"
    },
    {
      "inputs": [
        {
          "internalType": "address",
          "name": "owner",
          "type": "address"
        },
        {
          "internalType": "address",
          "name": "operator",
          "type": "address"
        }
      ],
      "name": "isApprovedForAll",
      "outputs": [
        {
          "internalType": "bool",
          "name": "",
          "type": "bool"
        }
      ],
      "stateMutability": "view",
      "type": "function"
    },
    {
      "inputs": [],
      "name": "maxMint",
      "outputs": [
        {
          "internalType": "uint256",
          "name": "",
          "type": "uint256"
        }
      ],
      "stateMutability": "view",
      "type": "function"
    },
    {
      "inputs": [],
      "name": "maxReserved",
      "outputs": [
        {
          "internalType": "uint256",
          "name": "",
          "type": "uint256"
        }
      ],
      "stateMutability": "view",
      "type": "function"
    },
    {
      "inputs": [],
      "name": "name",
      "outputs": [
        {
          "internalType": "string",
          "name": "",
          "type": "string"
        }
      ],
      "stateMutability": "view",
      "type": "function"
    },
    {
      "inputs": [],
      "name": "owner",
      "outputs": [
        {
          "internalType": "address",
          "name": "",
          "type": "address"
        }
      ],
      "stateMutability": "view",
      "type": "function"
    },
    {
      "inputs": [
        {
          "internalType": "uint256",
          "name": "tokenId",
          "type": "uint256"
        }
      ],
      "name": "ownerOf",
      "outputs": [
        {
          "internalType": "address",
          "name": "",
          "type": "address"
        }
      ],
      "stateMutability": "view",
      "type": "function"
    },
    {
      "inputs": [],
      "name": "pause",
      "outputs": [],
      "stateMutability": "nonpayable",
      "type": "function"
    },
    {
      "inputs": [],
      "name": "paused",
      "outputs": [
        {
          "internalType": "bool",
          "name": "",
          "type": "bool"
        }
      ],
      "stateMutability": "view",
      "type": "function"
    },
    {
      "inputs": [
        {
          "internalType": "uint256",
          "name": "_tokenId",
          "type": "uint256"
        }
      ],
      "name": "print",
      "outputs": [],
      "stateMutability": "payable",
      "type": "function"
    },
    {
      "inputs": [],
      "name": "printPrice",
      "outputs": [
        {
          "internalType": "uint256",
          "name": "",
          "type": "uint256"
        }
      ],
      "stateMutability": "view",
      "type": "function"
    },
    {
      "inputs": [
        {
          "internalType": "address",
          "name": "_account",
          "type": "address"
        },
        {
          "internalType": "uint256",
          "name": "_quantity",
          "type": "uint256"
        }
      ],
      "name": "publicSaleMint",
      "outputs": [],
      "stateMutability": "payable",
      "type": "function"
    },
    {
      "inputs": [],
      "name": "renounceOwnership",
      "outputs": [],
      "stateMutability": "nonpayable",
      "type": "function"
    },
    {
      "inputs": [
        {
          "internalType": "address",
          "name": "from",
          "type": "address"
        },
        {
          "internalType": "address",
          "name": "to",
          "type": "address"
        },
        {
          "internalType": "uint256",
          "name": "tokenId",
          "type": "uint256"
        }
      ],
      "name": "safeTransferFrom",
      "outputs": [],
      "stateMutability": "nonpayable",
      "type": "function"
    },
    {
      "inputs": [
        {
          "internalType": "address",
          "name": "from",
          "type": "address"
        },
        {
          "internalType": "address",
          "name": "to",
          "type": "address"
        },
        {
          "internalType": "uint256",
          "name": "tokenId",
          "type": "uint256"
        },
        {
          "internalType": "bytes",
          "name": "_data",
          "type": "bytes"
        }
      ],
      "name": "safeTransferFrom",
      "outputs": [],
      "stateMutability": "nonpayable",
      "type": "function"
    },
    {
      "inputs": [],
      "name": "sellingPhase",
      "outputs": [
        {
          "internalType": "enum MagicMondrian.Phase",
          "name": "",
          "type": "uint8"
        }
      ],
      "stateMutability": "view",
      "type": "function"
    },
    {
      "inputs": [
        {
          "internalType": "address",
          "name": "operator",
          "type": "address"
        },
        {
          "internalType": "bool",
          "name": "approved",
          "type": "bool"
        }
      ],
      "name": "setApprovalForAll",
      "outputs": [],
      "stateMutability": "nonpayable",
      "type": "function"
    },
    {
      "inputs": [
        {
          "internalType": "uint256",
          "name": "_cost",
          "type": "uint256"
        }
      ],
      "name": "setCost",
      "outputs": [],
      "stateMutability": "nonpayable",
      "type": "function"
    },
    {
      "inputs": [
        {
          "internalType": "uint256",
          "name": "_maxMintAmountPerTx",
          "type": "uint256"
        }
      ],
      "name": "setMaxMintAmountPerTx",
      "outputs": [],
      "stateMutability": "nonpayable",
      "type": "function"
    },
    {
      "inputs": [
        {
          "internalType": "uint256",
          "name": "_maxReserved",
          "type": "uint256"
        }
      ],
      "name": "setMaxReserved",
      "outputs": [],
      "stateMutability": "nonpayable",
      "type": "function"
    },
    {
      "inputs": [
        {
          "internalType": "uint256",
          "name": "_phase",
          "type": "uint256"
        }
      ],
      "name": "setPhase",
      "outputs": [],
      "stateMutability": "nonpayable",
      "type": "function"
    },
    {
      "inputs": [
        {
          "internalType": "uint256",
          "name": "_price",
          "type": "uint256"
        }
      ],
      "name": "setPrintPrice",
      "outputs": [],
      "stateMutability": "nonpayable",
      "type": "function"
    },
    {
      "inputs": [
        {
          "internalType": "address",
          "name": "_signerAddress",
          "type": "address"
        }
      ],
      "name": "setSignerAddress",
      "outputs": [],
      "stateMutability": "nonpayable",
      "type": "function"
    },
    {
      "inputs": [
        {
          "internalType": "bytes4",
          "name": "interfaceId",
          "type": "bytes4"
        }
      ],
      "name": "supportsInterface",
      "outputs": [
        {
          "internalType": "bool",
          "name": "",
          "type": "bool"
        }
      ],
      "stateMutability": "view",
      "type": "function"
    },
    {
      "inputs": [],
      "name": "symbol",
      "outputs": [
        {
          "internalType": "string",
          "name": "",
          "type": "string"
        }
      ],
      "stateMutability": "view",
      "type": "function"
    },
    {
      "inputs": [
        {
          "internalType": "uint256",
          "name": "_tokenId",
          "type": "uint256"
        }
      ],
      "name": "tokenURI",
      "outputs": [
        {
          "internalType": "string",
          "name": "",
          "type": "string"
        }
      ],
      "stateMutability": "view",
      "type": "function"
    },
    {
      "inputs": [],
      "name": "totalSupply",
      "outputs": [
        {
          "internalType": "uint256",
          "name": "",
          "type": "uint256"
        }
      ],
      "stateMutability": "view",
      "type": "function"
    },
    {
      "inputs": [
        {
          "internalType": "address",
          "name": "from",
          "type": "address"
        },
        {
          "internalType": "address",
          "name": "to",
          "type": "address"
        },
        {
          "internalType": "uint256",
          "name": "tokenId",
          "type": "uint256"
        }
      ],
      "name": "transferFrom",
      "outputs": [],
      "stateMutability": "nonpayable",
      "type": "function"
    },
    {
      "inputs": [
        {
          "internalType": "address",
          "name": "newOwner",
          "type": "address"
        }
      ],
      "name": "transferOwnership",
      "outputs": [],
      "stateMutability": "nonpayable",
      "type": "function"
    },
    {
      "inputs": [],
      "name": "unpause",
      "outputs": [],
      "stateMutability": "nonpayable",
      "type": "function"
    },
    {
      "inputs": [
        {
          "internalType": "address",
          "name": "_account",
          "type": "address"
        },
        {
          "internalType": "uint256",
          "name": "_quantity",
          "type": "uint256"
        },
        {
          "internalType": "bytes",
          "name": "_signature",
          "type": "bytes"
        }
      ],
      "name": "whitelistMint",
      "outputs": [],
      "stateMutability": "payable",
      "type": "function"
    },
    {
      "inputs": [],
      "name": "withdraw",
      "outputs": [],
      "stateMutability": "nonpayable",
      "type": "function"
    },
    {
      "stateMutability": "payable",
      "type": "receive"
    }
  ],
  "bytecode": "0x60e0604052603660808181529062002f2f60a03980516200002991600d91602090910190620002b5565b50600e80546001600160a01b031916735d972d27b3d89bc9a9df692670034224eb6de4d31790556032601055606460115565e35fa931a000601255655af3107a40006013553480156200007b57600080fd5b5060405162002f6538038062002f658339810160408190526200009e916200038e565b816040518060400160405280600e81526020016d26b0b3b4b19026b7b7323934b0b760911b8152506040518060400160405280600e81526020016d26b0b3b4b19026b7b7323934b0b760911b815250604051806040016040528060048152602001634d414d4f60e01b815250620001246200011e6200026160201b60201c565b62000265565b6000805460ff60a01b191690556001805581516200014a906004906020850190620002b5565b50805162000160906005906020840190620002b5565b5060016002555050600a80546001600160a01b0319166001600160a01b038416179055805160208083019190912060408051808201825260018152603160f81b9084015280517f8b73c3c69bb8fe3d512ecc4cf759cc79239f7b179b0ffacaa9a75d522b39400f938101939093528201527fc89efdaa54c0f20c7adf612882df0950f5a951637e0307cdcb4c672f298b8bc660608201524660808201523060a082015260c00160408051601f198184030181529190528051602091820120600b558351620002379350600c925090840190620002b5565b5050600f80546001600160a01b0319166001600160a01b03939093169290921790915550620004ce565b3390565b600080546001600160a01b038381166001600160a01b0319831681178455604051919092169283917f8be0079c531659141344cd1fd0a4f28419497f9722a3daafe3b4186f6b6457e09190a35050565b828054620002c39062000492565b90600052602060002090601f016020900481019282620002e7576000855562000332565b82601f106200030257805160ff191683800117855562000332565b8280016001018555821562000332579182015b828111156200033257825182559160200191906001019062000315565b506200034092915062000344565b5090565b5b8082111562000340576000815560010162000345565b80516001600160a01b03811681146200037357600080fd5b919050565b634e487b7160e01b600052604160045260246000fd5b600080600060608486031215620003a457600080fd5b620003af846200035b565b92506020620003c08186016200035b565b60408601519093506001600160401b0380821115620003de57600080fd5b818701915087601f830112620003f357600080fd5b81518181111562000408576200040862000378565b604051601f8201601f19908116603f0116810190838211818310171562000433576200043362000378565b816040528281528a868487010111156200044c57600080fd5b600093505b8284101562000470578484018601518185018701529285019262000451565b82841115620004825760008684830101525b8096505050505050509250925092565b600181811c90821680620004a757607f821691505b602082108103620004c857634e487b7160e01b600052602260045260246000fd5b50919050565b612a5180620004de6000396000f3fe60806040526004361061023f5760003560e01c80636bee18bd1161012e578063a9898fd9116100ab578063c87b56dd1161006f578063c87b56dd146106bb578063dae55cb3146106db578063e8a3d48514610709578063e985e9c51461071e578063f2fde38b1461076757600080fd5b8063a9898fd914610632578063ac5ae11b14610648578063b071401b1461065b578063b5d0c04f1461067b578063b88d4fde1461069b57600080fd5b80638da5cb5b116100f25780638da5cb5b1461057757806395d89b411461059557806399d13800146105aa5780639bf1936e146105d7578063a22cb4651461061257600080fd5b80636bee18bd146104f757806370a0823114610517578063715018a6146105375780637501f7411461054c5780638456cb591461056257600080fd5b806332cb6b0c116101bc5780635c975abb116101805780635c975abb1461047c5780635ed222e31461049b5780635f2f1797146104ae5780636352211e146104c45780636bb0ae10146104e457600080fd5b806332cb6b0c146103fc5780633ccfd60b146104125780633f4ba83a1461042757806342842e0e1461043c57806344a0d68a1461045c57600080fd5b8063095ea7b311610203578063095ea7b31461035a57806313faede61461037a57806318160ddd1461039e57806323b872dd146103bc5780632cc82655146103dc57600080fd5b806301ffc9a714610289578063045f7850146102be578063046dc166146102e057806306fdde0314610300578063081812fc1461032257600080fd5b366102845760405162461bcd60e51b815260206004820152601060248201526f13db9b1e481a59881e5bdd481b5a5b9d60821b60448201526064015b60405180910390fd5b600080fd5b34801561029557600080fd5b506102a96102a43660046123e6565b610787565b60405190151581526020015b60405180910390f35b3480156102ca57600080fd5b506102de6102d936600461241f565b6107d9565b005b3480156102ec57600080fd5b506102de6102fb366004612449565b61087c565b34801561030c57600080fd5b506103156108c8565b6040516102b591906124bc565b34801561032e57600080fd5b5061034261033d3660046124cf565b61095a565b6040516001600160a01b0390911681526020016102b5565b34801561036657600080fd5b506102de61037536600461241f565b61099e565b34801561038657600080fd5b5061039060125481565b6040519081526020016102b5565b3480156103aa57600080fd5b50610390600354600254036000190190565b3480156103c857600080fd5b506102de6103d73660046124e8565b610a2b565b3480156103e857600080fd5b506102de6103f73660046124cf565b610a36565b34801561040857600080fd5b506103906103e881565b34801561041e57600080fd5b506102de610a9c565b34801561043357600080fd5b506102de610b8f565b34801561044857600080fd5b506102de6104573660046124e8565b610bc3565b34801561046857600080fd5b506102de6104773660046124cf565b610bde565b34801561048857600080fd5b50600054600160a01b900460ff166102a9565b6102de6104a9366004612524565b610c0d565b3480156104ba57600080fd5b5061039060135481565b3480156104d057600080fd5b506103426104df3660046124cf565b610f5d565b6102de6104f23660046124cf565b610f6f565b34801561050357600080fd5b506102de6105123660046124cf565b61117d565b34801561052357600080fd5b50610390610532366004612449565b6111ac565b34801561054357600080fd5b506102de6111fb565b34801561055857600080fd5b5061039060115481565b34801561056e57600080fd5b506102de61122f565b34801561058357600080fd5b506000546001600160a01b0316610342565b3480156105a157600080fd5b50610315611261565b3480156105b657600080fd5b506103906105c5366004612449565b60146020526000908152604090205481565b3480156105e357600080fd5b506102a96105f236600461241f565b601560209081526000928352604080842090915290825290205460ff1681565b34801561061e57600080fd5b506102de61062d3660046125ab565b611270565b34801561063e57600080fd5b5061039060105481565b6102de61065636600461241f565b611305565b34801561066757600080fd5b506102de6106763660046124cf565b6114ce565b34801561068757600080fd5b506102de6106963660046124cf565b6114fd565b3480156106a757600080fd5b506102de6106b63660046125fd565b61152c565b3480156106c757600080fd5b506103156106d63660046124cf565b61157d565b3480156106e757600080fd5b50600f546106fc90600160a01b900460ff1681565b6040516102b591906126ef565b34801561071557600080fd5b50610315611630565b34801561072a57600080fd5b506102a9610739366004612717565b6001600160a01b03918216600090815260096020908152604080832093909416825291909152205460ff1690565b34801561077357600080fd5b506102de610782366004612449565b61163f565b60006001600160e01b031982166380ac58cd60e01b14806107b857506001600160e01b03198216635b5e139f60e01b145b806107d357506301ffc9a760e01b6001600160e01b03198316145b92915050565b6000546001600160a01b031633146108035760405162461bcd60e51b815260040161027b9061274a565b6108106103e86001612795565b81610822600354600254036000190190565b61082c9190612795565b1061086e5760405162461bcd60e51b815260206004820152601260248201527152656163686564206d617820537570706c7960701b604482015260640161027b565b61087882826116da565b5050565b6000546001600160a01b031633146108a65760405162461bcd60e51b815260040161027b9061274a565b600a80546001600160a01b0319166001600160a01b0392909216919091179055565b6060600480546108d7906127ad565b80601f0160208091040260200160405190810160405280929190818152602001828054610903906127ad565b80156109505780601f1061092557610100808354040283529160200191610950565b820191906000526020600020905b81548152906001019060200180831161093357829003601f168201915b5050505050905090565b6000610965826116f4565b610982576040516333d1c03960e21b815260040160405180910390fd5b506000908152600860205260409020546001600160a01b031690565b60006109a982610f5d565b9050806001600160a01b0316836001600160a01b0316036109dd5760405163250fdee360e21b815260040160405180910390fd5b336001600160a01b038216148015906109fd57506109fb8133610739565b155b15610a1b576040516367d9dca160e11b815260040160405180910390fd5b610a2683838361172d565b505050565b610a26838383611789565b6000546001600160a01b03163314610a605760405162461bcd60e51b815260040161027b9061274a565b806002811115610a7257610a726126d9565b600f805460ff60a01b1916600160a01b836002811115610a9457610a946126d9565b021790555050565b600260015403610aee5760405162461bcd60e51b815260206004820152601f60248201527f5265656e7472616e637947756172643a207265656e7472616e742063616c6c00604482015260640161027b565b6002600155600f546040516000916001600160a01b03169047908381818185875af1925050503d8060008114610b40576040519150601f19603f3d011682016040523d82523d6000602084013e610b45565b606091505b5050905080610b885760405162461bcd60e51b815260206004820152600f60248201526e15da5d1a191c985dc819985a5b1959608a1b604482015260640161027b565b5060018055565b6000546001600160a01b03163314610bb95760405162461bcd60e51b815260040161027b9061274a565b610bc1611986565b565b610a268383836040518060200160405280600081525061152c565b6000546001600160a01b03163314610c085760405162461bcd60e51b815260040161027b9061274a565b601255565b323314610c2c5760405162461bcd60e51b815260040161027b906127e7565b81816000600b547f68e83002b91b0fd96d4df3566b5122221117e3ec6c2468fda594f6491f89b1c933604051602001610c789291909182526001600160a01b0316602082015260400190565b60405160208183030381529060405280519060200120604051602001610cb592919061190160f01b81526002810192909252602282015260420190565b6040516020818303038152906040528051906020012090506000610d1184848080601f0160208091040260200160405190810160405280939291908181526020018383808284376000920191909152508693925050611a239050565b600a549091506001600160a01b03808316911614610d635760405162461bcd60e51b815260206004820152600f60248201526e139bdd081dda1a5d195b1a5cdd1959608a1b604482015260640161027b565b6012546000819003610da45760405162461bcd60e51b815260206004820152600a6024820152690507269636520697320360b41b604482015260640161027b565b6001600f54600160a01b900460ff166002811115610dc457610dc46126d9565b14610e115760405162461bcd60e51b815260206004820152601960248201527f57686974656c6973742053616c65206e6f742061637469766500000000000000604482015260640161027b565b601154610e1f906001612795565b33600090815260146020526040902054610e3a908a90612795565b10610e825760405162461bcd60e51b815260206004820152601860248201527713585e081b5a5b9d08185b5bdd5b9d08195e18d95959195960421b604482015260640161027b565b601054610e91906103e861281e565b610e9c906001612795565b88610eae600354600254036000190190565b610eb89190612795565b10610efb5760405162461bcd60e51b815260206004820152601360248201527213585e081cdd5c1c1b1e48195e18d959591959606a1b604482015260640161027b565b610f058189611a47565b341015610f245760405162461bcd60e51b815260040161027b90612835565b610f2e89896116da565b33600090815260146020526040812080548a9290610f4d908490612795565b9091555050505050505050505050565b6000610f6882611a5a565b5192915050565b323314610f8e5760405162461bcd60e51b815260040161027b906127e7565b336000908152601560209081526040808320848452909152902054819060ff1615610fed5760405162461bcd60e51b815260206004820152600f60248201526e105b1c9958591e481c1c9a5b9d1959608a1b604482015260640161027b565b60026001540361103f5760405162461bcd60e51b815260206004820152601f60248201527f5265656e7472616e637947756172643a207265656e7472616e742063616c6c00604482015260640161027b565b60026001556013543410156110665760405162461bcd60e51b815260040161027b90612835565b3361107083610f5d565b6001600160a01b0316146110bb5760405162461bcd60e51b81526020600482015260126024820152712737ba1037bbb732b91037b3103a37b5b2b760711b604482015260640161027b565b600e546040516000916001600160a01b03169047908381818185875af1925050503d8060008114611108576040519150601f19603f3d011682016040523d82523d6000602084013e61110d565b606091505b50509050806111505760405162461bcd60e51b815260206004820152600f60248201526e15da5d1a191c985dc819985a5b1959608a1b604482015260640161027b565b505033600090815260156020908152604080832093835292905220805460ff191660019081179091558055565b6000546001600160a01b031633146111a75760405162461bcd60e51b815260040161027b9061274a565b601055565b60006001600160a01b0382166111d5576040516323d3ad8160e21b815260040160405180910390fd5b506001600160a01b031660009081526007602052604090205467ffffffffffffffff1690565b6000546001600160a01b031633146112255760405162461bcd60e51b815260040161027b9061274a565b610bc16000611b83565b6000546001600160a01b031633146112595760405162461bcd60e51b815260040161027b9061274a565b610bc1611bd3565b6060600580546108d7906127ad565b336001600160a01b038316036112995760405163b06307db60e01b815260040160405180910390fd5b3360008181526009602090815260408083206001600160a01b03871680855290835292819020805460ff191686151590811790915590519081529192917f17307eab39ab6107e8899845ad3d59bd9653f200f220920489ca2b5937696c31910160405180910390a35050565b3233146113245760405162461bcd60e51b815260040161027b906127e7565b60125460008190036113655760405162461bcd60e51b815260206004820152600a6024820152690507269636520697320360b41b604482015260640161027b565b6001600f54600160a01b900460ff166002811115611385576113856126d9565b116113cb5760405162461bcd60e51b81526020600482015260166024820152755075626c69632053616c65206e6f742061637469766560501b604482015260640161027b565b6011546113d9906001612795565b82106114225760405162461bcd60e51b815260206004820152601860248201527713585e081b5a5b9d08185b5bdd5b9d08195e18d95959195960421b604482015260640161027b565b601054611431906103e861281e565b61143c906001612795565b8261144e600354600254036000190190565b6114589190612795565b1061149b5760405162461bcd60e51b815260206004820152601360248201527213585e081cdd5c1c1b1e48195e18d959591959606a1b604482015260640161027b565b6114a58183611a47565b3410156114c45760405162461bcd60e51b815260040161027b90612835565b610a2683836116da565b6000546001600160a01b031633146114f85760405162461bcd60e51b815260040161027b9061274a565b601155565b6000546001600160a01b031633146115275760405162461bcd60e51b815260040161027b9061274a565b601355565b611537848484611789565b6001600160a01b0383163b15158015611559575061155784848484611c5b565b155b15611577576040516368d2bf6b60e11b815260040160405180910390fd5b50505050565b6060611588826116f4565b6115d45760405162461bcd60e51b815260206004820152601f60248201527f55524920717565727920666f72206e6f6e6578697374656e7420746f6b656e00604482015260640161027b565b6000600c80546115e3906127ad565b9050116115ff57604051806020016040528060008152506107d3565b600c61160a83611d47565b60405160200161161b92919061287b565b60405160208183030381529060405292915050565b6060600d80546108d7906127ad565b6000546001600160a01b031633146116695760405162461bcd60e51b815260040161027b9061274a565b6001600160a01b0381166116ce5760405162461bcd60e51b815260206004820152602660248201527f4f776e61626c653a206e6577206f776e657220697320746865207a65726f206160448201526564647265737360d01b606482015260840161027b565b6116d781611b83565b50565b610878828260405180602001604052806000815250611e48565b600081600111158015611708575060025482105b80156107d3575050600090815260066020526040902054600160e01b900460ff161590565b60008281526008602052604080822080546001600160a01b0319166001600160a01b0387811691821790925591518593918516917f8c5be1e5ebec7d5bd14f71427d1e84f3dd0314c0f7b2291e5b200ac8c7c3b92591a4505050565b600061179482611a5a565b9050836001600160a01b031681600001516001600160a01b0316146117cb5760405162a1148160e81b815260040160405180910390fd5b6000336001600160a01b03861614806117e957506117e98533610739565b806118045750336117f98461095a565b6001600160a01b0316145b90508061182457604051632ce44b5f60e11b815260040160405180910390fd5b6001600160a01b03841661184b57604051633a954ecd60e21b815260040160405180910390fd5b6118588585856001611e55565b6118646000848761172d565b6001600160a01b038581166000908152600760209081526040808320805467ffffffffffffffff1980821667ffffffffffffffff92831660001901831617909255898616808652838620805493841693831660019081018416949094179055898652600690945282852080546001600160e01b031916909417600160a01b4290921691909102178355870180845292208054919390911661193a57600254821461193a578054602086015167ffffffffffffffff16600160a01b026001600160e01b03199091166001600160a01b038a16171781555b50505082846001600160a01b0316866001600160a01b03167fddf252ad1be2c89b69c2b068fc378daa952ba7f163c4a11628f55a4df523b3ef60405160405180910390a45b5050505050565b600054600160a01b900460ff166119d65760405162461bcd60e51b815260206004820152601460248201527314185d5cd8589b194e881b9bdd081c185d5cd95960621b604482015260640161027b565b6000805460ff60a01b191690557f5db9ee0a495bf2e6ff9c91a7834c1ba4fdd244a5e8aa4e537bd38aeae4b073aa335b6040516001600160a01b03909116815260200160405180910390a1565b6000806000611a328585611ea7565b91509150611a3f81611f15565b509392505050565b6000611a538284612935565b9392505050565b60408051606081018252600080825260208201819052918101919091528180600111158015611a8a575060025481105b15611b6a57600081815260066020908152604091829020825160608101845290546001600160a01b0381168252600160a01b810467ffffffffffffffff1692820192909252600160e01b90910460ff16151591810182905290611b685780516001600160a01b031615611afe579392505050565b5060001901600081815260066020908152604091829020825160608101845290546001600160a01b038116808352600160a01b820467ffffffffffffffff1693830193909352600160e01b900460ff1615159281019290925215611b63579392505050565b611afe565b505b604051636f96cda160e11b815260040160405180910390fd5b600080546001600160a01b038381166001600160a01b0319831681178455604051919092169283917f8be0079c531659141344cd1fd0a4f28419497f9722a3daafe3b4186f6b6457e09190a35050565b600054600160a01b900460ff1615611c205760405162461bcd60e51b815260206004820152601060248201526f14185d5cd8589b194e881c185d5cd95960821b604482015260640161027b565b6000805460ff60a01b1916600160a01b1790557f62e78cea01bee320cd4e420270b5ea74000d11b0c9f74754ebdbfc544b05a258611a063390565b604051630a85bd0160e11b81526000906001600160a01b0385169063150b7a0290611c90903390899088908890600401612954565b6020604051808303816000875af1925050508015611ccb575060408051601f3d908101601f19168201909252611cc891810190612991565b60015b611d29573d808015611cf9576040519150601f19603f3d011682016040523d82523d6000602084013e611cfe565b606091505b508051600003611d21576040516368d2bf6b60e11b815260040160405180910390fd5b805181602001fd5b6001600160e01b031916630a85bd0160e11b1490505b949350505050565b606081600003611d6e5750506040805180820190915260018152600360fc1b602082015290565b8160005b8115611d985780611d82816129ae565b9150611d919050600a836129dd565b9150611d72565b60008167ffffffffffffffff811115611db357611db36125e7565b6040519080825280601f01601f191660200182016040528015611ddd576020820181803683370190505b5090505b8415611d3f57611df260018361281e565b9150611dff600a866129f1565b611e0a906030612795565b60f81b818381518110611e1f57611e1f612a05565b60200101906001600160f81b031916908160001a905350611e41600a866129dd565b9450611de1565b610a2683838360016120cb565b600054600160a01b900460ff1615611ea25760405162461bcd60e51b815260206004820152601060248201526f14185d5cd8589b194e881c185d5cd95960821b604482015260640161027b565b611577565b6000808251604103611edd5760208301516040840151606085015160001a611ed1878285856122aa565b94509450505050611f0e565b8251604003611f065760208301516040840151611efb868383612397565b935093505050611f0e565b506000905060025b9250929050565b6000816004811115611f2957611f296126d9565b03611f315750565b6001816004811115611f4557611f456126d9565b03611f925760405162461bcd60e51b815260206004820152601860248201527f45434453413a20696e76616c6964207369676e61747572650000000000000000604482015260640161027b565b6002816004811115611fa657611fa66126d9565b03611ff35760405162461bcd60e51b815260206004820152601f60248201527f45434453413a20696e76616c6964207369676e6174757265206c656e67746800604482015260640161027b565b6003816004811115612007576120076126d9565b0361205f5760405162461bcd60e51b815260206004820152602260248201527f45434453413a20696e76616c6964207369676e6174757265202773272076616c604482015261756560f01b606482015260840161027b565b6004816004811115612073576120736126d9565b036116d75760405162461bcd60e51b815260206004820152602260248201527f45434453413a20696e76616c6964207369676e6174757265202776272076616c604482015261756560f01b606482015260840161027b565b6002546001600160a01b0385166120f457604051622e076360e81b815260040160405180910390fd5b836000036121155760405163b562e8dd60e01b815260040160405180910390fd5b6121226000868387611e55565b6001600160a01b038516600081815260076020908152604080832080546fffffffffffffffffffffffffffffffff19811667ffffffffffffffff8083168c0181169182176801000000000000000067ffffffffffffffff1990941690921783900481168c01811690920217909155858452600690925290912080546001600160e01b031916909217600160a01b4290921691909102179055808085018380156121d457506001600160a01b0387163b15155b1561225c575b60405182906001600160a01b038916906000907fddf252ad1be2c89b69c2b068fc378daa952ba7f163c4a11628f55a4df523b3ef908290a46122256000888480600101955088611c5b565b612242576040516368d2bf6b60e11b815260040160405180910390fd5b8082036121da57826002541461225757600080fd5b6122a1565b5b6040516001830192906001600160a01b038916906000907fddf252ad1be2c89b69c2b068fc378daa952ba7f163c4a11628f55a4df523b3ef908290a480820361225d575b5060025561197f565b6000807f7fffffffffffffffffffffffffffffff5d576e7357a4501ddfe92f46681b20a08311156122e1575060009050600361238e565b8460ff16601b141580156122f957508460ff16601c14155b1561230a575060009050600461238e565b6040805160008082526020820180845289905260ff881692820192909252606081018690526080810185905260019060a0016020604051602081039080840390855afa15801561235e573d6000803e3d6000fd5b5050604051601f1901519150506001600160a01b0381166123875760006001925092505061238e565b9150600090505b94509492505050565b6000806001600160ff1b038316816123b460ff86901c601b612795565b90506123c2878288856122aa565b935093505050935093915050565b6001600160e01b0319811681146116d757600080fd5b6000602082840312156123f857600080fd5b8135611a53816123d0565b80356001600160a01b038116811461241a57600080fd5b919050565b6000806040838503121561243257600080fd5b61243b83612403565b946020939093013593505050565b60006020828403121561245b57600080fd5b611a5382612403565b60005b8381101561247f578181015183820152602001612467565b838111156115775750506000910152565b600081518084526124a8816020860160208601612464565b601f01601f19169290920160200192915050565b602081526000611a536020830184612490565b6000602082840312156124e157600080fd5b5035919050565b6000806000606084860312156124fd57600080fd5b61250684612403565b925061251460208501612403565b9150604084013590509250925092565b6000806000806060858703121561253a57600080fd5b61254385612403565b935060208501359250604085013567ffffffffffffffff8082111561256757600080fd5b818701915087601f83011261257b57600080fd5b81358181111561258a57600080fd5b88602082850101111561259c57600080fd5b95989497505060200194505050565b600080604083850312156125be57600080fd5b6125c783612403565b9150602083013580151581146125dc57600080fd5b809150509250929050565b634e487b7160e01b600052604160045260246000fd5b6000806000806080858703121561261357600080fd5b61261c85612403565b935061262a60208601612403565b925060408501359150606085013567ffffffffffffffff8082111561264e57600080fd5b818701915087601f83011261266257600080fd5b813581811115612674576126746125e7565b604051601f8201601f19908116603f0116810190838211818310171561269c5761269c6125e7565b816040528281528a60208487010111156126b557600080fd5b82602086016020830137600060208483010152809550505050505092959194509250565b634e487b7160e01b600052602160045260246000fd5b602081016003831061271157634e487b7160e01b600052602160045260246000fd5b91905290565b6000806040838503121561272a57600080fd5b61273383612403565b915061274160208401612403565b90509250929050565b6020808252818101527f4f776e61626c653a2063616c6c6572206973206e6f7420746865206f776e6572604082015260600190565b634e487b7160e01b600052601160045260246000fd5b600082198211156127a8576127a861277f565b500190565b600181811c908216806127c157607f821691505b6020821081036127e157634e487b7160e01b600052602260045260246000fd5b50919050565b6020808252601e908201527f5468652063616c6c657220697320616e6f7468657220636f6e74726163740000604082015260600190565b6000828210156128305761283061277f565b500390565b60208082526010908201526f4e6f7420656e6f7567682066756e647360801b604082015260600190565b60008151612871818560208601612464565b9290920192915050565b600080845481600182811c91508083168061289757607f831692505b602080841082036128b657634e487b7160e01b86526022600452602486fd5b8180156128ca57600181146128db57612908565b60ff19861689528489019650612908565b60008b81526020902060005b868110156129005781548b8201529085019083016128e7565b505084890196505b50505050505061292c61291b828661285f565b64173539b7b760d91b815260050190565b95945050505050565b600081600019048311821515161561294f5761294f61277f565b500290565b6001600160a01b038581168252841660208201526040810183905260806060820181905260009061298790830184612490565b9695505050505050565b6000602082840312156129a357600080fd5b8151611a53816123d0565b6000600182016129c0576129c061277f565b5060010190565b634e487b7160e01b600052601260045260246000fd5b6000826129ec576129ec6129c7565b500490565b600082612a0057612a006129c7565b500690565b634e487b7160e01b600052603260045260246000fdfea264697066735822122087ce6c73c8b9bda9eae8c11192d0508a2db8f4fc9e2e32d715476ed07b94226764736f6c634300080d0033697066733a2f2f516d627654394c34374d56756d3769636e6f4362377350505931376d774251787a59694748516268794a765048362f",
  "linkReferences": {},
  "deployedLinkReferences": {}
}